{
  "_format": "hh-sol-artifact-1",
  "contractName": "AnniversaryToken",
  "sourceName": "contracts/AnniversaryToken.sol",
  "abi": [
    {
      "inputs": [],
      "stateMutability": "nonpayable",
      "type": "constructor"
    },
    {
      "anonymous": false,
      "inputs": [
        {
          "indexed": true,
          "internalType": "uint256",
          "name": "_tokenId",
          "type": "uint256"
        },
        {
          "components": [
            {
              "internalType": "string",
              "name": "name",
              "type": "string"
            },
            {
              "internalType": "string",
              "name": "description",
              "type": "string"
            },
            {
              "internalType": "string",
              "name": "author",
              "type": "string"
            },
            {
              "internalType": "string",
              "name": "authorUrl",
              "type": "string"
            },
            {
              "internalType": "string",
              "name": "lang",
              "type": "string"
            }
          ],
          "indexed": false,
          "internalType": "struct Anniversable._Anniversary",
          "name": "_value",
          "type": "tuple"
        }
      ],
      "name": "AnniversaryUpdated",
      "type": "event"
    },
    {
      "anonymous": false,
      "inputs": [
        {
          "indexed": true,
          "internalType": "address",
          "name": "owner",
          "type": "address"
        },
        {
          "indexed": true,
          "internalType": "address",
          "name": "approved",
          "type": "address"
        },
        {
          "indexed": true,
          "internalType": "uint256",
          "name": "tokenId",
          "type": "uint256"
        }
      ],
      "name": "Approval",
      "type": "event"
    },
    {
      "anonymous": false,
      "inputs": [
        {
          "indexed": true,
          "internalType": "address",
          "name": "owner",
          "type": "address"
        },
        {
          "indexed": true,
          "internalType": "address",
          "name": "operator",
          "type": "address"
        },
        {
          "indexed": false,
          "internalType": "bool",
          "name": "approved",
          "type": "bool"
        }
      ],
      "name": "ApprovalForAll",
      "type": "event"
    },
    {
      "anonymous": false,
      "inputs": [
        {
          "indexed": false,
          "internalType": "address",
          "name": "account",
          "type": "address"
        }
      ],
      "name": "Paused",
      "type": "event"
    },
    {
      "anonymous": false,
      "inputs": [
        {
          "indexed": true,
          "internalType": "bytes32",
          "name": "role",
          "type": "bytes32"
        },
        {
          "indexed": true,
          "internalType": "bytes32",
          "name": "previousAdminRole",
          "type": "bytes32"
        },
        {
          "indexed": true,
          "internalType": "bytes32",
          "name": "newAdminRole",
          "type": "bytes32"
        }
      ],
      "name": "RoleAdminChanged",
      "type": "event"
    },
    {
      "anonymous": false,
      "inputs": [
        {
          "indexed": true,
          "internalType": "bytes32",
          "name": "role",
          "type": "bytes32"
        },
        {
          "indexed": true,
          "internalType": "address",
          "name": "account",
          "type": "address"
        },
        {
          "indexed": true,
          "internalType": "address",
          "name": "sender",
          "type": "address"
        }
      ],
      "name": "RoleGranted",
      "type": "event"
    },
    {
      "anonymous": false,
      "inputs": [
        {
          "indexed": true,
          "internalType": "bytes32",
          "name": "role",
          "type": "bytes32"
        },
        {
          "indexed": true,
          "internalType": "address",
          "name": "account",
          "type": "address"
        },
        {
          "indexed": true,
          "internalType": "address",
          "name": "sender",
          "type": "address"
        }
      ],
      "name": "RoleRevoked",
      "type": "event"
    },
    {
      "anonymous": false,
      "inputs": [
        {
          "indexed": true,
          "internalType": "address",
          "name": "from",
          "type": "address"
        },
        {
          "indexed": true,
          "internalType": "address",
          "name": "to",
          "type": "address"
        },
        {
          "indexed": true,
          "internalType": "uint256",
          "name": "tokenId",
          "type": "uint256"
        }
      ],
      "name": "Transfer",
      "type": "event"
    },
    {
      "anonymous": false,
      "inputs": [
        {
          "indexed": false,
          "internalType": "address",
          "name": "account",
          "type": "address"
        }
      ],
      "name": "Unpaused",
      "type": "event"
    },
    {
      "inputs": [],
      "name": "DEFAULT_ADMIN_ROLE",
      "outputs": [
        {
          "internalType": "bytes32",
          "name": "",
          "type": "bytes32"
        }
      ],
      "stateMutability": "view",
      "type": "function"
    },
    {
      "inputs": [],
      "name": "PAUSER_ROLE",
      "outputs": [
        {
          "internalType": "bytes32",
          "name": "",
          "type": "bytes32"
        }
      ],
      "stateMutability": "view",
      "type": "function"
    },
    {
      "inputs": [],
      "name": "anniversaries365",
      "outputs": [
        {
          "components": [
            {
              "internalType": "uint8",
              "name": "month",
              "type": "uint8"
            },
            {
              "internalType": "uint8",
              "name": "day",
              "type": "uint8"
            },
            {
              "internalType": "string",
              "name": "name",
              "type": "string"
            },
            {
              "internalType": "string",
              "name": "description",
              "type": "string"
            },
            {
              "internalType": "string",
              "name": "author",
              "type": "string"
            },
            {
              "internalType": "string",
              "name": "authorUrl",
              "type": "string"
            },
            {
              "internalType": "string",
              "name": "lang",
              "type": "string"
            },
            {
              "internalType": "bool",
              "name": "isEmpty",
              "type": "bool"
            }
          ],
          "internalType": "struct Anniversable.Anniversary[]",
          "name": "",
          "type": "tuple[]"
        }
      ],
      "stateMutability": "view",
      "type": "function"
    },
    {
      "inputs": [
        {
          "internalType": "uint256",
          "name": "tokenId",
          "type": "uint256"
        }
      ],
      "name": "anniversary",
      "outputs": [
        {
          "components": [
            {
              "internalType": "uint8",
              "name": "month",
              "type": "uint8"
            },
            {
              "internalType": "uint8",
              "name": "day",
              "type": "uint8"
            },
            {
              "internalType": "string",
              "name": "name",
              "type": "string"
            },
            {
              "internalType": "string",
              "name": "description",
              "type": "string"
            },
            {
              "internalType": "string",
              "name": "author",
              "type": "string"
            },
            {
              "internalType": "string",
              "name": "authorUrl",
              "type": "string"
            },
            {
              "internalType": "string",
              "name": "lang",
              "type": "string"
            },
            {
              "internalType": "bool",
              "name": "isEmpty",
              "type": "bool"
            }
          ],
          "internalType": "struct Anniversable.Anniversary",
          "name": "",
          "type": "tuple"
        }
      ],
      "stateMutability": "view",
      "type": "function"
    },
    {
      "inputs": [
        {
          "internalType": "address",
          "name": "to",
          "type": "address"
        },
        {
          "internalType": "uint256",
          "name": "tokenId",
          "type": "uint256"
        }
      ],
      "name": "approve",
      "outputs": [],
      "stateMutability": "nonpayable",
      "type": "function"
    },
    {
      "inputs": [
        {
          "internalType": "address",
          "name": "owner",
          "type": "address"
        }
      ],
      "name": "balanceOf",
      "outputs": [
        {
          "internalType": "uint256",
          "name": "",
          "type": "uint256"
        }
      ],
      "stateMutability": "view",
      "type": "function"
    },
    {
      "inputs": [
        {
          "internalType": "uint256",
          "name": "tokenId",
          "type": "uint256"
        }
      ],
      "name": "burn",
      "outputs": [],
      "stateMutability": "nonpayable",
      "type": "function"
    },
    {
      "inputs": [
        {
          "internalType": "uint256",
          "name": "tokenId",
          "type": "uint256"
        }
      ],
      "name": "getApproved",
      "outputs": [
        {
          "internalType": "address",
          "name": "",
          "type": "address"
        }
      ],
      "stateMutability": "view",
      "type": "function"
    },
    {
      "inputs": [],
      "name": "getCount",
      "outputs": [
        {
          "internalType": "uint256",
          "name": "",
          "type": "uint256"
        }
      ],
      "stateMutability": "view",
      "type": "function"
    },
    {
      "inputs": [],
      "name": "getPrice",
      "outputs": [
        {
          "internalType": "uint256",
          "name": "",
          "type": "uint256"
        }
      ],
      "stateMutability": "view",
      "type": "function"
    },
    {
      "inputs": [
        {
          "internalType": "bytes32",
          "name": "role",
          "type": "bytes32"
        }
      ],
      "name": "getRoleAdmin",
      "outputs": [
        {
          "internalType": "bytes32",
          "name": "",
          "type": "bytes32"
        }
      ],
      "stateMutability": "view",
      "type": "function"
    },
    {
      "inputs": [
        {
          "internalType": "bytes32",
          "name": "role",
          "type": "bytes32"
        },
        {
          "internalType": "uint256",
          "name": "index",
          "type": "uint256"
        }
      ],
      "name": "getRoleMember",
      "outputs": [
        {
          "internalType": "address",
          "name": "",
          "type": "address"
        }
      ],
      "stateMutability": "view",
      "type": "function"
    },
    {
      "inputs": [
        {
          "internalType": "bytes32",
          "name": "role",
          "type": "bytes32"
        }
      ],
      "name": "getRoleMemberCount",
      "outputs": [
        {
          "internalType": "uint256",
          "name": "",
          "type": "uint256"
        }
      ],
      "stateMutability": "view",
      "type": "function"
    },
    {
      "inputs": [
        {
          "internalType": "bytes32",
          "name": "role",
          "type": "bytes32"
        },
        {
          "internalType": "address",
          "name": "account",
          "type": "address"
        }
      ],
      "name": "grantRole",
      "outputs": [],
      "stateMutability": "nonpayable",
      "type": "function"
    },
    {
      "inputs": [
        {
          "internalType": "uint256",
          "name": "month",
          "type": "uint256"
        },
        {
          "internalType": "uint256",
          "name": "day",
          "type": "uint256"
        }
      ],
      "name": "hasMinted",
      "outputs": [
        {
          "internalType": "bool",
          "name": "",
          "type": "bool"
        }
      ],
      "stateMutability": "view",
      "type": "function"
    },
    {
      "inputs": [
        {
          "internalType": "bytes32",
          "name": "role",
          "type": "bytes32"
        },
        {
          "internalType": "address",
          "name": "account",
          "type": "address"
        }
      ],
      "name": "hasRole",
      "outputs": [
        {
          "internalType": "bool",
          "name": "",
          "type": "bool"
        }
      ],
      "stateMutability": "view",
      "type": "function"
    },
    {
      "inputs": [
        {
          "internalType": "address",
          "name": "owner",
          "type": "address"
        },
        {
          "internalType": "address",
          "name": "operator",
          "type": "address"
        }
      ],
      "name": "isApprovedForAll",
      "outputs": [
        {
          "internalType": "bool",
          "name": "",
          "type": "bool"
        }
      ],
      "stateMutability": "view",
      "type": "function"
    },
    {
      "inputs": [
        {
          "internalType": "address",
          "name": "_address",
          "type": "address"
        }
      ],
      "name": "isContractOwner",
      "outputs": [
        {
          "internalType": "bool",
          "name": "",
          "type": "bool"
        }
      ],
      "stateMutability": "view",
      "type": "function"
    },
    {
      "inputs": [
        {
          "internalType": "uint256",
          "name": "month",
          "type": "uint256"
        },
        {
          "internalType": "uint256",
          "name": "day",
          "type": "uint256"
        }
      ],
      "name": "isMinter",
      "outputs": [
        {
          "internalType": "bool",
          "name": "",
          "type": "bool"
        }
      ],
      "stateMutability": "view",
      "type": "function"
    },
    {
      "inputs": [
        {
          "internalType": "uint256",
          "name": "month",
          "type": "uint256"
        },
        {
          "internalType": "uint256",
          "name": "day",
          "type": "uint256"
        }
      ],
      "name": "mint",
      "outputs": [],
      "stateMutability": "payable",
      "type": "function"
    },
    {
      "inputs": [],
      "name": "name",
      "outputs": [
        {
          "internalType": "string",
          "name": "",
          "type": "string"
        }
      ],
      "stateMutability": "view",
      "type": "function"
    },
    {
      "inputs": [
        {
          "internalType": "uint256",
          "name": "tokenId",
          "type": "uint256"
        }
      ],
      "name": "ownerOf",
      "outputs": [
        {
          "internalType": "address",
          "name": "",
          "type": "address"
        }
      ],
      "stateMutability": "view",
      "type": "function"
    },
    {
      "inputs": [],
      "name": "pause",
      "outputs": [],
      "stateMutability": "nonpayable",
      "type": "function"
    },
    {
      "inputs": [],
      "name": "paused",
      "outputs": [
        {
          "internalType": "bool",
          "name": "",
          "type": "bool"
        }
      ],
      "stateMutability": "view",
      "type": "function"
    },
    {
      "inputs": [
        {
          "internalType": "bytes32",
          "name": "role",
          "type": "bytes32"
        },
        {
          "internalType": "address",
          "name": "account",
          "type": "address"
        }
      ],
      "name": "renounceRole",
      "outputs": [],
      "stateMutability": "nonpayable",
      "type": "function"
    },
    {
      "inputs": [
        {
          "internalType": "bytes32",
          "name": "role",
          "type": "bytes32"
        },
        {
          "internalType": "address",
          "name": "account",
          "type": "address"
        }
      ],
      "name": "revokeRole",
      "outputs": [],
      "stateMutability": "nonpayable",
      "type": "function"
    },
    {
      "inputs": [
        {
          "internalType": "address",
          "name": "from",
          "type": "address"
        },
        {
          "internalType": "address",
          "name": "to",
          "type": "address"
        },
        {
          "internalType": "uint256",
          "name": "tokenId",
          "type": "uint256"
        }
      ],
      "name": "safeTransferFrom",
      "outputs": [],
      "stateMutability": "nonpayable",
      "type": "function"
    },
    {
      "inputs": [
        {
          "internalType": "address",
          "name": "from",
          "type": "address"
        },
        {
          "internalType": "address",
          "name": "to",
          "type": "address"
        },
        {
          "internalType": "uint256",
          "name": "tokenId",
          "type": "uint256"
        },
        {
          "internalType": "bytes",
          "name": "data",
          "type": "bytes"
        }
      ],
      "name": "safeTransferFrom",
      "outputs": [],
      "stateMutability": "nonpayable",
      "type": "function"
    },
    {
      "inputs": [
        {
          "internalType": "uint256",
          "name": "tokenId",
          "type": "uint256"
        },
        {
          "internalType": "string",
          "name": "_name",
          "type": "string"
        },
        {
          "internalType": "string",
          "name": "_description",
          "type": "string"
        },
        {
          "internalType": "string",
          "name": "_author",
          "type": "string"
        },
        {
          "internalType": "string",
          "name": "_authorUrl",
          "type": "string"
        },
        {
          "internalType": "string",
          "name": "_lang",
          "type": "string"
        }
      ],
      "name": "setAnniversary",
      "outputs": [],
      "stateMutability": "nonpayable",
      "type": "function"
    },
    {
      "inputs": [
        {
          "internalType": "address",
          "name": "operator",
          "type": "address"
        },
        {
          "internalType": "bool",
          "name": "approved",
          "type": "bool"
        }
      ],
      "name": "setApprovalForAll",
      "outputs": [],
      "stateMutability": "nonpayable",
      "type": "function"
    },
    {
      "inputs": [
        {
          "internalType": "string",
          "name": "newURI",
          "type": "string"
        }
      ],
      "name": "setBaseURI",
      "outputs": [],
      "stateMutability": "nonpayable",
      "type": "function"
    },
    {
      "inputs": [
        {
          "internalType": "bytes4",
          "name": "interfaceId",
          "type": "bytes4"
        }
      ],
      "name": "supportsInterface",
      "outputs": [
        {
          "internalType": "bool",
          "name": "",
          "type": "bool"
        }
      ],
      "stateMutability": "view",
      "type": "function"
    },
    {
      "inputs": [],
      "name": "symbol",
      "outputs": [
        {
          "internalType": "string",
          "name": "",
          "type": "string"
        }
      ],
      "stateMutability": "view",
      "type": "function"
    },
    {
      "inputs": [
        {
          "internalType": "uint256",
          "name": "index",
          "type": "uint256"
        }
      ],
      "name": "tokenByIndex",
      "outputs": [
        {
          "internalType": "uint256",
          "name": "",
          "type": "uint256"
        }
      ],
      "stateMutability": "view",
      "type": "function"
    },
    {
      "inputs": [
        {
          "internalType": "address",
          "name": "owner",
          "type": "address"
        },
        {
          "internalType": "uint256",
          "name": "index",
          "type": "uint256"
        }
      ],
      "name": "tokenOfOwnerByIndex",
      "outputs": [
        {
          "internalType": "uint256",
          "name": "",
          "type": "uint256"
        }
      ],
      "stateMutability": "view",
      "type": "function"
    },
    {
      "inputs": [
        {
          "internalType": "uint256",
          "name": "tokenId",
          "type": "uint256"
        }
      ],
      "name": "tokenURI",
      "outputs": [
        {
          "internalType": "string",
          "name": "",
          "type": "string"
        }
      ],
      "stateMutability": "view",
      "type": "function"
    },
    {
      "inputs": [],
      "name": "totalSupply",
      "outputs": [
        {
          "internalType": "uint256",
          "name": "",
          "type": "uint256"
        }
      ],
      "stateMutability": "view",
      "type": "function"
    },
    {
      "inputs": [
        {
          "internalType": "address",
          "name": "from",
          "type": "address"
        },
        {
          "internalType": "address",
          "name": "to",
          "type": "address"
        },
        {
          "internalType": "uint256",
          "name": "tokenId",
          "type": "uint256"
        }
      ],
      "name": "transferFrom",
      "outputs": [],
      "stateMutability": "nonpayable",
      "type": "function"
    },
    {
      "inputs": [],
      "name": "unpause",
      "outputs": [],
      "stateMutability": "nonpayable",
      "type": "function"
    }
  ],
  "bytecode": "0x60e06040526027608081815290620039d660a0398051620000299160109160209091019062000269565b503480156200003757600080fd5b50604080518082018252600b81526a416e6e697665727361727960a81b602080830191825283518085019094526009845268414e4e49564552534560b81b9084015281519192916200008c9160029162000269565b508051620000a290600390602084019062000269565b5050600c805460ff1916905550600f80546001600160a01b03191633908117909155620000d29060009062000104565b620000fe7f65d7a28e3265b37a6474929f336521b332c1681b933f6cb9f3376673440d862a3362000104565b6200034c565b62000110828262000114565b5050565b6200012b82826200015760201b620019931760201c565b60008281526001602090815260409091206200015291839062001a17620001f7821b17901c565b505050565b6000828152602081815260408083206001600160a01b038516845290915290205460ff1662000110576000828152602081815260408083206001600160a01b03851684529091529020805460ff19166001179055620001b33390565b6001600160a01b0316816001600160a01b0316837f2f8788117e7eff1d82e926ec794901d17c78024a50270940304540a733656f0d60405160405180910390a45050565b60006200020e836001600160a01b03841662000217565b90505b92915050565b6000818152600183016020526040812054620002605750815460018181018455600084815260208082209093018490558454848252828601909352604090209190915562000211565b50600062000211565b82805462000277906200030f565b90600052602060002090601f0160209004810192826200029b5760008555620002e6565b82601f10620002b657805160ff1916838001178555620002e6565b82800160010185558215620002e6579182015b82811115620002e6578251825591602001919060010190620002c9565b50620002f4929150620002f8565b5090565b5b80821115620002f45760008155600101620002f9565b600181811c908216806200032457607f821691505b602082108114156200034657634e487b7160e01b600052602260045260246000fd5b50919050565b61367a806200035c6000396000f3fe6080604052600436106102305760003560e01c80635d00cf0e1161012e578063a87d942c116100ab578063d547741f1161006f578063d547741f1461066d578063d65b7b121461068d578063de117688146106ad578063e63ab1e9146106dc578063e985e9c51461071057600080fd5b8063a87d942c146105d6578063b1cf0559146105eb578063b88d4fde1461060d578063c87b56dd1461062d578063ca15c8731461064d57600080fd5b806391d14854116100f257806391d148541461055757806395d89b411461057757806398d5fdca1461058c578063a217fddf146105a1578063a22cb465146105b657600080fd5b80635d00cf0e146104c25780636352211e146104e257806370a08231146105025780638456cb59146105225780639010d07c1461053757600080fd5b80632f2ff15d116101bc57806342842e0e1161018057806342842e0e1461042a57806342966c681461044a5780634f6ccce71461046a57806355f804b31461048a5780635c975abb146104aa57600080fd5b80632f2ff15d146103885780632f745c59146103a857806336568abe146103c85780633f4ba83a146103e85780634001935f146103fd57600080fd5b806318160ddd1161020357806318160ddd146102e65780631b2ef1ca146103055780631fdc4fd71461031857806323b872dd14610338578063248a9ca31461035857600080fd5b806301ffc9a71461023557806306fdde031461026a578063081812fc1461028c578063095ea7b3146102c4575b600080fd5b34801561024157600080fd5b50610255610250366004612cf5565b610759565b60405190151581526020015b60405180910390f35b34801561027657600080fd5b5061027f61076a565b6040516102619190612d6a565b34801561029857600080fd5b506102ac6102a7366004612d7d565b6107fc565b6040516001600160a01b039091168152602001610261565b3480156102d057600080fd5b506102e46102df366004612db2565b610823565b005b3480156102f257600080fd5b50600a545b604051908152602001610261565b6102e4610313366004612ddc565b61093e565b34801561032457600080fd5b50610255610333366004612ddc565b610a55565b34801561034457600080fd5b506102e4610353366004612dfe565b610a94565b34801561036457600080fd5b506102f7610373366004612d7d565b60009081526020819052604090206001015490565b34801561039457600080fd5b506102e46103a3366004612e3a565b610ac6565b3480156103b457600080fd5b506102f76103c3366004612db2565b610aeb565b3480156103d457600080fd5b506102e46103e3366004612e3a565b610b81565b3480156103f457600080fd5b506102e4610bff565b34801561040957600080fd5b5061041d610418366004612d7d565b610ca7565b6040516102619190612f24565b34801561043657600080fd5b506102e4610445366004612dfe565b6110ba565b34801561045657600080fd5b506102e4610465366004612d7d565b6110d5565b34801561047657600080fd5b506102f7610485366004612d7d565b611106565b34801561049657600080fd5b506102e46104a5366004612fe3565b611199565b3480156104b657600080fd5b50600c5460ff16610255565b3480156104ce57600080fd5b506102e46104dd366004613018565b6111f9565b3480156104ee57600080fd5b506102ac6104fd366004612d7d565b611520565b34801561050e57600080fd5b506102f761051d3660046130f2565b611580565b34801561052e57600080fd5b506102e4611606565b34801561054357600080fd5b506102ac610552366004612ddc565b6116aa565b34801561056357600080fd5b50610255610572366004612e3a565b6116c9565b34801561058357600080fd5b5061027f6116f2565b34801561059857600080fd5b506102f7611701565b3480156105ad57600080fd5b506102f7600081565b3480156105c257600080fd5b506102e46105d136600461310d565b611757565b3480156105e257600080fd5b506102f7611762565b3480156105f757600080fd5b50610600611772565b6040516102619190613149565b34801561061957600080fd5b506102e46106283660046131ab565b611861565b34801561063957600080fd5b5061027f610648366004612d7d565b611893565b34801561065957600080fd5b506102f7610668366004612d7d565b6118f9565b34801561067957600080fd5b506102e4610688366004612e3a565b611910565b34801561069957600080fd5b506102556106a8366004612ddc565b611935565b3480156106b957600080fd5b506102556106c83660046130f2565b600f546001600160a01b0390811691161490565b3480156106e857600080fd5b506102f77f65d7a28e3265b37a6474929f336521b332c1681b933f6cb9f3376673440d862a81565b34801561071c57600080fd5b5061025561072b366004613227565b6001600160a01b03918216600090815260076020908152604080832093909416825291909152205460ff1690565b600061076482611a2c565b92915050565b60606002805461077990613251565b80601f01602080910402602001604051908101604052809291908181526020018280546107a590613251565b80156107f25780601f106107c7576101008083540402835291602001916107f2565b820191906000526020600020905b8154815290600101906020018083116107d557829003601f168201915b5050505050905090565b600061080782611a51565b506000908152600660205260409020546001600160a01b031690565b600061082e82611520565b9050806001600160a01b0316836001600160a01b031614156108a15760405162461bcd60e51b815260206004820152602160248201527f4552433732313a20617070726f76616c20746f2063757272656e74206f776e656044820152603960f91b60648201526084015b60405180910390fd5b336001600160a01b03821614806108bd57506108bd813361072b565b61092f5760405162461bcd60e51b815260206004820152603e60248201527f4552433732313a20617070726f76652063616c6c6572206973206e6f7420746f60448201527f6b656e206f776e6572206e6f7220617070726f76656420666f7220616c6c00006064820152608401610898565b6109398383611ab0565b505050565b6000610948611701565b90508034146109845760405162461bcd60e51b81526020600482015260086024820152676d7573742070617960c01b6044820152606401610898565b6000831180156109955750600c8311155b6109d45760405162461bcd60e51b815260206004820152601060248201526f1b5bdb9d1a081a5cc81a5b9d985b1a5960821b6044820152606401610898565b6000821180156109e55750601f8211155b610a225760405162461bcd60e51b815260206004820152600e60248201526d19185e481a5cc81a5b9d985b1a5960921b6044820152606401610898565b610a2b81611b1e565b600082610a3985606461329c565b610a4391906132bb565b9050610a4f3382611b69565b50505050565b60008082610a6485606461329c565b610a6e91906132bb565b6000818152600460205260409020549091506001600160a01b031615155b949350505050565b610a9f335b82611cb7565b610abb5760405162461bcd60e51b8152600401610898906132d3565b610939838383611d23565b600082815260208190526040902060010154610ae181611eca565b6109398383611ed4565b6000610af683611580565b8210610b585760405162461bcd60e51b815260206004820152602b60248201527f455243373231456e756d657261626c653a206f776e657220696e646578206f7560448201526a74206f6620626f756e647360a81b6064820152608401610898565b506001600160a01b03919091166000908152600860209081526040808320938352929052205490565b6001600160a01b0381163314610bf15760405162461bcd60e51b815260206004820152602f60248201527f416363657373436f6e74726f6c3a2063616e206f6e6c792072656e6f756e636560448201526e103937b632b9903337b91039b2b63360891b6064820152608401610898565b610bfb8282611ef6565b5050565b610c297f65d7a28e3265b37a6474929f336521b332c1681b933f6cb9f3376673440d862a336116c9565b610c9d576040805162461bcd60e51b81526020600482015260248101919091527f4552433732315072657365744d696e7465725061757365724175746f49643a2060448201527f6d75737420686176652070617573657220726f6c6520746f20756e70617573656064820152608401610898565b610ca5611f18565b565b610caf612bf9565b6000610cbc606484613337565b90506000610ccb60648561334b565b9050610cd684611f6a565b1561103b576040518061010001604052808360ff1681526020018260ff168152602001600d60008781526020019081526020016000206000018054610d1a90613251565b80601f0160208091040260200160405190810160405280929190818152602001828054610d4690613251565b8015610d935780601f10610d6857610100808354040283529160200191610d93565b820191906000526020600020905b815481529060010190602001808311610d7657829003601f168201915b50505050508152602001600d60008781526020019081526020016000206001018054610dbe90613251565b80601f0160208091040260200160405190810160405280929190818152602001828054610dea90613251565b8015610e375780601f10610e0c57610100808354040283529160200191610e37565b820191906000526020600020905b815481529060010190602001808311610e1a57829003601f168201915b50505050508152602001600d60008781526020019081526020016000206002018054610e6290613251565b80601f0160208091040260200160405190810160405280929190818152602001828054610e8e90613251565b8015610edb5780601f10610eb057610100808354040283529160200191610edb565b820191906000526020600020905b815481529060010190602001808311610ebe57829003601f168201915b50505050508152602001600d60008781526020019081526020016000206003018054610f0690613251565b80601f0160208091040260200160405190810160405280929190818152602001828054610f3290613251565b8015610f7f5780601f10610f5457610100808354040283529160200191610f7f565b820191906000526020600020905b815481529060010190602001808311610f6257829003601f168201915b50505050508152602001600d60008781526020019081526020016000206004018054610faa90613251565b80601f0160208091040260200160405190810160405280929190818152602001828054610fd690613251565b80156110235780601f10610ff857610100808354040283529160200191611023565b820191906000526020600020905b81548152906001019060200180831161100657829003601f168201915b50505091835250506000602090910152949350505050565b604080516101008101825260ff938416815291909216602080830191909152825180820184526000808252838501919091528351808301855281815260608401528351808301855281815260808401528351808301855281815260a0840152835191820190935291825260c0810191909152600160e082015292915050565b61093983838360405180602001604052806000815250611861565b6110de33610a99565b6110fa5760405162461bcd60e51b8152600401610898906132d3565b6111038161200f565b50565b6000611111600a5490565b82106111745760405162461bcd60e51b815260206004820152602c60248201527f455243373231456e756d657261626c653a20676c6f62616c20696e646578206f60448201526b7574206f6620626f756e647360a01b6064820152608401610898565b600a82815481106111875761118761335f565b90600052602060002001549050919050565b6111a46000336116c9565b6111e65760405162461bcd60e51b815260206004820152601360248201527221b0b63632b91034b9903737ba1030b236b4b760691b6044820152606401610898565b8051610bfb906010906020840190612c46565b61120286611a51565b600061120d87611520565b90506001600160a01b03811633146112675760405162461bcd60e51b815260206004820152601b60248201527f6d7573742068617665206f776e657220726f6c6520746f2073657400000000006044820152606401610898565b855186906112aa5760405162461bcd60e51b815260206004820152601060248201526f1b985b59481a5cc81c995c5d5a5c995960821b6044820152606401610898565b6080815111156112fc5760405162461bcd60e51b815260206004820152601c60248201527f6e616d65206973206c696d6974656420746f20313238206279746573000000006044820152606401610898565b85518690610200101561135d5760405162461bcd60e51b815260206004820152602360248201527f6465736372697074696f6e206973206c696d6974656420746f2035313220627960448201526274657360e81b6064820152608401610898565b85518690608010156113b15760405162461bcd60e51b815260206004820152601e60248201527f617574686f72206973206c696d6974656420746f2031323820627974657300006044820152606401610898565b8551869061020010156114105760405162461bcd60e51b815260206004820152602160248201527f617574686f7255726c206973206c696d6974656420746f2035313220627974656044820152607360f81b6064820152608401610898565b6040805160a0810182528b815260208082018c90528183018b9052606082018a90526080820189905260008e8152600d825292909220815180519293919261145b9284920190612c46565b5060208281015180516114749260018501920190612c46565b5060408201518051611490916002840191602090910190612c46565b50606082015180516114ac916003840191602090910190612c46565b50608082015180516114c8916004840191602090910190612c46565b50505060008b8152600d60205260409081902090518c917f3359fac74079841f2d8cd9f9ea6025a9c7944ca809803cc71aa542f46cc675fb9161150b9190613415565b60405180910390a25050505050505050505050565b6000818152600460205260408120546001600160a01b0316806107645760405162461bcd60e51b8152602060048201526018602482015277115490cdcc8c4e881a5b9d985b1a59081d1bdad95b88125160421b6044820152606401610898565b60006001600160a01b0382166115ea5760405162461bcd60e51b815260206004820152602960248201527f4552433732313a2061646472657373207a65726f206973206e6f7420612076616044820152683634b21037bbb732b960b91b6064820152608401610898565b506001600160a01b031660009081526005602052604090205490565b6116307f65d7a28e3265b37a6474929f336521b332c1681b933f6cb9f3376673440d862a336116c9565b6116a25760405162461bcd60e51b815260206004820152603e60248201527f4552433732315072657365744d696e7465725061757365724175746f49643a2060448201527f6d75737420686176652070617573657220726f6c6520746f20706175736500006064820152608401610898565b610ca56120b6565b60008281526001602052604081206116c290836120f3565b9392505050565b6000918252602082815260408084206001600160a01b0393909316845291905290205460ff1690565b60606003805461077990613251565b60008061170d600e5490565b9050600061010982106117295750670de0b6b3a7640000610764565b60a5821061174057506706f05b59d3b20000610764565b60648210610764575066b1a2bc2ec5000092915050565b610bfb3383836120ff565b600061176d600e5490565b905090565b60408051610174808252612ea0820190925260609160009190816020015b611798612bf9565b81526020019060019003908161179057905050905060015b600c811161185b5760015b601f81116118485760006001826117d28286613495565b6117dd90601f61329c565b6117e791906132bb565b6117f19190613495565b905060008261180185606461329c565b61180b91906132bb565b905061181681610ca7565b8583815181106118285761182861335f565b602002602001018190525050508080611840906134ac565b9150506117bb565b5080611853816134ac565b9150506117b0565b50919050565b61186b3383611cb7565b6118875760405162461bcd60e51b8152600401610898906132d3565b610a4f848484846121ce565b606061189e82611a51565b60006118a8612201565b905060008151116118c857604051806020016040528060008152506116c2565b806118d284612210565b6040516020016118e39291906134c7565b6040516020818303038152906040529392505050565b60008181526001602052604081206107649061230e565b60008281526020819052604090206001015461192b81611eca565b6109398383611ef6565b6000808261194485606461329c565b61194e91906132bb565b6000818152600460205260409020549091506001600160a01b0316611977576000915050610764565b3361198182611520565b6001600160a01b031614949350505050565b61199d82826116c9565b610bfb576000828152602081815260408083206001600160a01b03851684529091529020805460ff191660011790556119d33390565b6001600160a01b0316816001600160a01b0316837f2f8788117e7eff1d82e926ec794901d17c78024a50270940304540a733656f0d60405160405180910390a45050565b60006116c2836001600160a01b038416612318565b60006001600160e01b0319821663780e9d6360e01b1480610764575061076482612367565b6000818152600460205260409020546001600160a01b03166111035760405162461bcd60e51b8152602060048201526018602482015277115490cdcc8c4e881a5b9d985b1a59081d1bdad95b88125160421b6044820152606401610898565b600081815260066020526040902080546001600160a01b0319166001600160a01b0384169081179091558190611ae582611520565b6001600160a01b03167f8c5be1e5ebec7d5bd14f71427d1e84f3dd0314c0f7b2291e5b200ac8c7c3b92560405160405180910390a45050565b600f546040516001600160a01b0390911690819083156108fc029084906000818181858888f19350505050158015611b5a573d6000803e3d6000fd5b50610bfb600e80546001019055565b6001600160a01b038216611bbf5760405162461bcd60e51b815260206004820181905260248201527f4552433732313a206d696e7420746f20746865207a65726f20616464726573736044820152606401610898565b6000818152600460205260409020546001600160a01b031615611c245760405162461bcd60e51b815260206004820152601c60248201527f4552433732313a20746f6b656e20616c7265616479206d696e746564000000006044820152606401610898565b611c30600083836123a7565b6001600160a01b0382166000908152600560205260408120805460019290611c599084906132bb565b909155505060008181526004602052604080822080546001600160a01b0319166001600160a01b03861690811790915590518392907fddf252ad1be2c89b69c2b068fc378daa952ba7f163c4a11628f55a4df523b3ef908290a45050565b600080611cc383611520565b9050806001600160a01b0316846001600160a01b03161480611d0a57506001600160a01b0380821660009081526007602090815260408083209388168352929052205460ff165b80610a8c5750836001600160a01b0316611981846107fc565b826001600160a01b0316611d3682611520565b6001600160a01b031614611d9a5760405162461bcd60e51b815260206004820152602560248201527f4552433732313a207472616e736665722066726f6d20696e636f72726563742060448201526437bbb732b960d91b6064820152608401610898565b6001600160a01b038216611dfc5760405162461bcd60e51b8152602060048201526024808201527f4552433732313a207472616e7366657220746f20746865207a65726f206164646044820152637265737360e01b6064820152608401610898565b611e078383836123a7565b611e12600082611ab0565b6001600160a01b0383166000908152600560205260408120805460019290611e3b908490613495565b90915550506001600160a01b0382166000908152600560205260408120805460019290611e699084906132bb565b909155505060008181526004602052604080822080546001600160a01b0319166001600160a01b0386811691821790925591518493918716917fddf252ad1be2c89b69c2b068fc378daa952ba7f163c4a11628f55a4df523b3ef91a4505050565b61110381336123b2565b611ede8282611993565b60008281526001602052604090206109399082611a17565b611f008282612416565b6000828152600160205260409020610939908261247b565b611f20612490565b600c805460ff191690557f5db9ee0a495bf2e6ff9c91a7834c1ba4fdd244a5e8aa4e537bd38aeae4b073aa335b6040516001600160a01b03909116815260200160405180910390a1565b6000818152600d602052604081208054829190611f8690613251565b80601f0160208091040260200160405190810160405280929190818152602001828054611fb290613251565b8015611fff5780601f10611fd457610100808354040283529160200191611fff565b820191906000526020600020905b815481529060010190602001808311611fe257829003601f168201915b5050925115159695505050505050565b600061201a82611520565b9050612028816000846123a7565b612033600083611ab0565b6001600160a01b038116600090815260056020526040812080546001929061205c908490613495565b909155505060008281526004602052604080822080546001600160a01b0319169055518391906001600160a01b038416907fddf252ad1be2c89b69c2b068fc378daa952ba7f163c4a11628f55a4df523b3ef908390a45050565b6120be6124d9565b600c805460ff191660011790557f62e78cea01bee320cd4e420270b5ea74000d11b0c9f74754ebdbfc544b05a258611f4d3390565b60006116c2838361251f565b816001600160a01b0316836001600160a01b031614156121615760405162461bcd60e51b815260206004820152601960248201527f4552433732313a20617070726f766520746f2063616c6c6572000000000000006044820152606401610898565b6001600160a01b03838116600081815260076020908152604080832094871680845294825291829020805460ff191686151590811790915591519182527f17307eab39ab6107e8899845ad3d59bd9653f200f220920489ca2b5937696c31910160405180910390a3505050565b6121d9848484611d23565b6121e584848484612549565b610a4f5760405162461bcd60e51b8152600401610898906134f6565b60606010805461077990613251565b6060816122345750506040805180820190915260018152600360fc1b602082015290565b8160005b811561225e5780612248816134ac565b91506122579050600a83613337565b9150612238565b60008167ffffffffffffffff81111561227957612279612f37565b6040519080825280601f01601f1916602001820160405280156122a3576020820181803683370190505b5090505b8415610a8c576122b8600183613495565b91506122c5600a8661334b565b6122d09060306132bb565b60f81b8183815181106122e5576122e561335f565b60200101906001600160f81b031916908160001a905350612307600a86613337565b94506122a7565b6000610764825490565b600081815260018301602052604081205461235f57508154600181810184556000848152602080822090930184905584548482528286019093526040902091909155610764565b506000610764565b60006001600160e01b031982166380ac58cd60e01b148061239857506001600160e01b03198216635b5e139f60e01b145b80610764575061076482612656565b61093983838361267b565b6123bc82826116c9565b610bfb576123d4816001600160a01b031660146126ed565b6123df8360206126ed565b6040516020016123f0929190613548565b60408051601f198184030181529082905262461bcd60e51b825261089891600401612d6a565b61242082826116c9565b15610bfb576000828152602081815260408083206001600160a01b0385168085529252808320805460ff1916905551339285917ff6391f5c32d9c69d2a47ea670b442974b53935d1edc7fd64eb21e047a839171b9190a45050565b60006116c2836001600160a01b038416612889565b600c5460ff16610ca55760405162461bcd60e51b815260206004820152601460248201527314185d5cd8589b194e881b9bdd081c185d5cd95960621b6044820152606401610898565b600c5460ff1615610ca55760405162461bcd60e51b815260206004820152601060248201526f14185d5cd8589b194e881c185d5cd95960821b6044820152606401610898565b60008260000182815481106125365761253661335f565b9060005260206000200154905092915050565b60006001600160a01b0384163b1561264b57604051630a85bd0160e11b81526001600160a01b0385169063150b7a029061258d9033908990889088906004016135bd565b602060405180830381600087803b1580156125a757600080fd5b505af19250505080156125d7575060408051601f3d908101601f191682019092526125d4918101906135fa565b60015b612631573d808015612605576040519150601f19603f3d011682016040523d82523d6000602084013e61260a565b606091505b5080516126295760405162461bcd60e51b8152600401610898906134f6565b805181602001fd5b6001600160e01b031916630a85bd0160e11b149050610a8c565b506001949350505050565b60006001600160e01b03198216635a05180f60e01b148061076457506107648261297c565b6126868383836129b1565b600c5460ff16156109395760405162461bcd60e51b815260206004820152602b60248201527f4552433732315061757361626c653a20746f6b656e207472616e73666572207760448201526a1a1a5b19481c185d5cd95960aa1b6064820152608401610898565b606060006126fc83600261329c565b6127079060026132bb565b67ffffffffffffffff81111561271f5761271f612f37565b6040519080825280601f01601f191660200182016040528015612749576020820181803683370190505b509050600360fc1b816000815181106127645761276461335f565b60200101906001600160f81b031916908160001a905350600f60fb1b816001815181106127935761279361335f565b60200101906001600160f81b031916908160001a90535060006127b784600261329c565b6127c29060016132bb565b90505b600181111561283a576f181899199a1a9b1b9c1cb0b131b232b360811b85600f16601081106127f6576127f661335f565b1a60f81b82828151811061280c5761280c61335f565b60200101906001600160f81b031916908160001a90535060049490941c9361283381613617565b90506127c5565b5083156116c25760405162461bcd60e51b815260206004820181905260248201527f537472696e67733a20686578206c656e67746820696e73756666696369656e746044820152606401610898565b600081815260018301602052604081205480156129725760006128ad600183613495565b85549091506000906128c190600190613495565b90508181146129265760008660000182815481106128e1576128e161335f565b90600052602060002001549050808760000184815481106129045761290461335f565b6000918252602080832090910192909255918252600188019052604090208390555b85548690806129375761293761362e565b600190038181906000526020600020016000905590558560010160008681526020019081526020016000206000905560019350505050610764565b6000915050610764565b60006001600160e01b03198216637965db0b60e01b148061076457506301ffc9a760e01b6001600160e01b0319831614610764565b6001600160a01b038316612a0c57612a0781600a80546000838152600b60205260408120829055600182018355919091527fc65a7bb8d6351c1cf70c95a316cc6a92839c986682d98bc35f958f4883f9d2a80155565b612a2f565b816001600160a01b0316836001600160a01b031614612a2f57612a2f8382612a69565b6001600160a01b038216612a465761093981612b06565b826001600160a01b0316826001600160a01b031614610939576109398282612bb5565b60006001612a7684611580565b612a809190613495565b600083815260096020526040902054909150808214612ad3576001600160a01b03841660009081526008602090815260408083208584528252808320548484528184208190558352600990915290208190555b5060009182526009602090815260408084208490556001600160a01b039094168352600881528383209183525290812055565b600a54600090612b1890600190613495565b6000838152600b6020526040812054600a8054939450909284908110612b4057612b4061335f565b9060005260206000200154905080600a8381548110612b6157612b6161335f565b6000918252602080832090910192909255828152600b9091526040808220849055858252812055600a805480612b9957612b9961362e565b6001900381819060005260206000200160009055905550505050565b6000612bc083611580565b6001600160a01b039093166000908152600860209081526040808320868452825280832085905593825260099052919091209190915550565b604051806101000160405280600060ff168152602001600060ff16815260200160608152602001606081526020016060815260200160608152602001606081526020016000151581525090565b828054612c5290613251565b90600052602060002090601f016020900481019282612c745760008555612cba565b82601f10612c8d57805160ff1916838001178555612cba565b82800160010185558215612cba579182015b82811115612cba578251825591602001919060010190612c9f565b50612cc6929150612cca565b5090565b5b80821115612cc65760008155600101612ccb565b6001600160e01b03198116811461110357600080fd5b600060208284031215612d0757600080fd5b81356116c281612cdf565b60005b83811015612d2d578181015183820152602001612d15565b83811115610a4f5750506000910152565b60008151808452612d56816020860160208601612d12565b601f01601f19169290920160200192915050565b6020815260006116c26020830184612d3e565b600060208284031215612d8f57600080fd5b5035919050565b80356001600160a01b0381168114612dad57600080fd5b919050565b60008060408385031215612dc557600080fd5b612dce83612d96565b946020939093013593505050565b60008060408385031215612def57600080fd5b50508035926020909101359150565b600080600060608486031215612e1357600080fd5b612e1c84612d96565b9250612e2a60208501612d96565b9150604084013590509250925092565b60008060408385031215612e4d57600080fd5b82359150612e5d60208401612d96565b90509250929050565b805160ff16825260006101006020830151612e86602086018260ff169052565b506040830151816040860152612e9e82860182612d3e565b91505060608301518482036060860152612eb88282612d3e565b91505060808301518482036080860152612ed28282612d3e565b91505060a083015184820360a0860152612eec8282612d3e565b91505060c083015184820360c0860152612f068282612d3e565b91505060e0830151612f1c60e086018215159052565b509392505050565b6020815260006116c26020830184612e66565b634e487b7160e01b600052604160045260246000fd5b600067ffffffffffffffff80841115612f6857612f68612f37565b604051601f8501601f19908116603f01168101908282118183101715612f9057612f90612f37565b81604052809350858152868686011115612fa957600080fd5b858560208301376000602087830101525050509392505050565b600082601f830112612fd457600080fd5b6116c283833560208501612f4d565b600060208284031215612ff557600080fd5b813567ffffffffffffffff81111561300c57600080fd5b610a8c84828501612fc3565b60008060008060008060c0878903121561303157600080fd5b86359550602087013567ffffffffffffffff8082111561305057600080fd5b61305c8a838b01612fc3565b9650604089013591508082111561307257600080fd5b61307e8a838b01612fc3565b9550606089013591508082111561309457600080fd5b6130a08a838b01612fc3565b945060808901359150808211156130b657600080fd5b6130c28a838b01612fc3565b935060a08901359150808211156130d857600080fd5b506130e589828a01612fc3565b9150509295509295509295565b60006020828403121561310457600080fd5b6116c282612d96565b6000806040838503121561312057600080fd5b61312983612d96565b91506020830135801515811461313e57600080fd5b809150509250929050565b6000602080830181845280855180835260408601915060408160051b870101925083870160005b8281101561319e57603f1988860301845261318c858351612e66565b94509285019290850190600101613170565b5092979650505050505050565b600080600080608085870312156131c157600080fd5b6131ca85612d96565b93506131d860208601612d96565b925060408501359150606085013567ffffffffffffffff8111156131fb57600080fd5b8501601f8101871361320c57600080fd5b61321b87823560208401612f4d565b91505092959194509250565b6000806040838503121561323a57600080fd5b61324383612d96565b9150612e5d60208401612d96565b600181811c9082168061326557607f821691505b6020821081141561185b57634e487b7160e01b600052602260045260246000fd5b634e487b7160e01b600052601160045260246000fd5b60008160001904831182151516156132b6576132b6613286565b500290565b600082198211156132ce576132ce613286565b500190565b6020808252602e908201527f4552433732313a2063616c6c6572206973206e6f7420746f6b656e206f776e6560408201526d1c881b9bdc88185c1c1c9bdd995960921b606082015260800190565b634e487b7160e01b600052601260045260246000fd5b60008261334657613346613321565b500490565b60008261335a5761335a613321565b500690565b634e487b7160e01b600052603260045260246000fd5b8054600090600181811c908083168061338f57607f831692505b60208084108214156133b157634e487b7160e01b600052602260045260246000fd5b838852602088018280156133cc57600181146133dd57613408565b60ff19871682528282019750613408565b60008981526020902060005b87811015613402578154848201529086019084016133e9565b83019850505b5050505050505092915050565b6020815260a06020820152600061342f60c0830184613375565b601f19808483030160408501526134498260018701613375565b9150808483030160608501526134628260028701613375565b91508084830301608085015261347b8260038701613375565b9150808483030160a085015250610a8c8160048601613375565b6000828210156134a7576134a7613286565b500390565b60006000198214156134c0576134c0613286565b5060010190565b600083516134d9818460208801612d12565b8351908301906134ed818360208801612d12565b01949350505050565b60208082526032908201527f4552433732313a207472616e7366657220746f206e6f6e20455243373231526560408201527131b2b4bb32b91034b6b83632b6b2b73a32b960711b606082015260800190565b7f416363657373436f6e74726f6c3a206163636f756e7420000000000000000000815260008351613580816017850160208801612d12565b7001034b99036b4b9b9b4b733903937b6329607d1b60179184019182015283516135b1816028840160208801612d12565b01602801949350505050565b6001600160a01b03858116825284166020820152604081018390526080606082018190526000906135f090830184612d3e565b9695505050505050565b60006020828403121561360c57600080fd5b81516116c281612cdf565b60008161362657613626613286565b506000190190565b634e487b7160e01b600052603160045260246000fdfea2646970667358221220578815dcad53d914a95a4b2bed4ff1634bbccc7f8d5b77750d2e81b4cc04fd2764736f6c6343000809003368747470733a2f2f616e6e6976657273652e7368776c642e6170702f6170692f746f6b656e732f",
  "linkReferences": {},
  "deployedLinkReferences": {}
}