{
  "_format": "hh-sol-artifact-1",
  "contractName": "AnniversaryToken",
  "sourceName": "contracts/AnniversaryToken.sol",
  "abi": [
    {
      "inputs": [],
      "stateMutability": "nonpayable",
      "type": "constructor"
    },
    {
      "anonymous": false,
      "inputs": [
        {
          "indexed": true,
          "internalType": "uint256",
          "name": "_tokenId",
          "type": "uint256"
        },
        {
          "components": [
            {
              "internalType": "string",
              "name": "name",
              "type": "string"
            },
            {
              "internalType": "string",
              "name": "description",
              "type": "string"
            },
            {
              "internalType": "string",
              "name": "author",
              "type": "string"
            },
            {
              "internalType": "string",
              "name": "authorUrl",
              "type": "string"
            }
          ],
          "indexed": false,
          "internalType": "struct Anniversable._Anniversary",
          "name": "_value",
          "type": "tuple"
        }
      ],
      "name": "AnniversaryUpdated",
      "type": "event"
    },
    {
      "anonymous": false,
      "inputs": [
        {
          "indexed": true,
          "internalType": "address",
          "name": "owner",
          "type": "address"
        },
        {
          "indexed": true,
          "internalType": "address",
          "name": "approved",
          "type": "address"
        },
        {
          "indexed": true,
          "internalType": "uint256",
          "name": "tokenId",
          "type": "uint256"
        }
      ],
      "name": "Approval",
      "type": "event"
    },
    {
      "anonymous": false,
      "inputs": [
        {
          "indexed": true,
          "internalType": "address",
          "name": "owner",
          "type": "address"
        },
        {
          "indexed": true,
          "internalType": "address",
          "name": "operator",
          "type": "address"
        },
        {
          "indexed": false,
          "internalType": "bool",
          "name": "approved",
          "type": "bool"
        }
      ],
      "name": "ApprovalForAll",
      "type": "event"
    },
    {
      "anonymous": false,
      "inputs": [
        {
          "indexed": false,
          "internalType": "address",
          "name": "account",
          "type": "address"
        }
      ],
      "name": "Paused",
      "type": "event"
    },
    {
      "anonymous": false,
      "inputs": [
        {
          "indexed": true,
          "internalType": "bytes32",
          "name": "role",
          "type": "bytes32"
        },
        {
          "indexed": true,
          "internalType": "bytes32",
          "name": "previousAdminRole",
          "type": "bytes32"
        },
        {
          "indexed": true,
          "internalType": "bytes32",
          "name": "newAdminRole",
          "type": "bytes32"
        }
      ],
      "name": "RoleAdminChanged",
      "type": "event"
    },
    {
      "anonymous": false,
      "inputs": [
        {
          "indexed": true,
          "internalType": "bytes32",
          "name": "role",
          "type": "bytes32"
        },
        {
          "indexed": true,
          "internalType": "address",
          "name": "account",
          "type": "address"
        },
        {
          "indexed": true,
          "internalType": "address",
          "name": "sender",
          "type": "address"
        }
      ],
      "name": "RoleGranted",
      "type": "event"
    },
    {
      "anonymous": false,
      "inputs": [
        {
          "indexed": true,
          "internalType": "bytes32",
          "name": "role",
          "type": "bytes32"
        },
        {
          "indexed": true,
          "internalType": "address",
          "name": "account",
          "type": "address"
        },
        {
          "indexed": true,
          "internalType": "address",
          "name": "sender",
          "type": "address"
        }
      ],
      "name": "RoleRevoked",
      "type": "event"
    },
    {
      "anonymous": false,
      "inputs": [
        {
          "indexed": true,
          "internalType": "address",
          "name": "from",
          "type": "address"
        },
        {
          "indexed": true,
          "internalType": "address",
          "name": "to",
          "type": "address"
        },
        {
          "indexed": true,
          "internalType": "uint256",
          "name": "tokenId",
          "type": "uint256"
        }
      ],
      "name": "Transfer",
      "type": "event"
    },
    {
      "anonymous": false,
      "inputs": [
        {
          "indexed": false,
          "internalType": "address",
          "name": "account",
          "type": "address"
        }
      ],
      "name": "Unpaused",
      "type": "event"
    },
    {
      "inputs": [],
      "name": "DEFAULT_ADMIN_ROLE",
      "outputs": [
        {
          "internalType": "bytes32",
          "name": "",
          "type": "bytes32"
        }
      ],
      "stateMutability": "view",
      "type": "function"
    },
    {
      "inputs": [],
      "name": "PAUSER_ROLE",
      "outputs": [
        {
          "internalType": "bytes32",
          "name": "",
          "type": "bytes32"
        }
      ],
      "stateMutability": "view",
      "type": "function"
    },
    {
      "inputs": [],
      "name": "anniversaries365",
      "outputs": [
        {
          "components": [
            {
              "internalType": "uint8",
              "name": "month",
              "type": "uint8"
            },
            {
              "internalType": "uint8",
              "name": "day",
              "type": "uint8"
            },
            {
              "internalType": "string",
              "name": "name",
              "type": "string"
            },
            {
              "internalType": "string",
              "name": "description",
              "type": "string"
            },
            {
              "internalType": "string",
              "name": "author",
              "type": "string"
            },
            {
              "internalType": "string",
              "name": "authorUrl",
              "type": "string"
            },
            {
              "internalType": "bool",
              "name": "isEmpty",
              "type": "bool"
            }
          ],
          "internalType": "struct Anniversable.Anniversary[]",
          "name": "",
          "type": "tuple[]"
        }
      ],
      "stateMutability": "view",
      "type": "function"
    },
    {
      "inputs": [
        {
          "internalType": "uint256",
          "name": "tokenId",
          "type": "uint256"
        }
      ],
      "name": "anniversary",
      "outputs": [
        {
          "components": [
            {
              "internalType": "uint8",
              "name": "month",
              "type": "uint8"
            },
            {
              "internalType": "uint8",
              "name": "day",
              "type": "uint8"
            },
            {
              "internalType": "string",
              "name": "name",
              "type": "string"
            },
            {
              "internalType": "string",
              "name": "description",
              "type": "string"
            },
            {
              "internalType": "string",
              "name": "author",
              "type": "string"
            },
            {
              "internalType": "string",
              "name": "authorUrl",
              "type": "string"
            },
            {
              "internalType": "bool",
              "name": "isEmpty",
              "type": "bool"
            }
          ],
          "internalType": "struct Anniversable.Anniversary",
          "name": "",
          "type": "tuple"
        }
      ],
      "stateMutability": "view",
      "type": "function"
    },
    {
      "inputs": [
        {
          "internalType": "address",
          "name": "to",
          "type": "address"
        },
        {
          "internalType": "uint256",
          "name": "tokenId",
          "type": "uint256"
        }
      ],
      "name": "approve",
      "outputs": [],
      "stateMutability": "nonpayable",
      "type": "function"
    },
    {
      "inputs": [
        {
          "internalType": "address",
          "name": "owner",
          "type": "address"
        }
      ],
      "name": "balanceOf",
      "outputs": [
        {
          "internalType": "uint256",
          "name": "",
          "type": "uint256"
        }
      ],
      "stateMutability": "view",
      "type": "function"
    },
    {
      "inputs": [
        {
          "internalType": "uint256",
          "name": "tokenId",
          "type": "uint256"
        }
      ],
      "name": "burn",
      "outputs": [],
      "stateMutability": "nonpayable",
      "type": "function"
    },
    {
      "inputs": [
        {
          "internalType": "uint256",
          "name": "tokenId",
          "type": "uint256"
        }
      ],
      "name": "getApproved",
      "outputs": [
        {
          "internalType": "address",
          "name": "",
          "type": "address"
        }
      ],
      "stateMutability": "view",
      "type": "function"
    },
    {
      "inputs": [],
      "name": "getCount",
      "outputs": [
        {
          "internalType": "uint256",
          "name": "",
          "type": "uint256"
        }
      ],
      "stateMutability": "view",
      "type": "function"
    },
    {
      "inputs": [],
      "name": "getPrice",
      "outputs": [
        {
          "internalType": "uint256",
          "name": "",
          "type": "uint256"
        }
      ],
      "stateMutability": "view",
      "type": "function"
    },
    {
      "inputs": [
        {
          "internalType": "bytes32",
          "name": "role",
          "type": "bytes32"
        }
      ],
      "name": "getRoleAdmin",
      "outputs": [
        {
          "internalType": "bytes32",
          "name": "",
          "type": "bytes32"
        }
      ],
      "stateMutability": "view",
      "type": "function"
    },
    {
      "inputs": [
        {
          "internalType": "bytes32",
          "name": "role",
          "type": "bytes32"
        },
        {
          "internalType": "uint256",
          "name": "index",
          "type": "uint256"
        }
      ],
      "name": "getRoleMember",
      "outputs": [
        {
          "internalType": "address",
          "name": "",
          "type": "address"
        }
      ],
      "stateMutability": "view",
      "type": "function"
    },
    {
      "inputs": [
        {
          "internalType": "bytes32",
          "name": "role",
          "type": "bytes32"
        }
      ],
      "name": "getRoleMemberCount",
      "outputs": [
        {
          "internalType": "uint256",
          "name": "",
          "type": "uint256"
        }
      ],
      "stateMutability": "view",
      "type": "function"
    },
    {
      "inputs": [
        {
          "internalType": "bytes32",
          "name": "role",
          "type": "bytes32"
        },
        {
          "internalType": "address",
          "name": "account",
          "type": "address"
        }
      ],
      "name": "grantRole",
      "outputs": [],
      "stateMutability": "nonpayable",
      "type": "function"
    },
    {
      "inputs": [
        {
          "internalType": "uint256",
          "name": "month",
          "type": "uint256"
        },
        {
          "internalType": "uint256",
          "name": "day",
          "type": "uint256"
        }
      ],
      "name": "hasMinted",
      "outputs": [
        {
          "internalType": "bool",
          "name": "",
          "type": "bool"
        }
      ],
      "stateMutability": "view",
      "type": "function"
    },
    {
      "inputs": [
        {
          "internalType": "bytes32",
          "name": "role",
          "type": "bytes32"
        },
        {
          "internalType": "address",
          "name": "account",
          "type": "address"
        }
      ],
      "name": "hasRole",
      "outputs": [
        {
          "internalType": "bool",
          "name": "",
          "type": "bool"
        }
      ],
      "stateMutability": "view",
      "type": "function"
    },
    {
      "inputs": [
        {
          "internalType": "address",
          "name": "owner",
          "type": "address"
        },
        {
          "internalType": "address",
          "name": "operator",
          "type": "address"
        }
      ],
      "name": "isApprovedForAll",
      "outputs": [
        {
          "internalType": "bool",
          "name": "",
          "type": "bool"
        }
      ],
      "stateMutability": "view",
      "type": "function"
    },
    {
      "inputs": [
        {
          "internalType": "address",
          "name": "_address",
          "type": "address"
        }
      ],
      "name": "isContractOwner",
      "outputs": [
        {
          "internalType": "bool",
          "name": "",
          "type": "bool"
        }
      ],
      "stateMutability": "view",
      "type": "function"
    },
    {
      "inputs": [
        {
          "internalType": "uint256",
          "name": "month",
          "type": "uint256"
        },
        {
          "internalType": "uint256",
          "name": "day",
          "type": "uint256"
        }
      ],
      "name": "isMinter",
      "outputs": [
        {
          "internalType": "bool",
          "name": "",
          "type": "bool"
        }
      ],
      "stateMutability": "view",
      "type": "function"
    },
    {
      "inputs": [
        {
          "internalType": "uint256",
          "name": "month",
          "type": "uint256"
        },
        {
          "internalType": "uint256",
          "name": "day",
          "type": "uint256"
        }
      ],
      "name": "mint",
      "outputs": [],
      "stateMutability": "payable",
      "type": "function"
    },
    {
      "inputs": [],
      "name": "name",
      "outputs": [
        {
          "internalType": "string",
          "name": "",
          "type": "string"
        }
      ],
      "stateMutability": "view",
      "type": "function"
    },
    {
      "inputs": [
        {
          "internalType": "uint256",
          "name": "tokenId",
          "type": "uint256"
        }
      ],
      "name": "ownerOf",
      "outputs": [
        {
          "internalType": "address",
          "name": "",
          "type": "address"
        }
      ],
      "stateMutability": "view",
      "type": "function"
    },
    {
      "inputs": [],
      "name": "pause",
      "outputs": [],
      "stateMutability": "nonpayable",
      "type": "function"
    },
    {
      "inputs": [],
      "name": "paused",
      "outputs": [
        {
          "internalType": "bool",
          "name": "",
          "type": "bool"
        }
      ],
      "stateMutability": "view",
      "type": "function"
    },
    {
      "inputs": [
        {
          "internalType": "bytes32",
          "name": "role",
          "type": "bytes32"
        },
        {
          "internalType": "address",
          "name": "account",
          "type": "address"
        }
      ],
      "name": "renounceRole",
      "outputs": [],
      "stateMutability": "nonpayable",
      "type": "function"
    },
    {
      "inputs": [
        {
          "internalType": "bytes32",
          "name": "role",
          "type": "bytes32"
        },
        {
          "internalType": "address",
          "name": "account",
          "type": "address"
        }
      ],
      "name": "revokeRole",
      "outputs": [],
      "stateMutability": "nonpayable",
      "type": "function"
    },
    {
      "inputs": [
        {
          "internalType": "address",
          "name": "from",
          "type": "address"
        },
        {
          "internalType": "address",
          "name": "to",
          "type": "address"
        },
        {
          "internalType": "uint256",
          "name": "tokenId",
          "type": "uint256"
        }
      ],
      "name": "safeTransferFrom",
      "outputs": [],
      "stateMutability": "nonpayable",
      "type": "function"
    },
    {
      "inputs": [
        {
          "internalType": "address",
          "name": "from",
          "type": "address"
        },
        {
          "internalType": "address",
          "name": "to",
          "type": "address"
        },
        {
          "internalType": "uint256",
          "name": "tokenId",
          "type": "uint256"
        },
        {
          "internalType": "bytes",
          "name": "data",
          "type": "bytes"
        }
      ],
      "name": "safeTransferFrom",
      "outputs": [],
      "stateMutability": "nonpayable",
      "type": "function"
    },
    {
      "inputs": [
        {
          "internalType": "uint256",
          "name": "tokenId",
          "type": "uint256"
        },
        {
          "internalType": "string",
          "name": "_name",
          "type": "string"
        },
        {
          "internalType": "string",
          "name": "_description",
          "type": "string"
        },
        {
          "internalType": "string",
          "name": "_author",
          "type": "string"
        },
        {
          "internalType": "string",
          "name": "_authorUrl",
          "type": "string"
        }
      ],
      "name": "setAnniversary",
      "outputs": [],
      "stateMutability": "nonpayable",
      "type": "function"
    },
    {
      "inputs": [
        {
          "internalType": "address",
          "name": "operator",
          "type": "address"
        },
        {
          "internalType": "bool",
          "name": "approved",
          "type": "bool"
        }
      ],
      "name": "setApprovalForAll",
      "outputs": [],
      "stateMutability": "nonpayable",
      "type": "function"
    },
    {
      "inputs": [
        {
          "internalType": "string",
          "name": "newURI",
          "type": "string"
        }
      ],
      "name": "setBaseURI",
      "outputs": [],
      "stateMutability": "nonpayable",
      "type": "function"
    },
    {
      "inputs": [
        {
          "internalType": "bytes4",
          "name": "interfaceId",
          "type": "bytes4"
        }
      ],
      "name": "supportsInterface",
      "outputs": [
        {
          "internalType": "bool",
          "name": "",
          "type": "bool"
        }
      ],
      "stateMutability": "view",
      "type": "function"
    },
    {
      "inputs": [],
      "name": "symbol",
      "outputs": [
        {
          "internalType": "string",
          "name": "",
          "type": "string"
        }
      ],
      "stateMutability": "view",
      "type": "function"
    },
    {
      "inputs": [
        {
          "internalType": "uint256",
          "name": "index",
          "type": "uint256"
        }
      ],
      "name": "tokenByIndex",
      "outputs": [
        {
          "internalType": "uint256",
          "name": "",
          "type": "uint256"
        }
      ],
      "stateMutability": "view",
      "type": "function"
    },
    {
      "inputs": [
        {
          "internalType": "address",
          "name": "owner",
          "type": "address"
        },
        {
          "internalType": "uint256",
          "name": "index",
          "type": "uint256"
        }
      ],
      "name": "tokenOfOwnerByIndex",
      "outputs": [
        {
          "internalType": "uint256",
          "name": "",
          "type": "uint256"
        }
      ],
      "stateMutability": "view",
      "type": "function"
    },
    {
      "inputs": [
        {
          "internalType": "uint256",
          "name": "tokenId",
          "type": "uint256"
        }
      ],
      "name": "tokenURI",
      "outputs": [
        {
          "internalType": "string",
          "name": "",
          "type": "string"
        }
      ],
      "stateMutability": "view",
      "type": "function"
    },
    {
      "inputs": [],
      "name": "totalSupply",
      "outputs": [
        {
          "internalType": "uint256",
          "name": "",
          "type": "uint256"
        }
      ],
      "stateMutability": "view",
      "type": "function"
    },
    {
      "inputs": [
        {
          "internalType": "address",
          "name": "from",
          "type": "address"
        },
        {
          "internalType": "address",
          "name": "to",
          "type": "address"
        },
        {
          "internalType": "uint256",
          "name": "tokenId",
          "type": "uint256"
        }
      ],
      "name": "transferFrom",
      "outputs": [],
      "stateMutability": "nonpayable",
      "type": "function"
    },
    {
      "inputs": [],
      "name": "unpause",
      "outputs": [],
      "stateMutability": "nonpayable",
      "type": "function"
    }
  ],
  "bytecode": "0x60e06040526027608081815290620038a260a0398051620000299160109160209091019062000269565b503480156200003757600080fd5b50604080518082018252600b81526a416e6e697665727361727960a81b602080830191825283518085019094526009845268414e4e49564552534560b81b9084015281519192916200008c9160029162000269565b508051620000a290600390602084019062000269565b5050600c805460ff1916905550600f80546001600160a01b03191633908117909155620000d29060009062000104565b620000fe7f65d7a28e3265b37a6474929f336521b332c1681b933f6cb9f3376673440d862a3362000104565b6200034c565b62000110828262000114565b5050565b6200012b82826200015760201b620018cc1760201c565b60008281526001602090815260409091206200015291839062001950620001f7821b17901c565b505050565b6000828152602081815260408083206001600160a01b038516845290915290205460ff1662000110576000828152602081815260408083206001600160a01b03851684529091529020805460ff19166001179055620001b33390565b6001600160a01b0316816001600160a01b0316837f2f8788117e7eff1d82e926ec794901d17c78024a50270940304540a733656f0d60405160405180910390a45050565b60006200020e836001600160a01b03841662000217565b90505b92915050565b6000818152600183016020526040812054620002605750815460018181018455600084815260208082209093018490558454848252828601909352604090209190915562000211565b50600062000211565b82805462000277906200030f565b90600052602060002090601f0160209004810192826200029b5760008555620002e6565b82601f10620002b657805160ff1916838001178555620002e6565b82800160010185558215620002e6579182015b82811115620002e6578251825591602001919060010190620002c9565b50620002f4929150620002f8565b5090565b5b80821115620002f45760008155600101620002f9565b600181811c908216806200032457607f821691505b602082108114156200034657634e487b7160e01b600052602260045260246000fd5b50919050565b613546806200035c6000396000f3fe6080604052600436106102305760003560e01c80636352211e1161012e578063a87d942c116100ab578063d547741f1161006f578063d547741f1461066d578063d65b7b121461068d578063de117688146106ad578063e63ab1e9146106dc578063e985e9c51461071057600080fd5b8063a87d942c146105d6578063b1cf0559146105eb578063b88d4fde1461060d578063c87b56dd1461062d578063ca15c8731461064d57600080fd5b80639302fae9116100f25780639302fae91461055757806395d89b411461057757806398d5fdca1461058c578063a217fddf146105a1578063a22cb465146105b657600080fd5b80636352211e146104c257806370a08231146104e25780638456cb59146105025780639010d07c1461051757806391d148541461053757600080fd5b80632f2ff15d116101bc57806342842e0e1161018057806342842e0e1461042a57806342966c681461044a5780634f6ccce71461046a57806355f804b31461048a5780635c975abb146104aa57600080fd5b80632f2ff15d146103885780632f745c59146103a857806336568abe146103c85780633f4ba83a146103e85780634001935f146103fd57600080fd5b806318160ddd1161020357806318160ddd146102e65780631b2ef1ca146103055780631fdc4fd71461031857806323b872dd14610338578063248a9ca31461035857600080fd5b806301ffc9a71461023557806306fdde031461026a578063081812fc1461028c578063095ea7b3146102c4575b600080fd5b34801561024157600080fd5b50610255610250366004612c26565b610759565b60405190151581526020015b60405180910390f35b34801561027657600080fd5b5061027f61076a565b6040516102619190612c9b565b34801561029857600080fd5b506102ac6102a7366004612cae565b6107fc565b6040516001600160a01b039091168152602001610261565b3480156102d057600080fd5b506102e46102df366004612ce3565b610823565b005b3480156102f257600080fd5b50600a545b604051908152602001610261565b6102e4610313366004612d0d565b61093e565b34801561032457600080fd5b50610255610333366004612d0d565b610a55565b34801561034457600080fd5b506102e4610353366004612d2f565b610a94565b34801561036457600080fd5b506102f7610373366004612cae565b60009081526020819052604090206001015490565b34801561039457600080fd5b506102e46103a3366004612d6b565b610ac6565b3480156103b457600080fd5b506102f76103c3366004612ce3565b610aeb565b3480156103d457600080fd5b506102e46103e3366004612d6b565b610b81565b3480156103f457600080fd5b506102e4610bff565b34801561040957600080fd5b5061041d610418366004612cae565b610ca7565b6040516102619190612e2c565b34801561043657600080fd5b506102e4610445366004612d2f565b611017565b34801561045657600080fd5b506102e4610465366004612cae565b611032565b34801561047657600080fd5b506102f7610485366004612cae565b611063565b34801561049657600080fd5b506102e46104a5366004612eeb565b6110f6565b3480156104b657600080fd5b50600c5460ff16610255565b3480156104ce57600080fd5b506102ac6104dd366004612cae565b611156565b3480156104ee57600080fd5b506102f76104fd366004612f20565b6111b6565b34801561050e57600080fd5b506102e461123c565b34801561052357600080fd5b506102ac610532366004612d0d565b6112e0565b34801561054357600080fd5b50610255610552366004612d6b565b6112ff565b34801561056357600080fd5b506102e4610572366004612f3b565b611328565b34801561058357600080fd5b5061027f61162b565b34801561059857600080fd5b506102f761163a565b3480156105ad57600080fd5b506102f7600081565b3480156105c257600080fd5b506102e46105d1366004612ff2565b611690565b3480156105e257600080fd5b506102f761169b565b3480156105f757600080fd5b506106006116ab565b604051610261919061302e565b34801561061957600080fd5b506102e4610628366004613090565b61179a565b34801561063957600080fd5b5061027f610648366004612cae565b6117cc565b34801561065957600080fd5b506102f7610668366004612cae565b611832565b34801561067957600080fd5b506102e4610688366004612d6b565b611849565b34801561069957600080fd5b506102556106a8366004612d0d565b61186e565b3480156106b957600080fd5b506102556106c8366004612f20565b600f546001600160a01b0390811691161490565b3480156106e857600080fd5b506102f77f65d7a28e3265b37a6474929f336521b332c1681b933f6cb9f3376673440d862a81565b34801561071c57600080fd5b5061025561072b36600461310c565b6001600160a01b03918216600090815260076020908152604080832093909416825291909152205460ff1690565b600061076482611965565b92915050565b60606002805461077990613136565b80601f01602080910402602001604051908101604052809291908181526020018280546107a590613136565b80156107f25780601f106107c7576101008083540402835291602001916107f2565b820191906000526020600020905b8154815290600101906020018083116107d557829003601f168201915b5050505050905090565b60006108078261198a565b506000908152600660205260409020546001600160a01b031690565b600061082e82611156565b9050806001600160a01b0316836001600160a01b031614156108a15760405162461bcd60e51b815260206004820152602160248201527f4552433732313a20617070726f76616c20746f2063757272656e74206f776e656044820152603960f91b60648201526084015b60405180910390fd5b336001600160a01b03821614806108bd57506108bd813361072b565b61092f5760405162461bcd60e51b815260206004820152603e60248201527f4552433732313a20617070726f76652063616c6c6572206973206e6f7420746f60448201527f6b656e206f776e6572206e6f7220617070726f76656420666f7220616c6c00006064820152608401610898565b61093983836119e9565b505050565b600061094861163a565b90508034146109845760405162461bcd60e51b81526020600482015260086024820152676d7573742070617960c01b6044820152606401610898565b6000831180156109955750600c8311155b6109d45760405162461bcd60e51b815260206004820152601060248201526f1b5bdb9d1a081a5cc81a5b9d985b1a5960821b6044820152606401610898565b6000821180156109e55750601f8211155b610a225760405162461bcd60e51b815260206004820152600e60248201526d19185e481a5cc81a5b9d985b1a5960921b6044820152606401610898565b610a2b81611a57565b600082610a39856064613181565b610a4391906131a0565b9050610a4f3382611aa2565b50505050565b60008082610a64856064613181565b610a6e91906131a0565b6000818152600460205260409020549091506001600160a01b031615155b949350505050565b610a9f335b82611bf0565b610abb5760405162461bcd60e51b8152600401610898906131b8565b610939838383611c5c565b600082815260208190526040902060010154610ae181611e03565b6109398383611e0d565b6000610af6836111b6565b8210610b585760405162461bcd60e51b815260206004820152602b60248201527f455243373231456e756d657261626c653a206f776e657220696e646578206f7560448201526a74206f6620626f756e647360a81b6064820152608401610898565b506001600160a01b03919091166000908152600860209081526040808320938352929052205490565b6001600160a01b0381163314610bf15760405162461bcd60e51b815260206004820152602f60248201527f416363657373436f6e74726f6c3a2063616e206f6e6c792072656e6f756e636560448201526e103937b632b9903337b91039b2b63360891b6064820152608401610898565b610bfb8282611e2f565b5050565b610c297f65d7a28e3265b37a6474929f336521b332c1681b933f6cb9f3376673440d862a336112ff565b610c9d576040805162461bcd60e51b81526020600482015260248101919091527f4552433732315072657365744d696e7465725061757365724175746f49643a2060448201527f6d75737420686176652070617573657220726f6c6520746f20756e70617573656064820152608401610898565b610ca5611e51565b565b610caf612b32565b6000610cbc60648461321c565b90506000610ccb606485613230565b9050610cd684611ea3565b15610f96576040518060e001604052808360ff1681526020018260ff168152602001600d60008781526020019081526020016000206000018054610d1990613136565b80601f0160208091040260200160405190810160405280929190818152602001828054610d4590613136565b8015610d925780601f10610d6757610100808354040283529160200191610d92565b820191906000526020600020905b815481529060010190602001808311610d7557829003601f168201915b50505050508152602001600d60008781526020019081526020016000206001018054610dbd90613136565b80601f0160208091040260200160405190810160405280929190818152602001828054610de990613136565b8015610e365780601f10610e0b57610100808354040283529160200191610e36565b820191906000526020600020905b815481529060010190602001808311610e1957829003601f168201915b50505050508152602001600d60008781526020019081526020016000206002018054610e6190613136565b80601f0160208091040260200160405190810160405280929190818152602001828054610e8d90613136565b8015610eda5780601f10610eaf57610100808354040283529160200191610eda565b820191906000526020600020905b815481529060010190602001808311610ebd57829003601f168201915b50505050508152602001600d60008781526020019081526020016000206003018054610f0590613136565b80601f0160208091040260200160405190810160405280929190818152602001828054610f3190613136565b8015610f7e5780601f10610f5357610100808354040283529160200191610f7e565b820191906000526020600020905b815481529060010190602001808311610f6157829003601f168201915b50505091835250506000602090910152949350505050565b6040518060e001604052808360ff1681526020018260ff1681526020016040518060200160405280600081525081526020016040518060200160405280600081525081526020016040518060200160405280600081525081526020016040518060200160405280600081525081526020016001151581525092505050919050565b6109398383836040518060200160405280600081525061179a565b61103b33610a99565b6110575760405162461bcd60e51b8152600401610898906131b8565b61106081611f48565b50565b600061106e600a5490565b82106110d15760405162461bcd60e51b815260206004820152602c60248201527f455243373231456e756d657261626c653a20676c6f62616c20696e646578206f60448201526b7574206f6620626f756e647360a01b6064820152608401610898565b600a82815481106110e4576110e4613244565b90600052602060002001549050919050565b6111016000336112ff565b6111435760405162461bcd60e51b815260206004820152601360248201527221b0b63632b91034b9903737ba1030b236b4b760691b6044820152606401610898565b8051610bfb906010906020840190612b77565b6000818152600460205260408120546001600160a01b0316806107645760405162461bcd60e51b8152602060048201526018602482015277115490cdcc8c4e881a5b9d985b1a59081d1bdad95b88125160421b6044820152606401610898565b60006001600160a01b0382166112205760405162461bcd60e51b815260206004820152602960248201527f4552433732313a2061646472657373207a65726f206973206e6f7420612076616044820152683634b21037bbb732b960b91b6064820152608401610898565b506001600160a01b031660009081526005602052604090205490565b6112667f65d7a28e3265b37a6474929f336521b332c1681b933f6cb9f3376673440d862a336112ff565b6112d85760405162461bcd60e51b815260206004820152603e60248201527f4552433732315072657365744d696e7465725061757365724175746f49643a2060448201527f6d75737420686176652070617573657220726f6c6520746f20706175736500006064820152608401610898565b610ca5611fef565b60008281526001602052604081206112f8908361202c565b9392505050565b6000918252602082815260408084206001600160a01b0393909316845291905290205460ff1690565b6113318561198a565b600061133c86611156565b90506001600160a01b03811633146113965760405162461bcd60e51b815260206004820152601b60248201527f6d7573742068617665206f776e657220726f6c6520746f2073657400000000006044820152606401610898565b845185906113d95760405162461bcd60e51b815260206004820152601060248201526f1b985b59481a5cc81c995c5d5a5c995960821b6044820152606401610898565b60808151111561142b5760405162461bcd60e51b815260206004820152601c60248201527f6e616d65206973206c696d6974656420746f20313238206279746573000000006044820152606401610898565b84518590610200101561148c5760405162461bcd60e51b815260206004820152602360248201527f6465736372697074696f6e206973206c696d6974656420746f2035313220627960448201526274657360e81b6064820152608401610898565b84518590608010156114e05760405162461bcd60e51b815260206004820152601e60248201527f617574686f72206973206c696d6974656420746f2031323820627974657300006044820152606401610898565b84518590610200101561153f5760405162461bcd60e51b815260206004820152602160248201527f617574686f7255726c206973206c696d6974656420746f2035313220627974656044820152607360f81b6064820152608401610898565b604080516080810182528a815260208082018b90528183018a90526060820189905260008d8152600d82529290922081518051929391926115839284920190612b77565b50602082810151805161159c9260018501920190612b77565b50604082015180516115b8916002840191602090910190612b77565b50606082015180516115d4916003840191602090910190612b77565b50505060008a8152600d60205260409081902090518b917f469c871f252afc0b943e5a58cc28eb9b9d731f96079d3e71309c78feb01eb1a59161161791906132fa565b60405180910390a250505050505050505050565b60606003805461077990613136565b600080611646600e5490565b9050600061010982106116625750670de0b6b3a7640000610764565b60a5821061167957506706f05b59d3b20000610764565b60648210610764575066b1a2bc2ec5000092915050565b610bfb338383612038565b60006116a6600e5490565b905090565b60408051610174808252612ea0820190925260609160009190816020015b6116d1612b32565b8152602001906001900390816116c957905050905060015b600c81116117945760015b601f811161178157600060018261170b8286613361565b61171690601f613181565b61172091906131a0565b61172a9190613361565b905060008261173a856064613181565b61174491906131a0565b905061174f81610ca7565b85838151811061176157611761613244565b60200260200101819052505050808061177990613378565b9150506116f4565b508061178c81613378565b9150506116e9565b50919050565b6117a43383611bf0565b6117c05760405162461bcd60e51b8152600401610898906131b8565b610a4f84848484612107565b60606117d78261198a565b60006117e161213a565b9050600081511161180157604051806020016040528060008152506112f8565b8061180b84612149565b60405160200161181c929190613393565b6040516020818303038152906040529392505050565b600081815260016020526040812061076490612247565b60008281526020819052604090206001015461186481611e03565b6109398383611e2f565b6000808261187d856064613181565b61188791906131a0565b6000818152600460205260409020549091506001600160a01b03166118b0576000915050610764565b336118ba82611156565b6001600160a01b031614949350505050565b6118d682826112ff565b610bfb576000828152602081815260408083206001600160a01b03851684529091529020805460ff1916600117905561190c3390565b6001600160a01b0316816001600160a01b0316837f2f8788117e7eff1d82e926ec794901d17c78024a50270940304540a733656f0d60405160405180910390a45050565b60006112f8836001600160a01b038416612251565b60006001600160e01b0319821663780e9d6360e01b14806107645750610764826122a0565b6000818152600460205260409020546001600160a01b03166110605760405162461bcd60e51b8152602060048201526018602482015277115490cdcc8c4e881a5b9d985b1a59081d1bdad95b88125160421b6044820152606401610898565b600081815260066020526040902080546001600160a01b0319166001600160a01b0384169081179091558190611a1e82611156565b6001600160a01b03167f8c5be1e5ebec7d5bd14f71427d1e84f3dd0314c0f7b2291e5b200ac8c7c3b92560405160405180910390a45050565b600f546040516001600160a01b0390911690819083156108fc029084906000818181858888f19350505050158015611a93573d6000803e3d6000fd5b50610bfb600e80546001019055565b6001600160a01b038216611af85760405162461bcd60e51b815260206004820181905260248201527f4552433732313a206d696e7420746f20746865207a65726f20616464726573736044820152606401610898565b6000818152600460205260409020546001600160a01b031615611b5d5760405162461bcd60e51b815260206004820152601c60248201527f4552433732313a20746f6b656e20616c7265616479206d696e746564000000006044820152606401610898565b611b69600083836122e0565b6001600160a01b0382166000908152600560205260408120805460019290611b929084906131a0565b909155505060008181526004602052604080822080546001600160a01b0319166001600160a01b03861690811790915590518392907fddf252ad1be2c89b69c2b068fc378daa952ba7f163c4a11628f55a4df523b3ef908290a45050565b600080611bfc83611156565b9050806001600160a01b0316846001600160a01b03161480611c4357506001600160a01b0380821660009081526007602090815260408083209388168352929052205460ff165b80610a8c5750836001600160a01b03166118ba846107fc565b826001600160a01b0316611c6f82611156565b6001600160a01b031614611cd35760405162461bcd60e51b815260206004820152602560248201527f4552433732313a207472616e736665722066726f6d20696e636f72726563742060448201526437bbb732b960d91b6064820152608401610898565b6001600160a01b038216611d355760405162461bcd60e51b8152602060048201526024808201527f4552433732313a207472616e7366657220746f20746865207a65726f206164646044820152637265737360e01b6064820152608401610898565b611d408383836122e0565b611d4b6000826119e9565b6001600160a01b0383166000908152600560205260408120805460019290611d74908490613361565b90915550506001600160a01b0382166000908152600560205260408120805460019290611da29084906131a0565b909155505060008181526004602052604080822080546001600160a01b0319166001600160a01b0386811691821790925591518493918716917fddf252ad1be2c89b69c2b068fc378daa952ba7f163c4a11628f55a4df523b3ef91a4505050565b61106081336122eb565b611e1782826118cc565b60008281526001602052604090206109399082611950565b611e39828261234f565b600082815260016020526040902061093990826123b4565b611e596123c9565b600c805460ff191690557f5db9ee0a495bf2e6ff9c91a7834c1ba4fdd244a5e8aa4e537bd38aeae4b073aa335b6040516001600160a01b03909116815260200160405180910390a1565b6000818152600d602052604081208054829190611ebf90613136565b80601f0160208091040260200160405190810160405280929190818152602001828054611eeb90613136565b8015611f385780601f10611f0d57610100808354040283529160200191611f38565b820191906000526020600020905b815481529060010190602001808311611f1b57829003601f168201915b5050925115159695505050505050565b6000611f5382611156565b9050611f61816000846122e0565b611f6c6000836119e9565b6001600160a01b0381166000908152600560205260408120805460019290611f95908490613361565b909155505060008281526004602052604080822080546001600160a01b0319169055518391906001600160a01b038416907fddf252ad1be2c89b69c2b068fc378daa952ba7f163c4a11628f55a4df523b3ef908390a45050565b611ff7612412565b600c805460ff191660011790557f62e78cea01bee320cd4e420270b5ea74000d11b0c9f74754ebdbfc544b05a258611e863390565b60006112f88383612458565b816001600160a01b0316836001600160a01b0316141561209a5760405162461bcd60e51b815260206004820152601960248201527f4552433732313a20617070726f766520746f2063616c6c6572000000000000006044820152606401610898565b6001600160a01b03838116600081815260076020908152604080832094871680845294825291829020805460ff191686151590811790915591519182527f17307eab39ab6107e8899845ad3d59bd9653f200f220920489ca2b5937696c31910160405180910390a3505050565b612112848484611c5c565b61211e84848484612482565b610a4f5760405162461bcd60e51b8152600401610898906133c2565b60606010805461077990613136565b60608161216d5750506040805180820190915260018152600360fc1b602082015290565b8160005b8115612197578061218181613378565b91506121909050600a8361321c565b9150612171565b60008167ffffffffffffffff8111156121b2576121b2612e3f565b6040519080825280601f01601f1916602001820160405280156121dc576020820181803683370190505b5090505b8415610a8c576121f1600183613361565b91506121fe600a86613230565b6122099060306131a0565b60f81b81838151811061221e5761221e613244565b60200101906001600160f81b031916908160001a905350612240600a8661321c565b94506121e0565b6000610764825490565b600081815260018301602052604081205461229857508154600181810184556000848152602080822090930184905584548482528286019093526040902091909155610764565b506000610764565b60006001600160e01b031982166380ac58cd60e01b14806122d157506001600160e01b03198216635b5e139f60e01b145b8061076457506107648261258f565b6109398383836125b4565b6122f582826112ff565b610bfb5761230d816001600160a01b03166014612626565b612318836020612626565b604051602001612329929190613414565b60408051601f198184030181529082905262461bcd60e51b825261089891600401612c9b565b61235982826112ff565b15610bfb576000828152602081815260408083206001600160a01b0385168085529252808320805460ff1916905551339285917ff6391f5c32d9c69d2a47ea670b442974b53935d1edc7fd64eb21e047a839171b9190a45050565b60006112f8836001600160a01b0384166127c2565b600c5460ff16610ca55760405162461bcd60e51b815260206004820152601460248201527314185d5cd8589b194e881b9bdd081c185d5cd95960621b6044820152606401610898565b600c5460ff1615610ca55760405162461bcd60e51b815260206004820152601060248201526f14185d5cd8589b194e881c185d5cd95960821b6044820152606401610898565b600082600001828154811061246f5761246f613244565b9060005260206000200154905092915050565b60006001600160a01b0384163b1561258457604051630a85bd0160e11b81526001600160a01b0385169063150b7a02906124c6903390899088908890600401613489565b602060405180830381600087803b1580156124e057600080fd5b505af1925050508015612510575060408051601f3d908101601f1916820190925261250d918101906134c6565b60015b61256a573d80801561253e576040519150601f19603f3d011682016040523d82523d6000602084013e612543565b606091505b5080516125625760405162461bcd60e51b8152600401610898906133c2565b805181602001fd5b6001600160e01b031916630a85bd0160e11b149050610a8c565b506001949350505050565b60006001600160e01b03198216635a05180f60e01b14806107645750610764826128b5565b6125bf8383836128ea565b600c5460ff16156109395760405162461bcd60e51b815260206004820152602b60248201527f4552433732315061757361626c653a20746f6b656e207472616e73666572207760448201526a1a1a5b19481c185d5cd95960aa1b6064820152608401610898565b60606000612635836002613181565b6126409060026131a0565b67ffffffffffffffff81111561265857612658612e3f565b6040519080825280601f01601f191660200182016040528015612682576020820181803683370190505b509050600360fc1b8160008151811061269d5761269d613244565b60200101906001600160f81b031916908160001a905350600f60fb1b816001815181106126cc576126cc613244565b60200101906001600160f81b031916908160001a90535060006126f0846002613181565b6126fb9060016131a0565b90505b6001811115612773576f181899199a1a9b1b9c1cb0b131b232b360811b85600f166010811061272f5761272f613244565b1a60f81b82828151811061274557612745613244565b60200101906001600160f81b031916908160001a90535060049490941c9361276c816134e3565b90506126fe565b5083156112f85760405162461bcd60e51b815260206004820181905260248201527f537472696e67733a20686578206c656e67746820696e73756666696369656e746044820152606401610898565b600081815260018301602052604081205480156128ab5760006127e6600183613361565b85549091506000906127fa90600190613361565b905081811461285f57600086600001828154811061281a5761281a613244565b906000526020600020015490508087600001848154811061283d5761283d613244565b6000918252602080832090910192909255918252600188019052604090208390555b8554869080612870576128706134fa565b600190038181906000526020600020016000905590558560010160008681526020019081526020016000206000905560019350505050610764565b6000915050610764565b60006001600160e01b03198216637965db0b60e01b148061076457506301ffc9a760e01b6001600160e01b0319831614610764565b6001600160a01b0383166129455761294081600a80546000838152600b60205260408120829055600182018355919091527fc65a7bb8d6351c1cf70c95a316cc6a92839c986682d98bc35f958f4883f9d2a80155565b612968565b816001600160a01b0316836001600160a01b0316146129685761296883826129a2565b6001600160a01b03821661297f5761093981612a3f565b826001600160a01b0316826001600160a01b031614610939576109398282612aee565b600060016129af846111b6565b6129b99190613361565b600083815260096020526040902054909150808214612a0c576001600160a01b03841660009081526008602090815260408083208584528252808320548484528184208190558352600990915290208190555b5060009182526009602090815260408084208490556001600160a01b039094168352600881528383209183525290812055565b600a54600090612a5190600190613361565b6000838152600b6020526040812054600a8054939450909284908110612a7957612a79613244565b9060005260206000200154905080600a8381548110612a9a57612a9a613244565b6000918252602080832090910192909255828152600b9091526040808220849055858252812055600a805480612ad257612ad26134fa565b6001900381819060005260206000200160009055905550505050565b6000612af9836111b6565b6001600160a01b039093166000908152600860209081526040808320868452825280832085905593825260099052919091209190915550565b6040518060e00160405280600060ff168152602001600060ff168152602001606081526020016060815260200160608152602001606081526020016000151581525090565b828054612b8390613136565b90600052602060002090601f016020900481019282612ba55760008555612beb565b82601f10612bbe57805160ff1916838001178555612beb565b82800160010185558215612beb579182015b82811115612beb578251825591602001919060010190612bd0565b50612bf7929150612bfb565b5090565b5b80821115612bf75760008155600101612bfc565b6001600160e01b03198116811461106057600080fd5b600060208284031215612c3857600080fd5b81356112f881612c10565b60005b83811015612c5e578181015183820152602001612c46565b83811115610a4f5750506000910152565b60008151808452612c87816020860160208601612c43565b601f01601f19169290920160200192915050565b6020815260006112f86020830184612c6f565b600060208284031215612cc057600080fd5b5035919050565b80356001600160a01b0381168114612cde57600080fd5b919050565b60008060408385031215612cf657600080fd5b612cff83612cc7565b946020939093013593505050565b60008060408385031215612d2057600080fd5b50508035926020909101359150565b600080600060608486031215612d4457600080fd5b612d4d84612cc7565b9250612d5b60208501612cc7565b9150604084013590509250925092565b60008060408385031215612d7e57600080fd5b82359150612d8e60208401612cc7565b90509250929050565b60ff815116825260ff60208201511660208301526000604082015160e06040850152612dc660e0850182612c6f565b905060608301518482036060860152612ddf8282612c6f565b91505060808301518482036080860152612df98282612c6f565b91505060a083015184820360a0860152612e138282612c6f565b91505060c0830151151560c08501528091505092915050565b6020815260006112f86020830184612d97565b634e487b7160e01b600052604160045260246000fd5b600067ffffffffffffffff80841115612e7057612e70612e3f565b604051601f8501601f19908116603f01168101908282118183101715612e9857612e98612e3f565b81604052809350858152868686011115612eb157600080fd5b858560208301376000602087830101525050509392505050565b600082601f830112612edc57600080fd5b6112f883833560208501612e55565b600060208284031215612efd57600080fd5b813567ffffffffffffffff811115612f1457600080fd5b610a8c84828501612ecb565b600060208284031215612f3257600080fd5b6112f882612cc7565b600080600080600060a08688031215612f5357600080fd5b85359450602086013567ffffffffffffffff80821115612f7257600080fd5b612f7e89838a01612ecb565b95506040880135915080821115612f9457600080fd5b612fa089838a01612ecb565b94506060880135915080821115612fb657600080fd5b612fc289838a01612ecb565b93506080880135915080821115612fd857600080fd5b50612fe588828901612ecb565b9150509295509295909350565b6000806040838503121561300557600080fd5b61300e83612cc7565b91506020830135801515811461302357600080fd5b809150509250929050565b6000602080830181845280855180835260408601915060408160051b870101925083870160005b8281101561308357603f19888603018452613071858351612d97565b94509285019290850190600101613055565b5092979650505050505050565b600080600080608085870312156130a657600080fd5b6130af85612cc7565b93506130bd60208601612cc7565b925060408501359150606085013567ffffffffffffffff8111156130e057600080fd5b8501601f810187136130f157600080fd5b61310087823560208401612e55565b91505092959194509250565b6000806040838503121561311f57600080fd5b61312883612cc7565b9150612d8e60208401612cc7565b600181811c9082168061314a57607f821691505b6020821081141561179457634e487b7160e01b600052602260045260246000fd5b634e487b7160e01b600052601160045260246000fd5b600081600019048311821515161561319b5761319b61316b565b500290565b600082198211156131b3576131b361316b565b500190565b6020808252602e908201527f4552433732313a2063616c6c6572206973206e6f7420746f6b656e206f776e6560408201526d1c881b9bdc88185c1c1c9bdd995960921b606082015260800190565b634e487b7160e01b600052601260045260246000fd5b60008261322b5761322b613206565b500490565b60008261323f5761323f613206565b500690565b634e487b7160e01b600052603260045260246000fd5b8054600090600181811c908083168061327457607f831692505b602080841082141561329657634e487b7160e01b600052602260045260246000fd5b838852602088018280156132b157600181146132c2576132ed565b60ff198716825282820197506132ed565b60008981526020902060005b878110156132e7578154848201529086019084016132ce565b83019850505b5050505050505092915050565b6020815260806020820152600061331460a083018461325a565b601f198084830301604085015261332e826001870161325a565b915080848303016060850152613347826002870161325a565b91508084830301608085015250610a8c816003860161325a565b6000828210156133735761337361316b565b500390565b600060001982141561338c5761338c61316b565b5060010190565b600083516133a5818460208801612c43565b8351908301906133b9818360208801612c43565b01949350505050565b60208082526032908201527f4552433732313a207472616e7366657220746f206e6f6e20455243373231526560408201527131b2b4bb32b91034b6b83632b6b2b73a32b960711b606082015260800190565b7f416363657373436f6e74726f6c3a206163636f756e742000000000000000000081526000835161344c816017850160208801612c43565b7001034b99036b4b9b9b4b733903937b6329607d1b601791840191820152835161347d816028840160208801612c43565b01602801949350505050565b6001600160a01b03858116825284166020820152604081018390526080606082018190526000906134bc90830184612c6f565b9695505050505050565b6000602082840312156134d857600080fd5b81516112f881612c10565b6000816134f2576134f261316b565b506000190190565b634e487b7160e01b600052603160045260246000fdfea2646970667358221220805b04dfac1cc372d6d350c3d5e49b98004147a4195a26994f97561bd54ade6064736f6c6343000809003368747470733a2f2f616e6e6976657273652e7368776c642e6170702f6170692f746f6b656e732f",
  "linkReferences": {},
  "deployedLinkReferences": {}
}