{
  "_format": "hh-sol-artifact-1",
  "contractName": "AnniversaryToken",
  "sourceName": "contracts/AnniversaryToken.sol",
  "abi": [
    {
      "inputs": [],
      "stateMutability": "nonpayable",
      "type": "constructor"
    },
    {
      "anonymous": false,
      "inputs": [
        {
          "indexed": true,
          "internalType": "uint256",
          "name": "_tokenId",
          "type": "uint256"
        },
        {
          "components": [
            {
              "internalType": "string",
              "name": "name",
              "type": "string"
            },
            {
              "internalType": "string",
              "name": "description",
              "type": "string"
            },
            {
              "internalType": "string",
              "name": "author",
              "type": "string"
            },
            {
              "internalType": "string",
              "name": "authorUrl",
              "type": "string"
            },
            {
              "internalType": "string",
              "name": "lang",
              "type": "string"
            }
          ],
          "indexed": false,
          "internalType": "struct Anniversable._Anniversary",
          "name": "_value",
          "type": "tuple"
        }
      ],
      "name": "AnniversaryUpdated",
      "type": "event"
    },
    {
      "anonymous": false,
      "inputs": [
        {
          "indexed": true,
          "internalType": "address",
          "name": "owner",
          "type": "address"
        },
        {
          "indexed": true,
          "internalType": "address",
          "name": "approved",
          "type": "address"
        },
        {
          "indexed": true,
          "internalType": "uint256",
          "name": "tokenId",
          "type": "uint256"
        }
      ],
      "name": "Approval",
      "type": "event"
    },
    {
      "anonymous": false,
      "inputs": [
        {
          "indexed": true,
          "internalType": "address",
          "name": "owner",
          "type": "address"
        },
        {
          "indexed": true,
          "internalType": "address",
          "name": "operator",
          "type": "address"
        },
        {
          "indexed": false,
          "internalType": "bool",
          "name": "approved",
          "type": "bool"
        }
      ],
      "name": "ApprovalForAll",
      "type": "event"
    },
    {
      "anonymous": false,
      "inputs": [
        {
          "indexed": false,
          "internalType": "address",
          "name": "account",
          "type": "address"
        }
      ],
      "name": "Paused",
      "type": "event"
    },
    {
      "anonymous": false,
      "inputs": [
        {
          "indexed": true,
          "internalType": "bytes32",
          "name": "role",
          "type": "bytes32"
        },
        {
          "indexed": true,
          "internalType": "bytes32",
          "name": "previousAdminRole",
          "type": "bytes32"
        },
        {
          "indexed": true,
          "internalType": "bytes32",
          "name": "newAdminRole",
          "type": "bytes32"
        }
      ],
      "name": "RoleAdminChanged",
      "type": "event"
    },
    {
      "anonymous": false,
      "inputs": [
        {
          "indexed": true,
          "internalType": "bytes32",
          "name": "role",
          "type": "bytes32"
        },
        {
          "indexed": true,
          "internalType": "address",
          "name": "account",
          "type": "address"
        },
        {
          "indexed": true,
          "internalType": "address",
          "name": "sender",
          "type": "address"
        }
      ],
      "name": "RoleGranted",
      "type": "event"
    },
    {
      "anonymous": false,
      "inputs": [
        {
          "indexed": true,
          "internalType": "bytes32",
          "name": "role",
          "type": "bytes32"
        },
        {
          "indexed": true,
          "internalType": "address",
          "name": "account",
          "type": "address"
        },
        {
          "indexed": true,
          "internalType": "address",
          "name": "sender",
          "type": "address"
        }
      ],
      "name": "RoleRevoked",
      "type": "event"
    },
    {
      "anonymous": false,
      "inputs": [
        {
          "indexed": true,
          "internalType": "address",
          "name": "from",
          "type": "address"
        },
        {
          "indexed": true,
          "internalType": "address",
          "name": "to",
          "type": "address"
        },
        {
          "indexed": true,
          "internalType": "uint256",
          "name": "tokenId",
          "type": "uint256"
        }
      ],
      "name": "Transfer",
      "type": "event"
    },
    {
      "anonymous": false,
      "inputs": [
        {
          "indexed": false,
          "internalType": "address",
          "name": "account",
          "type": "address"
        }
      ],
      "name": "Unpaused",
      "type": "event"
    },
    {
      "inputs": [],
      "name": "DEFAULT_ADMIN_ROLE",
      "outputs": [
        {
          "internalType": "bytes32",
          "name": "",
          "type": "bytes32"
        }
      ],
      "stateMutability": "view",
      "type": "function"
    },
    {
      "inputs": [],
      "name": "PAUSER_ROLE",
      "outputs": [
        {
          "internalType": "bytes32",
          "name": "",
          "type": "bytes32"
        }
      ],
      "stateMutability": "view",
      "type": "function"
    },
    {
      "inputs": [],
      "name": "anniversaries365",
      "outputs": [
        {
          "components": [
            {
              "internalType": "uint8",
              "name": "month",
              "type": "uint8"
            },
            {
              "internalType": "uint8",
              "name": "day",
              "type": "uint8"
            },
            {
              "internalType": "string",
              "name": "name",
              "type": "string"
            },
            {
              "internalType": "string",
              "name": "description",
              "type": "string"
            },
            {
              "internalType": "string",
              "name": "author",
              "type": "string"
            },
            {
              "internalType": "string",
              "name": "authorUrl",
              "type": "string"
            },
            {
              "internalType": "string",
              "name": "lang",
              "type": "string"
            },
            {
              "internalType": "bool",
              "name": "isEmpty",
              "type": "bool"
            }
          ],
          "internalType": "struct Anniversable.Anniversary[]",
          "name": "",
          "type": "tuple[]"
        }
      ],
      "stateMutability": "view",
      "type": "function"
    },
    {
      "inputs": [
        {
          "internalType": "uint256",
          "name": "tokenId",
          "type": "uint256"
        }
      ],
      "name": "anniversary",
      "outputs": [
        {
          "components": [
            {
              "internalType": "uint8",
              "name": "month",
              "type": "uint8"
            },
            {
              "internalType": "uint8",
              "name": "day",
              "type": "uint8"
            },
            {
              "internalType": "string",
              "name": "name",
              "type": "string"
            },
            {
              "internalType": "string",
              "name": "description",
              "type": "string"
            },
            {
              "internalType": "string",
              "name": "author",
              "type": "string"
            },
            {
              "internalType": "string",
              "name": "authorUrl",
              "type": "string"
            },
            {
              "internalType": "string",
              "name": "lang",
              "type": "string"
            },
            {
              "internalType": "bool",
              "name": "isEmpty",
              "type": "bool"
            }
          ],
          "internalType": "struct Anniversable.Anniversary",
          "name": "",
          "type": "tuple"
        }
      ],
      "stateMutability": "view",
      "type": "function"
    },
    {
      "inputs": [
        {
          "internalType": "address",
          "name": "to",
          "type": "address"
        },
        {
          "internalType": "uint256",
          "name": "tokenId",
          "type": "uint256"
        }
      ],
      "name": "approve",
      "outputs": [],
      "stateMutability": "nonpayable",
      "type": "function"
    },
    {
      "inputs": [
        {
          "internalType": "address",
          "name": "owner",
          "type": "address"
        }
      ],
      "name": "balanceOf",
      "outputs": [
        {
          "internalType": "uint256",
          "name": "",
          "type": "uint256"
        }
      ],
      "stateMutability": "view",
      "type": "function"
    },
    {
      "inputs": [
        {
          "internalType": "uint256",
          "name": "tokenId",
          "type": "uint256"
        }
      ],
      "name": "burn",
      "outputs": [],
      "stateMutability": "nonpayable",
      "type": "function"
    },
    {
      "inputs": [
        {
          "internalType": "uint256",
          "name": "tokenId",
          "type": "uint256"
        }
      ],
      "name": "getApproved",
      "outputs": [
        {
          "internalType": "address",
          "name": "",
          "type": "address"
        }
      ],
      "stateMutability": "view",
      "type": "function"
    },
    {
      "inputs": [],
      "name": "getCount",
      "outputs": [
        {
          "internalType": "uint256",
          "name": "",
          "type": "uint256"
        }
      ],
      "stateMutability": "view",
      "type": "function"
    },
    {
      "inputs": [
        {
          "internalType": "uint256",
          "name": "tokenId",
          "type": "uint256"
        }
      ],
      "name": "getPrice",
      "outputs": [
        {
          "internalType": "uint256",
          "name": "",
          "type": "uint256"
        }
      ],
      "stateMutability": "view",
      "type": "function"
    },
    {
      "inputs": [
        {
          "internalType": "bytes32",
          "name": "role",
          "type": "bytes32"
        }
      ],
      "name": "getRoleAdmin",
      "outputs": [
        {
          "internalType": "bytes32",
          "name": "",
          "type": "bytes32"
        }
      ],
      "stateMutability": "view",
      "type": "function"
    },
    {
      "inputs": [
        {
          "internalType": "bytes32",
          "name": "role",
          "type": "bytes32"
        },
        {
          "internalType": "uint256",
          "name": "index",
          "type": "uint256"
        }
      ],
      "name": "getRoleMember",
      "outputs": [
        {
          "internalType": "address",
          "name": "",
          "type": "address"
        }
      ],
      "stateMutability": "view",
      "type": "function"
    },
    {
      "inputs": [
        {
          "internalType": "bytes32",
          "name": "role",
          "type": "bytes32"
        }
      ],
      "name": "getRoleMemberCount",
      "outputs": [
        {
          "internalType": "uint256",
          "name": "",
          "type": "uint256"
        }
      ],
      "stateMutability": "view",
      "type": "function"
    },
    {
      "inputs": [
        {
          "internalType": "bytes32",
          "name": "role",
          "type": "bytes32"
        },
        {
          "internalType": "address",
          "name": "account",
          "type": "address"
        }
      ],
      "name": "grantRole",
      "outputs": [],
      "stateMutability": "nonpayable",
      "type": "function"
    },
    {
      "inputs": [
        {
          "internalType": "uint256",
          "name": "month",
          "type": "uint256"
        },
        {
          "internalType": "uint256",
          "name": "day",
          "type": "uint256"
        }
      ],
      "name": "hasMinted",
      "outputs": [
        {
          "internalType": "bool",
          "name": "",
          "type": "bool"
        }
      ],
      "stateMutability": "view",
      "type": "function"
    },
    {
      "inputs": [
        {
          "internalType": "bytes32",
          "name": "role",
          "type": "bytes32"
        },
        {
          "internalType": "address",
          "name": "account",
          "type": "address"
        }
      ],
      "name": "hasRole",
      "outputs": [
        {
          "internalType": "bool",
          "name": "",
          "type": "bool"
        }
      ],
      "stateMutability": "view",
      "type": "function"
    },
    {
      "inputs": [
        {
          "internalType": "address",
          "name": "owner",
          "type": "address"
        },
        {
          "internalType": "address",
          "name": "operator",
          "type": "address"
        }
      ],
      "name": "isApprovedForAll",
      "outputs": [
        {
          "internalType": "bool",
          "name": "",
          "type": "bool"
        }
      ],
      "stateMutability": "view",
      "type": "function"
    },
    {
      "inputs": [
        {
          "internalType": "address",
          "name": "_address",
          "type": "address"
        }
      ],
      "name": "isContractOwner",
      "outputs": [
        {
          "internalType": "bool",
          "name": "",
          "type": "bool"
        }
      ],
      "stateMutability": "view",
      "type": "function"
    },
    {
      "inputs": [
        {
          "internalType": "uint256",
          "name": "month",
          "type": "uint256"
        },
        {
          "internalType": "uint256",
          "name": "day",
          "type": "uint256"
        }
      ],
      "name": "isMinter",
      "outputs": [
        {
          "internalType": "bool",
          "name": "",
          "type": "bool"
        }
      ],
      "stateMutability": "view",
      "type": "function"
    },
    {
      "inputs": [
        {
          "internalType": "uint256",
          "name": "month",
          "type": "uint256"
        },
        {
          "internalType": "uint256",
          "name": "day",
          "type": "uint256"
        }
      ],
      "name": "mint",
      "outputs": [],
      "stateMutability": "payable",
      "type": "function"
    },
    {
      "inputs": [],
      "name": "name",
      "outputs": [
        {
          "internalType": "string",
          "name": "",
          "type": "string"
        }
      ],
      "stateMutability": "view",
      "type": "function"
    },
    {
      "inputs": [
        {
          "internalType": "uint256",
          "name": "tokenId",
          "type": "uint256"
        }
      ],
      "name": "ownerOf",
      "outputs": [
        {
          "internalType": "address",
          "name": "",
          "type": "address"
        }
      ],
      "stateMutability": "view",
      "type": "function"
    },
    {
      "inputs": [],
      "name": "pause",
      "outputs": [],
      "stateMutability": "nonpayable",
      "type": "function"
    },
    {
      "inputs": [],
      "name": "paused",
      "outputs": [
        {
          "internalType": "bool",
          "name": "",
          "type": "bool"
        }
      ],
      "stateMutability": "view",
      "type": "function"
    },
    {
      "inputs": [
        {
          "internalType": "bytes32",
          "name": "role",
          "type": "bytes32"
        },
        {
          "internalType": "address",
          "name": "account",
          "type": "address"
        }
      ],
      "name": "renounceRole",
      "outputs": [],
      "stateMutability": "nonpayable",
      "type": "function"
    },
    {
      "inputs": [
        {
          "internalType": "bytes32",
          "name": "role",
          "type": "bytes32"
        },
        {
          "internalType": "address",
          "name": "account",
          "type": "address"
        }
      ],
      "name": "revokeRole",
      "outputs": [],
      "stateMutability": "nonpayable",
      "type": "function"
    },
    {
      "inputs": [
        {
          "internalType": "address",
          "name": "from",
          "type": "address"
        },
        {
          "internalType": "address",
          "name": "to",
          "type": "address"
        },
        {
          "internalType": "uint256",
          "name": "tokenId",
          "type": "uint256"
        }
      ],
      "name": "safeTransferFrom",
      "outputs": [],
      "stateMutability": "nonpayable",
      "type": "function"
    },
    {
      "inputs": [
        {
          "internalType": "address",
          "name": "from",
          "type": "address"
        },
        {
          "internalType": "address",
          "name": "to",
          "type": "address"
        },
        {
          "internalType": "uint256",
          "name": "tokenId",
          "type": "uint256"
        },
        {
          "internalType": "bytes",
          "name": "data",
          "type": "bytes"
        }
      ],
      "name": "safeTransferFrom",
      "outputs": [],
      "stateMutability": "nonpayable",
      "type": "function"
    },
    {
      "inputs": [
        {
          "internalType": "uint256",
          "name": "tokenId",
          "type": "uint256"
        },
        {
          "internalType": "string",
          "name": "_name",
          "type": "string"
        },
        {
          "internalType": "string",
          "name": "_description",
          "type": "string"
        },
        {
          "internalType": "string",
          "name": "_author",
          "type": "string"
        },
        {
          "internalType": "string",
          "name": "_authorUrl",
          "type": "string"
        },
        {
          "internalType": "string",
          "name": "_lang",
          "type": "string"
        }
      ],
      "name": "setAnniversary",
      "outputs": [],
      "stateMutability": "nonpayable",
      "type": "function"
    },
    {
      "inputs": [
        {
          "internalType": "address",
          "name": "operator",
          "type": "address"
        },
        {
          "internalType": "bool",
          "name": "approved",
          "type": "bool"
        }
      ],
      "name": "setApprovalForAll",
      "outputs": [],
      "stateMutability": "nonpayable",
      "type": "function"
    },
    {
      "inputs": [
        {
          "internalType": "string",
          "name": "newURI",
          "type": "string"
        }
      ],
      "name": "setBaseURI",
      "outputs": [],
      "stateMutability": "nonpayable",
      "type": "function"
    },
    {
      "inputs": [
        {
          "internalType": "bytes4",
          "name": "interfaceId",
          "type": "bytes4"
        }
      ],
      "name": "supportsInterface",
      "outputs": [
        {
          "internalType": "bool",
          "name": "",
          "type": "bool"
        }
      ],
      "stateMutability": "view",
      "type": "function"
    },
    {
      "inputs": [],
      "name": "symbol",
      "outputs": [
        {
          "internalType": "string",
          "name": "",
          "type": "string"
        }
      ],
      "stateMutability": "view",
      "type": "function"
    },
    {
      "inputs": [
        {
          "internalType": "uint256",
          "name": "index",
          "type": "uint256"
        }
      ],
      "name": "tokenByIndex",
      "outputs": [
        {
          "internalType": "uint256",
          "name": "",
          "type": "uint256"
        }
      ],
      "stateMutability": "view",
      "type": "function"
    },
    {
      "inputs": [
        {
          "internalType": "address",
          "name": "owner",
          "type": "address"
        },
        {
          "internalType": "uint256",
          "name": "index",
          "type": "uint256"
        }
      ],
      "name": "tokenOfOwnerByIndex",
      "outputs": [
        {
          "internalType": "uint256",
          "name": "",
          "type": "uint256"
        }
      ],
      "stateMutability": "view",
      "type": "function"
    },
    {
      "inputs": [
        {
          "internalType": "uint256",
          "name": "tokenId",
          "type": "uint256"
        }
      ],
      "name": "tokenURI",
      "outputs": [
        {
          "internalType": "string",
          "name": "",
          "type": "string"
        }
      ],
      "stateMutability": "view",
      "type": "function"
    },
    {
      "inputs": [],
      "name": "totalSupply",
      "outputs": [
        {
          "internalType": "uint256",
          "name": "",
          "type": "uint256"
        }
      ],
      "stateMutability": "view",
      "type": "function"
    },
    {
      "inputs": [
        {
          "internalType": "address",
          "name": "from",
          "type": "address"
        },
        {
          "internalType": "address",
          "name": "to",
          "type": "address"
        },
        {
          "internalType": "uint256",
          "name": "tokenId",
          "type": "uint256"
        }
      ],
      "name": "transferFrom",
      "outputs": [],
      "stateMutability": "nonpayable",
      "type": "function"
    },
    {
      "inputs": [],
      "name": "unpause",
      "outputs": [],
      "stateMutability": "nonpayable",
      "type": "function"
    }
  ],
  "bytecode": "0x60e0604052602760808181529062003a0560a0398051620000299160109160209091019062000269565b503480156200003757600080fd5b50604080518082018252600b81526a416e6e697665727361727960a81b602080830191825283518085019094526009845268414e4e49564552534560b81b9084015281519192916200008c9160029162000269565b508051620000a290600390602084019062000269565b5050600c805460ff1916905550600f80546001600160a01b03191633908117909155620000d29060009062000104565b620000fe7f65d7a28e3265b37a6474929f336521b332c1681b933f6cb9f3376673440d862a3362000104565b6200034c565b62000110828262000114565b5050565b6200012b82826200015760201b620019c21760201c565b60008281526001602090815260409091206200015291839062001a46620001f7821b17901c565b505050565b6000828152602081815260408083206001600160a01b038516845290915290205460ff1662000110576000828152602081815260408083206001600160a01b03851684529091529020805460ff19166001179055620001b33390565b6001600160a01b0316816001600160a01b0316837f2f8788117e7eff1d82e926ec794901d17c78024a50270940304540a733656f0d60405160405180910390a45050565b60006200020e836001600160a01b03841662000217565b90505b92915050565b6000818152600183016020526040812054620002605750815460018181018455600084815260208082209093018490558454848252828601909352604090209190915562000211565b50600062000211565b82805462000277906200030f565b90600052602060002090601f0160209004810192826200029b5760008555620002e6565b82601f10620002b657805160ff1916838001178555620002e6565b82800160010185558215620002e6579182015b82811115620002e6578251825591602001919060010190620002c9565b50620002f4929150620002f8565b5090565b5b80821115620002f45760008155600101620002f9565b600181811c908216806200032457607f821691505b602082108114156200034657634e487b7160e01b600052602260045260246000fd5b50919050565b6136a9806200035c6000396000f3fe6080604052600436106102305760003560e01c80635d00cf0e1161012e578063b1cf0559116100ab578063d65b7b121161006f578063d65b7b1214610678578063de11768814610698578063e63ab1e9146106c7578063e7572230146106fb578063e985e9c51461071b57600080fd5b8063b1cf0559146105d6578063b88d4fde146105f8578063c87b56dd14610618578063ca15c87314610638578063d547741f1461065857600080fd5b806391d14854116100f257806391d148541461055757806395d89b4114610577578063a217fddf1461058c578063a22cb465146105a1578063a87d942c146105c157600080fd5b80635d00cf0e146104c25780636352211e146104e257806370a08231146105025780638456cb59146105225780639010d07c1461053757600080fd5b80632f2ff15d116101bc57806342842e0e1161018057806342842e0e1461042a57806342966c681461044a5780634f6ccce71461046a57806355f804b31461048a5780635c975abb146104aa57600080fd5b80632f2ff15d146103885780632f745c59146103a857806336568abe146103c85780633f4ba83a146103e85780634001935f146103fd57600080fd5b806318160ddd1161020357806318160ddd146102e65780631b2ef1ca146103055780631fdc4fd71461031857806323b872dd14610338578063248a9ca31461035857600080fd5b806301ffc9a71461023557806306fdde031461026a578063081812fc1461028c578063095ea7b3146102c4575b600080fd5b34801561024157600080fd5b50610255610250366004612d24565b610764565b60405190151581526020015b60405180910390f35b34801561027657600080fd5b5061027f610775565b6040516102619190612d99565b34801561029857600080fd5b506102ac6102a7366004612dac565b610807565b6040516001600160a01b039091168152602001610261565b3480156102d057600080fd5b506102e46102df366004612de1565b61082e565b005b3480156102f257600080fd5b50600a545b604051908152602001610261565b6102e4610313366004612e0b565b610949565b34801561032457600080fd5b50610255610333366004612e0b565b610a61565b34801561034457600080fd5b506102e4610353366004612e2d565b610aa0565b34801561036457600080fd5b506102f7610373366004612dac565b60009081526020819052604090206001015490565b34801561039457600080fd5b506102e46103a3366004612e69565b610ad2565b3480156103b457600080fd5b506102f76103c3366004612de1565b610af7565b3480156103d457600080fd5b506102e46103e3366004612e69565b610b8d565b3480156103f457600080fd5b506102e4610c0b565b34801561040957600080fd5b5061041d610418366004612dac565b610cb3565b6040516102619190612f53565b34801561043657600080fd5b506102e4610445366004612e2d565b6110c6565b34801561045657600080fd5b506102e4610465366004612dac565b6110e1565b34801561047657600080fd5b506102f7610485366004612dac565b611112565b34801561049657600080fd5b506102e46104a5366004613012565b6111a5565b3480156104b657600080fd5b50600c5460ff16610255565b3480156104ce57600080fd5b506102e46104dd366004613047565b611205565b3480156104ee57600080fd5b506102ac6104fd366004612dac565b61152c565b34801561050e57600080fd5b506102f761051d366004613121565b61158c565b34801561052e57600080fd5b506102e4611612565b34801561054357600080fd5b506102ac610552366004612e0b565b6116b6565b34801561056357600080fd5b50610255610572366004612e69565b6116d5565b34801561058357600080fd5b5061027f6116fe565b34801561059857600080fd5b506102f7600081565b3480156105ad57600080fd5b506102e46105bc36600461313c565b61170d565b3480156105cd57600080fd5b506102f7611718565b3480156105e257600080fd5b506105eb611728565b6040516102619190613178565b34801561060457600080fd5b506102e46106133660046131da565b611817565b34801561062457600080fd5b5061027f610633366004612dac565b611849565b34801561064457600080fd5b506102f7610653366004612dac565b6118af565b34801561066457600080fd5b506102e4610673366004612e69565b6118c6565b34801561068457600080fd5b50610255610693366004612e0b565b6118eb565b3480156106a457600080fd5b506102556106b3366004613121565b600f546001600160a01b0390811691161490565b3480156106d357600080fd5b506102f77f65d7a28e3265b37a6474929f336521b332c1681b933f6cb9f3376673440d862a81565b34801561070757600080fd5b506102f7610716366004612dac565b611949565b34801561072757600080fd5b50610255610736366004613256565b6001600160a01b03918216600090815260076020908152604080832093909416825291909152205460ff1690565b600061076f82611a5b565b92915050565b60606002805461078490613280565b80601f01602080910402602001604051908101604052809291908181526020018280546107b090613280565b80156107fd5780601f106107d2576101008083540402835291602001916107fd565b820191906000526020600020905b8154815290600101906020018083116107e057829003601f168201915b5050505050905090565b600061081282611a80565b506000908152600660205260409020546001600160a01b031690565b60006108398261152c565b9050806001600160a01b0316836001600160a01b031614156108ac5760405162461bcd60e51b815260206004820152602160248201527f4552433732313a20617070726f76616c20746f2063757272656e74206f776e656044820152603960f91b60648201526084015b60405180910390fd5b336001600160a01b03821614806108c857506108c88133610736565b61093a5760405162461bcd60e51b815260206004820152603e60248201527f4552433732313a20617070726f76652063616c6c6572206973206e6f7420746f60448201527f6b656e206f776e6572206e6f7220617070726f76656420666f7220616c6c000060648201526084016108a3565b6109448383611adf565b505050565b6000816109578460646132cb565b61096191906132ea565b9050600061096e82611949565b90508034146109aa5760405162461bcd60e51b81526020600482015260086024820152676d7573742070617960c01b60448201526064016108a3565b6000841180156109bb5750600c8411155b6109fa5760405162461bcd60e51b815260206004820152601060248201526f1b5bdb9d1a081a5cc81a5b9d985b1a5960821b60448201526064016108a3565b600083118015610a0b5750601f8311155b610a485760405162461bcd60e51b815260206004820152600e60248201526d19185e481a5cc81a5b9d985b1a5960921b60448201526064016108a3565b610a5181611b4d565b610a5b3383611b98565b50505050565b60008082610a708560646132cb565b610a7a91906132ea565b6000818152600460205260409020549091506001600160a01b031615155b949350505050565b610aab335b82611ce6565b610ac75760405162461bcd60e51b81526004016108a390613302565b610944838383611d52565b600082815260208190526040902060010154610aed81611ef9565b6109448383611f03565b6000610b028361158c565b8210610b645760405162461bcd60e51b815260206004820152602b60248201527f455243373231456e756d657261626c653a206f776e657220696e646578206f7560448201526a74206f6620626f756e647360a81b60648201526084016108a3565b506001600160a01b03919091166000908152600860209081526040808320938352929052205490565b6001600160a01b0381163314610bfd5760405162461bcd60e51b815260206004820152602f60248201527f416363657373436f6e74726f6c3a2063616e206f6e6c792072656e6f756e636560448201526e103937b632b9903337b91039b2b63360891b60648201526084016108a3565b610c078282611f25565b5050565b610c357f65d7a28e3265b37a6474929f336521b332c1681b933f6cb9f3376673440d862a336116d5565b610ca9576040805162461bcd60e51b81526020600482015260248101919091527f4552433732315072657365744d696e7465725061757365724175746f49643a2060448201527f6d75737420686176652070617573657220726f6c6520746f20756e706175736560648201526084016108a3565b610cb1611f47565b565b610cbb612c28565b6000610cc8606484613366565b90506000610cd760648561337a565b9050610ce284611f99565b15611047576040518061010001604052808360ff1681526020018260ff168152602001600d60008781526020019081526020016000206000018054610d2690613280565b80601f0160208091040260200160405190810160405280929190818152602001828054610d5290613280565b8015610d9f5780601f10610d7457610100808354040283529160200191610d9f565b820191906000526020600020905b815481529060010190602001808311610d8257829003601f168201915b50505050508152602001600d60008781526020019081526020016000206001018054610dca90613280565b80601f0160208091040260200160405190810160405280929190818152602001828054610df690613280565b8015610e435780601f10610e1857610100808354040283529160200191610e43565b820191906000526020600020905b815481529060010190602001808311610e2657829003601f168201915b50505050508152602001600d60008781526020019081526020016000206002018054610e6e90613280565b80601f0160208091040260200160405190810160405280929190818152602001828054610e9a90613280565b8015610ee75780601f10610ebc57610100808354040283529160200191610ee7565b820191906000526020600020905b815481529060010190602001808311610eca57829003601f168201915b50505050508152602001600d60008781526020019081526020016000206003018054610f1290613280565b80601f0160208091040260200160405190810160405280929190818152602001828054610f3e90613280565b8015610f8b5780601f10610f6057610100808354040283529160200191610f8b565b820191906000526020600020905b815481529060010190602001808311610f6e57829003601f168201915b50505050508152602001600d60008781526020019081526020016000206004018054610fb690613280565b80601f0160208091040260200160405190810160405280929190818152602001828054610fe290613280565b801561102f5780601f106110045761010080835404028352916020019161102f565b820191906000526020600020905b81548152906001019060200180831161101257829003601f168201915b50505091835250506000602090910152949350505050565b604080516101008101825260ff938416815291909216602080830191909152825180820184526000808252838501919091528351808301855281815260608401528351808301855281815260808401528351808301855281815260a0840152835191820190935291825260c0810191909152600160e082015292915050565b61094483838360405180602001604052806000815250611817565b6110ea33610aa5565b6111065760405162461bcd60e51b81526004016108a390613302565b61110f8161203e565b50565b600061111d600a5490565b82106111805760405162461bcd60e51b815260206004820152602c60248201527f455243373231456e756d657261626c653a20676c6f62616c20696e646578206f60448201526b7574206f6620626f756e647360a01b60648201526084016108a3565b600a82815481106111935761119361338e565b90600052602060002001549050919050565b6111b06000336116d5565b6111f25760405162461bcd60e51b815260206004820152601360248201527221b0b63632b91034b9903737ba1030b236b4b760691b60448201526064016108a3565b8051610c07906010906020840190612c75565b61120e86611a80565b60006112198761152c565b90506001600160a01b03811633146112735760405162461bcd60e51b815260206004820152601b60248201527f6d7573742068617665206f776e657220726f6c6520746f20736574000000000060448201526064016108a3565b855186906112b65760405162461bcd60e51b815260206004820152601060248201526f1b985b59481a5cc81c995c5d5a5c995960821b60448201526064016108a3565b6080815111156113085760405162461bcd60e51b815260206004820152601c60248201527f6e616d65206973206c696d6974656420746f203132382062797465730000000060448201526064016108a3565b8551869061020010156113695760405162461bcd60e51b815260206004820152602360248201527f6465736372697074696f6e206973206c696d6974656420746f2035313220627960448201526274657360e81b60648201526084016108a3565b85518690608010156113bd5760405162461bcd60e51b815260206004820152601e60248201527f617574686f72206973206c696d6974656420746f20313238206279746573000060448201526064016108a3565b85518690610200101561141c5760405162461bcd60e51b815260206004820152602160248201527f617574686f7255726c206973206c696d6974656420746f2035313220627974656044820152607360f81b60648201526084016108a3565b6040805160a0810182528b815260208082018c90528183018b9052606082018a90526080820189905260008e8152600d82529290922081518051929391926114679284920190612c75565b5060208281015180516114809260018501920190612c75565b506040820151805161149c916002840191602090910190612c75565b50606082015180516114b8916003840191602090910190612c75565b50608082015180516114d4916004840191602090910190612c75565b50505060008b8152600d60205260409081902090518c917f3359fac74079841f2d8cd9f9ea6025a9c7944ca809803cc71aa542f46cc675fb916115179190613444565b60405180910390a25050505050505050505050565b6000818152600460205260408120546001600160a01b03168061076f5760405162461bcd60e51b8152602060048201526018602482015277115490cdcc8c4e881a5b9d985b1a59081d1bdad95b88125160421b60448201526064016108a3565b60006001600160a01b0382166115f65760405162461bcd60e51b815260206004820152602960248201527f4552433732313a2061646472657373207a65726f206973206e6f7420612076616044820152683634b21037bbb732b960b91b60648201526084016108a3565b506001600160a01b031660009081526005602052604090205490565b61163c7f65d7a28e3265b37a6474929f336521b332c1681b933f6cb9f3376673440d862a336116d5565b6116ae5760405162461bcd60e51b815260206004820152603e60248201527f4552433732315072657365744d696e7465725061757365724175746f49643a2060448201527f6d75737420686176652070617573657220726f6c6520746f207061757365000060648201526084016108a3565b610cb16120e5565b60008281526001602052604081206116ce9083612122565b9392505050565b6000918252602082815260408084206001600160a01b0393909316845291905290205460ff1690565b60606003805461078490613280565b610c0733838361212e565b6000611723600e5490565b905090565b60408051610174808252612ea0820190925260609160009190816020015b61174e612c28565b81526020019060019003908161174657905050905060015b600c81116118115760015b601f81116117fe57600060018261178882866134c4565b61179390601f6132cb565b61179d91906132ea565b6117a791906134c4565b90506000826117b78560646132cb565b6117c191906132ea565b90506117cc81610cb3565b8583815181106117de576117de61338e565b6020026020010181905250505080806117f6906134db565b915050611771565b5080611809816134db565b915050611766565b50919050565b6118213383611ce6565b61183d5760405162461bcd60e51b81526004016108a390613302565b610a5b848484846121fd565b606061185482611a80565b600061185e612230565b9050600081511161187e57604051806020016040528060008152506116ce565b806118888461223f565b6040516020016118999291906134f6565b6040516020818303038152906040529392505050565b600081815260016020526040812061076f9061233d565b6000828152602081905260409020600101546118e181611ef9565b6109448383611f25565b600080826118fa8560646132cb565b61190491906132ea565b6000818152600460205260409020549091506001600160a01b031661192d57600091505061076f565b336119378261152c565b6001600160a01b031614949350505050565b600080611955600e5490565b9050600061196460648561337a565b6001141561197b5750670de0b6b3a76400006116ce565b61010982106119935750670de0b6b3a76400006116ce565b60a582106119aa57506706f05b59d3b200006116ce565b606482106116ce575066b1a2bc2ec500009392505050565b6119cc82826116d5565b610c07576000828152602081815260408083206001600160a01b03851684529091529020805460ff19166001179055611a023390565b6001600160a01b0316816001600160a01b0316837f2f8788117e7eff1d82e926ec794901d17c78024a50270940304540a733656f0d60405160405180910390a45050565b60006116ce836001600160a01b038416612347565b60006001600160e01b0319821663780e9d6360e01b148061076f575061076f82612396565b6000818152600460205260409020546001600160a01b031661110f5760405162461bcd60e51b8152602060048201526018602482015277115490cdcc8c4e881a5b9d985b1a59081d1bdad95b88125160421b60448201526064016108a3565b600081815260066020526040902080546001600160a01b0319166001600160a01b0384169081179091558190611b148261152c565b6001600160a01b03167f8c5be1e5ebec7d5bd14f71427d1e84f3dd0314c0f7b2291e5b200ac8c7c3b92560405160405180910390a45050565b600f546040516001600160a01b0390911690819083156108fc029084906000818181858888f19350505050158015611b89573d6000803e3d6000fd5b50610c07600e80546001019055565b6001600160a01b038216611bee5760405162461bcd60e51b815260206004820181905260248201527f4552433732313a206d696e7420746f20746865207a65726f206164647265737360448201526064016108a3565b6000818152600460205260409020546001600160a01b031615611c535760405162461bcd60e51b815260206004820152601c60248201527f4552433732313a20746f6b656e20616c7265616479206d696e7465640000000060448201526064016108a3565b611c5f600083836123d6565b6001600160a01b0382166000908152600560205260408120805460019290611c889084906132ea565b909155505060008181526004602052604080822080546001600160a01b0319166001600160a01b03861690811790915590518392907fddf252ad1be2c89b69c2b068fc378daa952ba7f163c4a11628f55a4df523b3ef908290a45050565b600080611cf28361152c565b9050806001600160a01b0316846001600160a01b03161480611d3957506001600160a01b0380821660009081526007602090815260408083209388168352929052205460ff165b80610a985750836001600160a01b031661193784610807565b826001600160a01b0316611d658261152c565b6001600160a01b031614611dc95760405162461bcd60e51b815260206004820152602560248201527f4552433732313a207472616e736665722066726f6d20696e636f72726563742060448201526437bbb732b960d91b60648201526084016108a3565b6001600160a01b038216611e2b5760405162461bcd60e51b8152602060048201526024808201527f4552433732313a207472616e7366657220746f20746865207a65726f206164646044820152637265737360e01b60648201526084016108a3565b611e368383836123d6565b611e41600082611adf565b6001600160a01b0383166000908152600560205260408120805460019290611e6a9084906134c4565b90915550506001600160a01b0382166000908152600560205260408120805460019290611e989084906132ea565b909155505060008181526004602052604080822080546001600160a01b0319166001600160a01b0386811691821790925591518493918716917fddf252ad1be2c89b69c2b068fc378daa952ba7f163c4a11628f55a4df523b3ef91a4505050565b61110f81336123e1565b611f0d82826119c2565b60008281526001602052604090206109449082611a46565b611f2f8282612445565b600082815260016020526040902061094490826124aa565b611f4f6124bf565b600c805460ff191690557f5db9ee0a495bf2e6ff9c91a7834c1ba4fdd244a5e8aa4e537bd38aeae4b073aa335b6040516001600160a01b03909116815260200160405180910390a1565b6000818152600d602052604081208054829190611fb590613280565b80601f0160208091040260200160405190810160405280929190818152602001828054611fe190613280565b801561202e5780601f106120035761010080835404028352916020019161202e565b820191906000526020600020905b81548152906001019060200180831161201157829003601f168201915b5050925115159695505050505050565b60006120498261152c565b9050612057816000846123d6565b612062600083611adf565b6001600160a01b038116600090815260056020526040812080546001929061208b9084906134c4565b909155505060008281526004602052604080822080546001600160a01b0319169055518391906001600160a01b038416907fddf252ad1be2c89b69c2b068fc378daa952ba7f163c4a11628f55a4df523b3ef908390a45050565b6120ed612508565b600c805460ff191660011790557f62e78cea01bee320cd4e420270b5ea74000d11b0c9f74754ebdbfc544b05a258611f7c3390565b60006116ce838361254e565b816001600160a01b0316836001600160a01b031614156121905760405162461bcd60e51b815260206004820152601960248201527f4552433732313a20617070726f766520746f2063616c6c65720000000000000060448201526064016108a3565b6001600160a01b03838116600081815260076020908152604080832094871680845294825291829020805460ff191686151590811790915591519182527f17307eab39ab6107e8899845ad3d59bd9653f200f220920489ca2b5937696c31910160405180910390a3505050565b612208848484611d52565b61221484848484612578565b610a5b5760405162461bcd60e51b81526004016108a390613525565b60606010805461078490613280565b6060816122635750506040805180820190915260018152600360fc1b602082015290565b8160005b811561228d5780612277816134db565b91506122869050600a83613366565b9150612267565b60008167ffffffffffffffff8111156122a8576122a8612f66565b6040519080825280601f01601f1916602001820160405280156122d2576020820181803683370190505b5090505b8415610a98576122e76001836134c4565b91506122f4600a8661337a565b6122ff9060306132ea565b60f81b8183815181106123145761231461338e565b60200101906001600160f81b031916908160001a905350612336600a86613366565b94506122d6565b600061076f825490565b600081815260018301602052604081205461238e5750815460018181018455600084815260208082209093018490558454848252828601909352604090209190915561076f565b50600061076f565b60006001600160e01b031982166380ac58cd60e01b14806123c757506001600160e01b03198216635b5e139f60e01b145b8061076f575061076f82612685565b6109448383836126aa565b6123eb82826116d5565b610c0757612403816001600160a01b0316601461271c565b61240e83602061271c565b60405160200161241f929190613577565b60408051601f198184030181529082905262461bcd60e51b82526108a391600401612d99565b61244f82826116d5565b15610c07576000828152602081815260408083206001600160a01b0385168085529252808320805460ff1916905551339285917ff6391f5c32d9c69d2a47ea670b442974b53935d1edc7fd64eb21e047a839171b9190a45050565b60006116ce836001600160a01b0384166128b8565b600c5460ff16610cb15760405162461bcd60e51b815260206004820152601460248201527314185d5cd8589b194e881b9bdd081c185d5cd95960621b60448201526064016108a3565b600c5460ff1615610cb15760405162461bcd60e51b815260206004820152601060248201526f14185d5cd8589b194e881c185d5cd95960821b60448201526064016108a3565b60008260000182815481106125655761256561338e565b9060005260206000200154905092915050565b60006001600160a01b0384163b1561267a57604051630a85bd0160e11b81526001600160a01b0385169063150b7a02906125bc9033908990889088906004016135ec565b602060405180830381600087803b1580156125d657600080fd5b505af1925050508015612606575060408051601f3d908101601f1916820190925261260391810190613629565b60015b612660573d808015612634576040519150601f19603f3d011682016040523d82523d6000602084013e612639565b606091505b5080516126585760405162461bcd60e51b81526004016108a390613525565b805181602001fd5b6001600160e01b031916630a85bd0160e11b149050610a98565b506001949350505050565b60006001600160e01b03198216635a05180f60e01b148061076f575061076f826129ab565b6126b58383836129e0565b600c5460ff16156109445760405162461bcd60e51b815260206004820152602b60248201527f4552433732315061757361626c653a20746f6b656e207472616e73666572207760448201526a1a1a5b19481c185d5cd95960aa1b60648201526084016108a3565b6060600061272b8360026132cb565b6127369060026132ea565b67ffffffffffffffff81111561274e5761274e612f66565b6040519080825280601f01601f191660200182016040528015612778576020820181803683370190505b509050600360fc1b816000815181106127935761279361338e565b60200101906001600160f81b031916908160001a905350600f60fb1b816001815181106127c2576127c261338e565b60200101906001600160f81b031916908160001a90535060006127e68460026132cb565b6127f19060016132ea565b90505b6001811115612869576f181899199a1a9b1b9c1cb0b131b232b360811b85600f16601081106128255761282561338e565b1a60f81b82828151811061283b5761283b61338e565b60200101906001600160f81b031916908160001a90535060049490941c9361286281613646565b90506127f4565b5083156116ce5760405162461bcd60e51b815260206004820181905260248201527f537472696e67733a20686578206c656e67746820696e73756666696369656e7460448201526064016108a3565b600081815260018301602052604081205480156129a15760006128dc6001836134c4565b85549091506000906128f0906001906134c4565b90508181146129555760008660000182815481106129105761291061338e565b90600052602060002001549050808760000184815481106129335761293361338e565b6000918252602080832090910192909255918252600188019052604090208390555b85548690806129665761296661365d565b60019003818190600052602060002001600090559055856001016000868152602001908152602001600020600090556001935050505061076f565b600091505061076f565b60006001600160e01b03198216637965db0b60e01b148061076f57506301ffc9a760e01b6001600160e01b031983161461076f565b6001600160a01b038316612a3b57612a3681600a80546000838152600b60205260408120829055600182018355919091527fc65a7bb8d6351c1cf70c95a316cc6a92839c986682d98bc35f958f4883f9d2a80155565b612a5e565b816001600160a01b0316836001600160a01b031614612a5e57612a5e8382612a98565b6001600160a01b038216612a755761094481612b35565b826001600160a01b0316826001600160a01b031614610944576109448282612be4565b60006001612aa58461158c565b612aaf91906134c4565b600083815260096020526040902054909150808214612b02576001600160a01b03841660009081526008602090815260408083208584528252808320548484528184208190558352600990915290208190555b5060009182526009602090815260408084208490556001600160a01b039094168352600881528383209183525290812055565b600a54600090612b47906001906134c4565b6000838152600b6020526040812054600a8054939450909284908110612b6f57612b6f61338e565b9060005260206000200154905080600a8381548110612b9057612b9061338e565b6000918252602080832090910192909255828152600b9091526040808220849055858252812055600a805480612bc857612bc861365d565b6001900381819060005260206000200160009055905550505050565b6000612bef8361158c565b6001600160a01b039093166000908152600860209081526040808320868452825280832085905593825260099052919091209190915550565b604051806101000160405280600060ff168152602001600060ff16815260200160608152602001606081526020016060815260200160608152602001606081526020016000151581525090565b828054612c8190613280565b90600052602060002090601f016020900481019282612ca35760008555612ce9565b82601f10612cbc57805160ff1916838001178555612ce9565b82800160010185558215612ce9579182015b82811115612ce9578251825591602001919060010190612cce565b50612cf5929150612cf9565b5090565b5b80821115612cf55760008155600101612cfa565b6001600160e01b03198116811461110f57600080fd5b600060208284031215612d3657600080fd5b81356116ce81612d0e565b60005b83811015612d5c578181015183820152602001612d44565b83811115610a5b5750506000910152565b60008151808452612d85816020860160208601612d41565b601f01601f19169290920160200192915050565b6020815260006116ce6020830184612d6d565b600060208284031215612dbe57600080fd5b5035919050565b80356001600160a01b0381168114612ddc57600080fd5b919050565b60008060408385031215612df457600080fd5b612dfd83612dc5565b946020939093013593505050565b60008060408385031215612e1e57600080fd5b50508035926020909101359150565b600080600060608486031215612e4257600080fd5b612e4b84612dc5565b9250612e5960208501612dc5565b9150604084013590509250925092565b60008060408385031215612e7c57600080fd5b82359150612e8c60208401612dc5565b90509250929050565b805160ff16825260006101006020830151612eb5602086018260ff169052565b506040830151816040860152612ecd82860182612d6d565b91505060608301518482036060860152612ee78282612d6d565b91505060808301518482036080860152612f018282612d6d565b91505060a083015184820360a0860152612f1b8282612d6d565b91505060c083015184820360c0860152612f358282612d6d565b91505060e0830151612f4b60e086018215159052565b509392505050565b6020815260006116ce6020830184612e95565b634e487b7160e01b600052604160045260246000fd5b600067ffffffffffffffff80841115612f9757612f97612f66565b604051601f8501601f19908116603f01168101908282118183101715612fbf57612fbf612f66565b81604052809350858152868686011115612fd857600080fd5b858560208301376000602087830101525050509392505050565b600082601f83011261300357600080fd5b6116ce83833560208501612f7c565b60006020828403121561302457600080fd5b813567ffffffffffffffff81111561303b57600080fd5b610a9884828501612ff2565b60008060008060008060c0878903121561306057600080fd5b86359550602087013567ffffffffffffffff8082111561307f57600080fd5b61308b8a838b01612ff2565b965060408901359150808211156130a157600080fd5b6130ad8a838b01612ff2565b955060608901359150808211156130c357600080fd5b6130cf8a838b01612ff2565b945060808901359150808211156130e557600080fd5b6130f18a838b01612ff2565b935060a089013591508082111561310757600080fd5b5061311489828a01612ff2565b9150509295509295509295565b60006020828403121561313357600080fd5b6116ce82612dc5565b6000806040838503121561314f57600080fd5b61315883612dc5565b91506020830135801515811461316d57600080fd5b809150509250929050565b6000602080830181845280855180835260408601915060408160051b870101925083870160005b828110156131cd57603f198886030184526131bb858351612e95565b9450928501929085019060010161319f565b5092979650505050505050565b600080600080608085870312156131f057600080fd5b6131f985612dc5565b935061320760208601612dc5565b925060408501359150606085013567ffffffffffffffff81111561322a57600080fd5b8501601f8101871361323b57600080fd5b61324a87823560208401612f7c565b91505092959194509250565b6000806040838503121561326957600080fd5b61327283612dc5565b9150612e8c60208401612dc5565b600181811c9082168061329457607f821691505b6020821081141561181157634e487b7160e01b600052602260045260246000fd5b634e487b7160e01b600052601160045260246000fd5b60008160001904831182151516156132e5576132e56132b5565b500290565b600082198211156132fd576132fd6132b5565b500190565b6020808252602e908201527f4552433732313a2063616c6c6572206973206e6f7420746f6b656e206f776e6560408201526d1c881b9bdc88185c1c1c9bdd995960921b606082015260800190565b634e487b7160e01b600052601260045260246000fd5b60008261337557613375613350565b500490565b60008261338957613389613350565b500690565b634e487b7160e01b600052603260045260246000fd5b8054600090600181811c90808316806133be57607f831692505b60208084108214156133e057634e487b7160e01b600052602260045260246000fd5b838852602088018280156133fb576001811461340c57613437565b60ff19871682528282019750613437565b60008981526020902060005b8781101561343157815484820152908601908401613418565b83019850505b5050505050505092915050565b6020815260a06020820152600061345e60c08301846133a4565b601f198084830301604085015261347882600187016133a4565b91508084830301606085015261349182600287016133a4565b9150808483030160808501526134aa82600387016133a4565b9150808483030160a085015250610a9881600486016133a4565b6000828210156134d6576134d66132b5565b500390565b60006000198214156134ef576134ef6132b5565b5060010190565b60008351613508818460208801612d41565b83519083019061351c818360208801612d41565b01949350505050565b60208082526032908201527f4552433732313a207472616e7366657220746f206e6f6e20455243373231526560408201527131b2b4bb32b91034b6b83632b6b2b73a32b960711b606082015260800190565b7f416363657373436f6e74726f6c3a206163636f756e74200000000000000000008152600083516135af816017850160208801612d41565b7001034b99036b4b9b9b4b733903937b6329607d1b60179184019182015283516135e0816028840160208801612d41565b01602801949350505050565b6001600160a01b038581168252841660208201526040810183905260806060820181905260009061361f90830184612d6d565b9695505050505050565b60006020828403121561363b57600080fd5b81516116ce81612d0e565b600081613655576136556132b5565b506000190190565b634e487b7160e01b600052603160045260246000fdfea2646970667358221220fbe02c005ef1165f32685fb3ba17743c954c6deed5a7eb0f266b867e0350f25b64736f6c6343000809003368747470733a2f2f616e6e6976657273652e7368776c642e6170702f6170692f746f6b656e732f",
  "linkReferences": {},
  "deployedLinkReferences": {}
}