{
  "_format": "hh-sol-artifact-1",
  "contractName": "AnniversaryToken",
  "sourceName": "contracts/AnniversaryToken.sol",
  "abi": [
    {
      "inputs": [],
      "stateMutability": "nonpayable",
      "type": "constructor"
    },
    {
      "anonymous": false,
      "inputs": [
        {
          "indexed": true,
          "internalType": "uint256",
          "name": "_tokenId",
          "type": "uint256"
        },
        {
          "components": [
            {
              "internalType": "string",
              "name": "name",
              "type": "string"
            },
            {
              "internalType": "string",
              "name": "description",
              "type": "string"
            },
            {
              "internalType": "string",
              "name": "author",
              "type": "string"
            },
            {
              "internalType": "string",
              "name": "authorUrl",
              "type": "string"
            }
          ],
          "indexed": false,
          "internalType": "struct Anniversable._Anniversary",
          "name": "_value",
          "type": "tuple"
        }
      ],
      "name": "AnniversaryUpdated",
      "type": "event"
    },
    {
      "anonymous": false,
      "inputs": [
        {
          "indexed": true,
          "internalType": "address",
          "name": "owner",
          "type": "address"
        },
        {
          "indexed": true,
          "internalType": "address",
          "name": "approved",
          "type": "address"
        },
        {
          "indexed": true,
          "internalType": "uint256",
          "name": "tokenId",
          "type": "uint256"
        }
      ],
      "name": "Approval",
      "type": "event"
    },
    {
      "anonymous": false,
      "inputs": [
        {
          "indexed": true,
          "internalType": "address",
          "name": "owner",
          "type": "address"
        },
        {
          "indexed": true,
          "internalType": "address",
          "name": "operator",
          "type": "address"
        },
        {
          "indexed": false,
          "internalType": "bool",
          "name": "approved",
          "type": "bool"
        }
      ],
      "name": "ApprovalForAll",
      "type": "event"
    },
    {
      "anonymous": false,
      "inputs": [
        {
          "indexed": false,
          "internalType": "address",
          "name": "account",
          "type": "address"
        }
      ],
      "name": "Paused",
      "type": "event"
    },
    {
      "anonymous": false,
      "inputs": [
        {
          "indexed": true,
          "internalType": "bytes32",
          "name": "role",
          "type": "bytes32"
        },
        {
          "indexed": true,
          "internalType": "bytes32",
          "name": "previousAdminRole",
          "type": "bytes32"
        },
        {
          "indexed": true,
          "internalType": "bytes32",
          "name": "newAdminRole",
          "type": "bytes32"
        }
      ],
      "name": "RoleAdminChanged",
      "type": "event"
    },
    {
      "anonymous": false,
      "inputs": [
        {
          "indexed": true,
          "internalType": "bytes32",
          "name": "role",
          "type": "bytes32"
        },
        {
          "indexed": true,
          "internalType": "address",
          "name": "account",
          "type": "address"
        },
        {
          "indexed": true,
          "internalType": "address",
          "name": "sender",
          "type": "address"
        }
      ],
      "name": "RoleGranted",
      "type": "event"
    },
    {
      "anonymous": false,
      "inputs": [
        {
          "indexed": true,
          "internalType": "bytes32",
          "name": "role",
          "type": "bytes32"
        },
        {
          "indexed": true,
          "internalType": "address",
          "name": "account",
          "type": "address"
        },
        {
          "indexed": true,
          "internalType": "address",
          "name": "sender",
          "type": "address"
        }
      ],
      "name": "RoleRevoked",
      "type": "event"
    },
    {
      "anonymous": false,
      "inputs": [
        {
          "indexed": true,
          "internalType": "address",
          "name": "from",
          "type": "address"
        },
        {
          "indexed": true,
          "internalType": "address",
          "name": "to",
          "type": "address"
        },
        {
          "indexed": true,
          "internalType": "uint256",
          "name": "tokenId",
          "type": "uint256"
        }
      ],
      "name": "Transfer",
      "type": "event"
    },
    {
      "anonymous": false,
      "inputs": [
        {
          "indexed": false,
          "internalType": "address",
          "name": "account",
          "type": "address"
        }
      ],
      "name": "Unpaused",
      "type": "event"
    },
    {
      "inputs": [],
      "name": "DEFAULT_ADMIN_ROLE",
      "outputs": [
        {
          "internalType": "bytes32",
          "name": "",
          "type": "bytes32"
        }
      ],
      "stateMutability": "view",
      "type": "function"
    },
    {
      "inputs": [],
      "name": "PAUSER_ROLE",
      "outputs": [
        {
          "internalType": "bytes32",
          "name": "",
          "type": "bytes32"
        }
      ],
      "stateMutability": "view",
      "type": "function"
    },
    {
      "inputs": [],
      "name": "anniversaries365",
      "outputs": [
        {
          "components": [
            {
              "internalType": "uint8",
              "name": "month",
              "type": "uint8"
            },
            {
              "internalType": "uint8",
              "name": "day",
              "type": "uint8"
            },
            {
              "internalType": "string",
              "name": "name",
              "type": "string"
            },
            {
              "internalType": "string",
              "name": "description",
              "type": "string"
            },
            {
              "internalType": "string",
              "name": "author",
              "type": "string"
            },
            {
              "internalType": "string",
              "name": "authorUrl",
              "type": "string"
            },
            {
              "internalType": "bool",
              "name": "isEmpty",
              "type": "bool"
            }
          ],
          "internalType": "struct Anniversable.Anniversary[]",
          "name": "",
          "type": "tuple[]"
        }
      ],
      "stateMutability": "view",
      "type": "function"
    },
    {
      "inputs": [
        {
          "internalType": "uint256",
          "name": "tokenId",
          "type": "uint256"
        }
      ],
      "name": "anniversary",
      "outputs": [
        {
          "components": [
            {
              "internalType": "uint8",
              "name": "month",
              "type": "uint8"
            },
            {
              "internalType": "uint8",
              "name": "day",
              "type": "uint8"
            },
            {
              "internalType": "string",
              "name": "name",
              "type": "string"
            },
            {
              "internalType": "string",
              "name": "description",
              "type": "string"
            },
            {
              "internalType": "string",
              "name": "author",
              "type": "string"
            },
            {
              "internalType": "string",
              "name": "authorUrl",
              "type": "string"
            },
            {
              "internalType": "bool",
              "name": "isEmpty",
              "type": "bool"
            }
          ],
          "internalType": "struct Anniversable.Anniversary",
          "name": "",
          "type": "tuple"
        }
      ],
      "stateMutability": "view",
      "type": "function"
    },
    {
      "inputs": [
        {
          "internalType": "address",
          "name": "to",
          "type": "address"
        },
        {
          "internalType": "uint256",
          "name": "tokenId",
          "type": "uint256"
        }
      ],
      "name": "approve",
      "outputs": [],
      "stateMutability": "nonpayable",
      "type": "function"
    },
    {
      "inputs": [
        {
          "internalType": "address",
          "name": "owner",
          "type": "address"
        }
      ],
      "name": "balanceOf",
      "outputs": [
        {
          "internalType": "uint256",
          "name": "",
          "type": "uint256"
        }
      ],
      "stateMutability": "view",
      "type": "function"
    },
    {
      "inputs": [
        {
          "internalType": "uint256",
          "name": "tokenId",
          "type": "uint256"
        }
      ],
      "name": "burn",
      "outputs": [],
      "stateMutability": "nonpayable",
      "type": "function"
    },
    {
      "inputs": [
        {
          "internalType": "uint256",
          "name": "tokenId",
          "type": "uint256"
        }
      ],
      "name": "getApproved",
      "outputs": [
        {
          "internalType": "address",
          "name": "",
          "type": "address"
        }
      ],
      "stateMutability": "view",
      "type": "function"
    },
    {
      "inputs": [
        {
          "internalType": "bytes32",
          "name": "role",
          "type": "bytes32"
        }
      ],
      "name": "getRoleAdmin",
      "outputs": [
        {
          "internalType": "bytes32",
          "name": "",
          "type": "bytes32"
        }
      ],
      "stateMutability": "view",
      "type": "function"
    },
    {
      "inputs": [
        {
          "internalType": "bytes32",
          "name": "role",
          "type": "bytes32"
        },
        {
          "internalType": "uint256",
          "name": "index",
          "type": "uint256"
        }
      ],
      "name": "getRoleMember",
      "outputs": [
        {
          "internalType": "address",
          "name": "",
          "type": "address"
        }
      ],
      "stateMutability": "view",
      "type": "function"
    },
    {
      "inputs": [
        {
          "internalType": "bytes32",
          "name": "role",
          "type": "bytes32"
        }
      ],
      "name": "getRoleMemberCount",
      "outputs": [
        {
          "internalType": "uint256",
          "name": "",
          "type": "uint256"
        }
      ],
      "stateMutability": "view",
      "type": "function"
    },
    {
      "inputs": [
        {
          "internalType": "bytes32",
          "name": "role",
          "type": "bytes32"
        },
        {
          "internalType": "address",
          "name": "account",
          "type": "address"
        }
      ],
      "name": "grantRole",
      "outputs": [],
      "stateMutability": "nonpayable",
      "type": "function"
    },
    {
      "inputs": [
        {
          "internalType": "uint256",
          "name": "month",
          "type": "uint256"
        },
        {
          "internalType": "uint256",
          "name": "day",
          "type": "uint256"
        }
      ],
      "name": "hasMinted",
      "outputs": [
        {
          "internalType": "bool",
          "name": "",
          "type": "bool"
        }
      ],
      "stateMutability": "view",
      "type": "function"
    },
    {
      "inputs": [
        {
          "internalType": "bytes32",
          "name": "role",
          "type": "bytes32"
        },
        {
          "internalType": "address",
          "name": "account",
          "type": "address"
        }
      ],
      "name": "hasRole",
      "outputs": [
        {
          "internalType": "bool",
          "name": "",
          "type": "bool"
        }
      ],
      "stateMutability": "view",
      "type": "function"
    },
    {
      "inputs": [
        {
          "internalType": "address",
          "name": "owner",
          "type": "address"
        },
        {
          "internalType": "address",
          "name": "operator",
          "type": "address"
        }
      ],
      "name": "isApprovedForAll",
      "outputs": [
        {
          "internalType": "bool",
          "name": "",
          "type": "bool"
        }
      ],
      "stateMutability": "view",
      "type": "function"
    },
    {
      "inputs": [
        {
          "internalType": "address",
          "name": "_address",
          "type": "address"
        }
      ],
      "name": "isContractOwner",
      "outputs": [
        {
          "internalType": "bool",
          "name": "",
          "type": "bool"
        }
      ],
      "stateMutability": "view",
      "type": "function"
    },
    {
      "inputs": [
        {
          "internalType": "uint256",
          "name": "month",
          "type": "uint256"
        },
        {
          "internalType": "uint256",
          "name": "day",
          "type": "uint256"
        }
      ],
      "name": "isMinter",
      "outputs": [
        {
          "internalType": "bool",
          "name": "",
          "type": "bool"
        }
      ],
      "stateMutability": "view",
      "type": "function"
    },
    {
      "inputs": [
        {
          "internalType": "uint256",
          "name": "month",
          "type": "uint256"
        },
        {
          "internalType": "uint256",
          "name": "day",
          "type": "uint256"
        }
      ],
      "name": "mint",
      "outputs": [],
      "stateMutability": "payable",
      "type": "function"
    },
    {
      "inputs": [],
      "name": "name",
      "outputs": [
        {
          "internalType": "string",
          "name": "",
          "type": "string"
        }
      ],
      "stateMutability": "view",
      "type": "function"
    },
    {
      "inputs": [
        {
          "internalType": "uint256",
          "name": "tokenId",
          "type": "uint256"
        }
      ],
      "name": "ownerOf",
      "outputs": [
        {
          "internalType": "address",
          "name": "",
          "type": "address"
        }
      ],
      "stateMutability": "view",
      "type": "function"
    },
    {
      "inputs": [],
      "name": "pause",
      "outputs": [],
      "stateMutability": "nonpayable",
      "type": "function"
    },
    {
      "inputs": [],
      "name": "paused",
      "outputs": [
        {
          "internalType": "bool",
          "name": "",
          "type": "bool"
        }
      ],
      "stateMutability": "view",
      "type": "function"
    },
    {
      "inputs": [
        {
          "internalType": "bytes32",
          "name": "role",
          "type": "bytes32"
        },
        {
          "internalType": "address",
          "name": "account",
          "type": "address"
        }
      ],
      "name": "renounceRole",
      "outputs": [],
      "stateMutability": "nonpayable",
      "type": "function"
    },
    {
      "inputs": [
        {
          "internalType": "bytes32",
          "name": "role",
          "type": "bytes32"
        },
        {
          "internalType": "address",
          "name": "account",
          "type": "address"
        }
      ],
      "name": "revokeRole",
      "outputs": [],
      "stateMutability": "nonpayable",
      "type": "function"
    },
    {
      "inputs": [
        {
          "internalType": "address",
          "name": "from",
          "type": "address"
        },
        {
          "internalType": "address",
          "name": "to",
          "type": "address"
        },
        {
          "internalType": "uint256",
          "name": "tokenId",
          "type": "uint256"
        }
      ],
      "name": "safeTransferFrom",
      "outputs": [],
      "stateMutability": "nonpayable",
      "type": "function"
    },
    {
      "inputs": [
        {
          "internalType": "address",
          "name": "from",
          "type": "address"
        },
        {
          "internalType": "address",
          "name": "to",
          "type": "address"
        },
        {
          "internalType": "uint256",
          "name": "tokenId",
          "type": "uint256"
        },
        {
          "internalType": "bytes",
          "name": "data",
          "type": "bytes"
        }
      ],
      "name": "safeTransferFrom",
      "outputs": [],
      "stateMutability": "nonpayable",
      "type": "function"
    },
    {
      "inputs": [
        {
          "internalType": "uint256",
          "name": "tokenId",
          "type": "uint256"
        },
        {
          "internalType": "string",
          "name": "_name",
          "type": "string"
        },
        {
          "internalType": "string",
          "name": "_description",
          "type": "string"
        },
        {
          "internalType": "string",
          "name": "_author",
          "type": "string"
        },
        {
          "internalType": "string",
          "name": "_authorUrl",
          "type": "string"
        }
      ],
      "name": "setAnniversary",
      "outputs": [],
      "stateMutability": "nonpayable",
      "type": "function"
    },
    {
      "inputs": [
        {
          "internalType": "address",
          "name": "operator",
          "type": "address"
        },
        {
          "internalType": "bool",
          "name": "approved",
          "type": "bool"
        }
      ],
      "name": "setApprovalForAll",
      "outputs": [],
      "stateMutability": "nonpayable",
      "type": "function"
    },
    {
      "inputs": [
        {
          "internalType": "bytes4",
          "name": "interfaceId",
          "type": "bytes4"
        }
      ],
      "name": "supportsInterface",
      "outputs": [
        {
          "internalType": "bool",
          "name": "",
          "type": "bool"
        }
      ],
      "stateMutability": "view",
      "type": "function"
    },
    {
      "inputs": [],
      "name": "symbol",
      "outputs": [
        {
          "internalType": "string",
          "name": "",
          "type": "string"
        }
      ],
      "stateMutability": "view",
      "type": "function"
    },
    {
      "inputs": [
        {
          "internalType": "uint256",
          "name": "index",
          "type": "uint256"
        }
      ],
      "name": "tokenByIndex",
      "outputs": [
        {
          "internalType": "uint256",
          "name": "",
          "type": "uint256"
        }
      ],
      "stateMutability": "view",
      "type": "function"
    },
    {
      "inputs": [
        {
          "internalType": "address",
          "name": "owner",
          "type": "address"
        },
        {
          "internalType": "uint256",
          "name": "index",
          "type": "uint256"
        }
      ],
      "name": "tokenOfOwnerByIndex",
      "outputs": [
        {
          "internalType": "uint256",
          "name": "",
          "type": "uint256"
        }
      ],
      "stateMutability": "view",
      "type": "function"
    },
    {
      "inputs": [
        {
          "internalType": "uint256",
          "name": "tokenId",
          "type": "uint256"
        }
      ],
      "name": "tokenURI",
      "outputs": [
        {
          "internalType": "string",
          "name": "",
          "type": "string"
        }
      ],
      "stateMutability": "view",
      "type": "function"
    },
    {
      "inputs": [],
      "name": "totalSupply",
      "outputs": [
        {
          "internalType": "uint256",
          "name": "",
          "type": "uint256"
        }
      ],
      "stateMutability": "view",
      "type": "function"
    },
    {
      "inputs": [
        {
          "internalType": "address",
          "name": "from",
          "type": "address"
        },
        {
          "internalType": "address",
          "name": "to",
          "type": "address"
        },
        {
          "internalType": "uint256",
          "name": "tokenId",
          "type": "uint256"
        }
      ],
      "name": "transferFrom",
      "outputs": [],
      "stateMutability": "nonpayable",
      "type": "function"
    },
    {
      "inputs": [],
      "name": "unpause",
      "outputs": [],
      "stateMutability": "nonpayable",
      "type": "function"
    }
  ],
  "bytecode": "0x60806040526040518060600160405280602a8152602001620063aa602a9139601090805190602001906200003592919062000450565b503480156200004357600080fd5b506040518060400160405280600b81526020017f416e6e69766572736172790000000000000000000000000000000000000000008152506040518060400160405280600981526020017f414e4e49564552534500000000000000000000000000000000000000000000008152508160029080519060200190620000c892919062000450565b508060039080519060200190620000e192919062000450565b5050506000600c60006101000a81548160ff0219169083151502179055506200010f620001ba60201b60201c565b600f60006101000a81548173ffffffffffffffffffffffffffffffffffffffff021916908373ffffffffffffffffffffffffffffffffffffffff160217905550620001736000801b62000167620001ba60201b60201c565b620001c260201b60201c565b620001b47f65d7a28e3265b37a6474929f336521b332c1681b933f6cb9f3376673440d862a620001a8620001ba60201b60201c565b620001c260201b60201c565b62000565565b600033905090565b620001d48282620001d860201b60201c565b5050565b620001ef82826200022060201b62001d801760201c565b6200021b81600160008581526020019081526020016000206200031160201b62001e601790919060201c565b505050565b6200023282826200034960201b60201c565b6200030d57600160008084815260200190815260200160002060000160008373ffffffffffffffffffffffffffffffffffffffff1673ffffffffffffffffffffffffffffffffffffffff16815260200190815260200160002060006101000a81548160ff021916908315150217905550620002b2620001ba60201b60201c565b73ffffffffffffffffffffffffffffffffffffffff168173ffffffffffffffffffffffffffffffffffffffff16837f2f8788117e7eff1d82e926ec794901d17c78024a50270940304540a733656f0d60405160405180910390a45b5050565b600062000341836000018373ffffffffffffffffffffffffffffffffffffffff1660001b620003b360201b60201c565b905092915050565b600080600084815260200190815260200160002060000160008373ffffffffffffffffffffffffffffffffffffffff1673ffffffffffffffffffffffffffffffffffffffff16815260200190815260200160002060009054906101000a900460ff16905092915050565b6000620003c783836200042d60201b60201c565b6200042257826000018290806001815401808255809150506001900390600052602060002001600090919091909150558260000180549050836001016000848152602001908152602001600020819055506001905062000427565b600090505b92915050565b600080836001016000848152602001908152602001600020541415905092915050565b8280546200045e906200052f565b90600052602060002090601f016020900481019282620004825760008555620004ce565b82601f106200049d57805160ff1916838001178555620004ce565b82800160010185558215620004ce579182015b82811115620004cd578251825591602001919060010190620004b0565b5b509050620004dd9190620004e1565b5090565b5b80821115620004fc576000816000905550600101620004e2565b5090565b7f4e487b7100000000000000000000000000000000000000000000000000000000600052602260045260246000fd5b600060028204905060018216806200054857607f821691505b602082108114156200055f576200055e62000500565b5b50919050565b615e3580620005756000396000f3fe60806040526004361061020f5760003560e01c80636352211e11610118578063b1cf0559116100a0578063d547741f1161006f578063d547741f146107ea578063d65b7b1214610813578063de11768814610850578063e63ab1e91461088d578063e985e9c5146108b85761020f565b8063b1cf05591461071c578063b88d4fde14610747578063c87b56dd14610770578063ca15c873146107ad5761020f565b806391d14854116100e757806391d14854146106375780639302fae91461067457806395d89b411461069d578063a217fddf146106c8578063a22cb465146106f35761020f565b80636352211e1461056957806370a08231146105a65780638456cb59146105e35780639010d07c146105fa5761020f565b80632f2ff15d1161019b5780634001935f1161016a5780634001935f1461047257806342842e0e146104af57806342966c68146104d85780634f6ccce7146105015780635c975abb1461053e5761020f565b80632f2ff15d146103cc5780632f745c59146103f557806336568abe146104325780633f4ba83a1461045b5761020f565b806318160ddd116101e257806318160ddd146102e25780631b2ef1ca1461030d5780631fdc4fd71461032957806323b872dd14610366578063248a9ca31461038f5761020f565b806301ffc9a71461021457806306fdde0314610251578063081812fc1461027c578063095ea7b3146102b9575b600080fd5b34801561022057600080fd5b5061023b60048036038101906102369190613d8c565b6108f5565b6040516102489190613dd4565b60405180910390f35b34801561025d57600080fd5b50610266610907565b6040516102739190613e88565b60405180910390f35b34801561028857600080fd5b506102a3600480360381019061029e9190613ee0565b610999565b6040516102b09190613f4e565b60405180910390f35b3480156102c557600080fd5b506102e060048036038101906102db9190613f95565b6109df565b005b3480156102ee57600080fd5b506102f7610af7565b6040516103049190613fe4565b60405180910390f35b61032760048036038101906103229190613fff565b610b04565b005b34801561033557600080fd5b50610350600480360381019061034b9190613fff565b610c2e565b60405161035d9190613dd4565b60405180910390f35b34801561037257600080fd5b5061038d6004803603810190610388919061403f565b610c5d565b005b34801561039b57600080fd5b506103b660048036038101906103b191906140c8565b610cbd565b6040516103c39190614104565b60405180910390f35b3480156103d857600080fd5b506103f360048036038101906103ee919061411f565b610cdc565b005b34801561040157600080fd5b5061041c60048036038101906104179190613f95565b610cfd565b6040516104299190613fe4565b60405180910390f35b34801561043e57600080fd5b506104596004803603810190610454919061411f565b610da2565b005b34801561046757600080fd5b50610470610e25565b005b34801561047e57600080fd5b5061049960048036038101906104949190613ee0565b610e9f565b6040516104a69190614285565b60405180910390f35b3480156104bb57600080fd5b506104d660048036038101906104d1919061403f565b611216565b005b3480156104e457600080fd5b506104ff60048036038101906104fa9190613ee0565b611236565b005b34801561050d57600080fd5b5061052860048036038101906105239190613ee0565b611292565b6040516105359190613fe4565b60405180910390f35b34801561054a57600080fd5b50610553611303565b6040516105609190613dd4565b60405180910390f35b34801561057557600080fd5b50610590600480360381019061058b9190613ee0565b61131a565b60405161059d9190613f4e565b60405180910390f35b3480156105b257600080fd5b506105cd60048036038101906105c891906142a7565b6113cc565b6040516105da9190613fe4565b60405180910390f35b3480156105ef57600080fd5b506105f8611484565b005b34801561060657600080fd5b50610621600480360381019061061c91906142d4565b6114fe565b60405161062e9190613f4e565b60405180910390f35b34801561064357600080fd5b5061065e6004803603810190610659919061411f565b61152d565b60405161066b9190613dd4565b60405180910390f35b34801561068057600080fd5b5061069b60048036038101906106969190614449565b611597565b005b3480156106a957600080fd5b506106b2611912565b6040516106bf9190613e88565b60405180910390f35b3480156106d457600080fd5b506106dd6119a4565b6040516106ea9190614104565b60405180910390f35b3480156106ff57600080fd5b5061071a60048036038101906107159190614560565b6119ab565b005b34801561072857600080fd5b506107316119c1565b60405161073e9190614713565b60405180910390f35b34801561075357600080fd5b5061076e600480360381019061076991906147d6565b611ae3565b005b34801561077c57600080fd5b5061079760048036038101906107929190613ee0565b611b45565b6040516107a49190613e88565b60405180910390f35b3480156107b957600080fd5b506107d460048036038101906107cf91906140c8565b611bad565b6040516107e19190613fe4565b60405180910390f35b3480156107f657600080fd5b50610811600480360381019061080c919061411f565b611bd1565b005b34801561081f57600080fd5b5061083a60048036038101906108359190613fff565b611bf2565b6040516108479190613dd4565b60405180910390f35b34801561085c57600080fd5b50610877600480360381019061087291906142a7565b611c6e565b6040516108849190613dd4565b60405180910390f35b34801561089957600080fd5b506108a2611cc8565b6040516108af9190614104565b60405180910390f35b3480156108c457600080fd5b506108df60048036038101906108da9190614859565b611cec565b6040516108ec9190613dd4565b60405180910390f35b600061090082611e90565b9050919050565b606060028054610916906148c8565b80601f0160208091040260200160405190810160405280929190818152602001828054610942906148c8565b801561098f5780601f106109645761010080835404028352916020019161098f565b820191906000526020600020905b81548152906001019060200180831161097257829003601f168201915b5050505050905090565b60006109a482611f0a565b6006600083815260200190815260200160002060009054906101000a900473ffffffffffffffffffffffffffffffffffffffff169050919050565b60006109ea8261131a565b90508073ffffffffffffffffffffffffffffffffffffffff168373ffffffffffffffffffffffffffffffffffffffff161415610a5b576040517f08c379a0000000000000000000000000000000000000000000000000000000008152600401610a529061496c565b60405180910390fd5b8073ffffffffffffffffffffffffffffffffffffffff16610a7a611f55565b73ffffffffffffffffffffffffffffffffffffffff161480610aa95750610aa881610aa3611f55565b611cec565b5b610ae8576040517f08c379a0000000000000000000000000000000000000000000000000000000008152600401610adf906149fe565b60405180910390fd5b610af28383611f5d565b505050565b6000600a80549050905090565b6000610b0e612016565b9050803414610b52576040517f08c379a0000000000000000000000000000000000000000000000000000000008152600401610b4990614a6a565b60405180910390fd5b600083118015610b635750600c8311155b610ba2576040517f08c379a0000000000000000000000000000000000000000000000000000000008152600401610b9990614ad6565b60405180910390fd5b600082118015610bb35750601f8211155b610bf2576040517f08c379a0000000000000000000000000000000000000000000000000000000008152600401610be990614b42565b60405180910390fd5b610bfb81612075565b600082606485610c0b9190614b91565b610c159190614beb565b9050610c28610c22611f55565b826120f1565b50505050565b60008082606485610c3f9190614b91565b610c499190614beb565b9050610c54816122cb565b91505092915050565b610c6e610c68611f55565b82612337565b610cad576040517f08c379a0000000000000000000000000000000000000000000000000000000008152600401610ca490614cb3565b60405180910390fd5b610cb88383836123cc565b505050565b6000806000838152602001908152602001600020600101549050919050565b610ce582610cbd565b610cee81612633565b610cf88383612647565b505050565b6000610d08836113cc565b8210610d49576040517f08c379a0000000000000000000000000000000000000000000000000000000008152600401610d4090614d45565b60405180910390fd5b600860008473ffffffffffffffffffffffffffffffffffffffff1673ffffffffffffffffffffffffffffffffffffffff168152602001908152602001600020600083815260200190815260200160002054905092915050565b610daa611f55565b73ffffffffffffffffffffffffffffffffffffffff168173ffffffffffffffffffffffffffffffffffffffff1614610e17576040517f08c379a0000000000000000000000000000000000000000000000000000000008152600401610e0e90614dd7565b60405180910390fd5b610e21828261267b565b5050565b610e567f65d7a28e3265b37a6474929f336521b332c1681b933f6cb9f3376673440d862a610e51611f55565b61152d565b610e95576040517f08c379a0000000000000000000000000000000000000000000000000000000008152600401610e8c90614e69565b60405180910390fd5b610e9d6126af565b565b610ea7613c38565b6000606483610eb69190614eb8565b90506000606484610ec79190614ee9565b9050610ed284612712565b15611194576040518060e001604052808360ff1681526020018260ff168152602001600d60008781526020019081526020016000206000018054610f15906148c8565b80601f0160208091040260200160405190810160405280929190818152602001828054610f41906148c8565b8015610f8e5780601f10610f6357610100808354040283529160200191610f8e565b820191906000526020600020905b815481529060010190602001808311610f7157829003601f168201915b50505050508152602001600d60008781526020019081526020016000206001018054610fb9906148c8565b80601f0160208091040260200160405190810160405280929190818152602001828054610fe5906148c8565b80156110325780601f1061100757610100808354040283529160200191611032565b820191906000526020600020905b81548152906001019060200180831161101557829003601f168201915b50505050508152602001600d6000878152602001908152602001600020600201805461105d906148c8565b80601f0160208091040260200160405190810160405280929190818152602001828054611089906148c8565b80156110d65780601f106110ab576101008083540402835291602001916110d6565b820191906000526020600020905b8154815290600101906020018083116110b957829003601f168201915b50505050508152602001600d60008781526020019081526020016000206003018054611101906148c8565b80601f016020809104026020016040519081016040528092919081815260200182805461112d906148c8565b801561117a5780601f1061114f5761010080835404028352916020019161117a565b820191906000526020600020905b81548152906001019060200180831161115d57829003601f168201915b505050505081526020016000151581525092505050611211565b6040518060e001604052808360ff1681526020018260ff16815260200160405180602001604052806000815250815260200160405180602001604052806000815250815260200160405180602001604052806000815250815260200160405180602001604052806000815250815260200160011515815250925050505b919050565b61123183838360405180602001604052806000815250611ae3565b505050565b611247611241611f55565b82612337565b611286576040517f08c379a000000000000000000000000000000000000000000000000000000000815260040161127d90614cb3565b60405180910390fd5b61128f816127c3565b50565b600061129c610af7565b82106112dd576040517f08c379a00000000000000000000000000000000000000000000000000000000081526004016112d490614f8c565b60405180910390fd5b600a82815481106112f1576112f0614fac565b5b90600052602060002001549050919050565b6000600c60009054906101000a900460ff16905090565b6000806004600084815260200190815260200160002060009054906101000a900473ffffffffffffffffffffffffffffffffffffffff169050600073ffffffffffffffffffffffffffffffffffffffff168173ffffffffffffffffffffffffffffffffffffffff1614156113c3576040517f08c379a00000000000000000000000000000000000000000000000000000000081526004016113ba90615027565b60405180910390fd5b80915050919050565b60008073ffffffffffffffffffffffffffffffffffffffff168273ffffffffffffffffffffffffffffffffffffffff16141561143d576040517f08c379a0000000000000000000000000000000000000000000000000000000008152600401611434906150b9565b60405180910390fd5b600560008373ffffffffffffffffffffffffffffffffffffffff1673ffffffffffffffffffffffffffffffffffffffff168152602001908152602001600020549050919050565b6114b57f65d7a28e3265b37a6474929f336521b332c1681b933f6cb9f3376673440d862a6114b0611f55565b61152d565b6114f4576040517f08c379a00000000000000000000000000000000000000000000000000000000081526004016114eb9061514b565b60405180910390fd5b6114fc6128e0565b565b6000611525826001600086815260200190815260200160002061294390919063ffffffff16565b905092915050565b600080600084815260200190815260200160002060000160008373ffffffffffffffffffffffffffffffffffffffff1673ffffffffffffffffffffffffffffffffffffffff16815260200190815260200160002060009054906101000a900460ff16905092915050565b6115a085611f0a565b60006115ab8661131a565b90503373ffffffffffffffffffffffffffffffffffffffff168173ffffffffffffffffffffffffffffffffffffffff161461161b576040517f08c379a0000000000000000000000000000000000000000000000000000000008152600401611612906151b7565b60405180910390fd5b60008590506000815111611664576040517f08c379a000000000000000000000000000000000000000000000000000000000815260040161165b90615223565b60405180910390fd5b6080815111156116a9576040517f08c379a00000000000000000000000000000000000000000000000000000000081526004016116a09061528f565b60405180910390fd5b6000859050610200815111156116f4576040517f08c379a00000000000000000000000000000000000000000000000000000000081526004016116eb90615321565b60405180910390fd5b6000859050600081511161173d576040517f08c379a00000000000000000000000000000000000000000000000000000000081526004016117349061538d565b60405180910390fd5b608081511115611782576040517f08c379a0000000000000000000000000000000000000000000000000000000008152600401611779906153f9565b60405180910390fd5b600085905060008151116117cb576040517f08c379a00000000000000000000000000000000000000000000000000000000081526004016117c290615465565b60405180910390fd5b61020081511115611811576040517f08c379a0000000000000000000000000000000000000000000000000000000008152600401611808906154f7565b60405180910390fd5b60405180608001604052808a815260200189815260200188815260200187815250600d60008c81526020019081526020016000206000820151816000019080519060200190611861929190613c7d565b50602082015181600101908051906020019061187e929190613c7d565b50604082015181600201908051906020019061189b929190613c7d565b5060608201518160030190805190602001906118b8929190613c7d565b50905050897f469c871f252afc0b943e5a58cc28eb9b9d731f96079d3e71309c78feb01eb1a5600d60008d81526020019081526020016000206040516118fe9190615622565b60405180910390a250505050505050505050565b606060038054611921906148c8565b80601f016020809104026020016040519081016040528092919081815260200182805461194d906148c8565b801561199a5780601f1061196f5761010080835404028352916020019161199a565b820191906000526020600020905b81548152906001019060200180831161197d57829003601f168201915b5050505050905090565b6000801b81565b6119bd6119b6611f55565b838361295d565b5050565b6060600061017467ffffffffffffffff8111156119e1576119e061431e565b5b604051908082528060200260200182016040528015611a1a57816020015b611a07613c38565b8152602001906001900390816119ff5790505b5090506000600190505b600c8111611adb576000600190505b601f8111611ac7576000600182601f600186611a4f9190615644565b611a599190614b91565b611a639190614beb565b611a6d9190615644565b9050600082606485611a7f9190614b91565b611a899190614beb565b9050611a9481610e9f565b858381518110611aa757611aa6614fac565b5b602002602001018190525050508080611abf90615678565b915050611a33565b508080611ad390615678565b915050611a24565b508091505090565b611af4611aee611f55565b83612337565b611b33576040517f08c379a0000000000000000000000000000000000000000000000000000000008152600401611b2a90614cb3565b60405180910390fd5b611b3f84848484612aca565b50505050565b6060611b5082611f0a565b6000611b5a612b26565b90506000815111611b7a5760405180602001604052806000815250611ba5565b80611b8484612bb8565b604051602001611b959291906156fd565b6040516020818303038152906040525b915050919050565b6000611bca60016000848152602001908152602001600020612d19565b9050919050565b611bda82610cbd565b611be381612633565b611bed838361267b565b505050565b60008082606485611c039190614b91565b611c0d9190614beb565b9050611c18816122cb565b611c26576000915050611c68565b611c2e611f55565b73ffffffffffffffffffffffffffffffffffffffff16611c4d8261131a565b73ffffffffffffffffffffffffffffffffffffffff16149150505b92915050565b60008173ffffffffffffffffffffffffffffffffffffffff16600f60009054906101000a900473ffffffffffffffffffffffffffffffffffffffff1673ffffffffffffffffffffffffffffffffffffffff16149050919050565b7f65d7a28e3265b37a6474929f336521b332c1681b933f6cb9f3376673440d862a81565b6000600760008473ffffffffffffffffffffffffffffffffffffffff1673ffffffffffffffffffffffffffffffffffffffff16815260200190815260200160002060008373ffffffffffffffffffffffffffffffffffffffff1673ffffffffffffffffffffffffffffffffffffffff16815260200190815260200160002060009054906101000a900460ff16905092915050565b611d8a828261152d565b611e5c57600160008084815260200190815260200160002060000160008373ffffffffffffffffffffffffffffffffffffffff1673ffffffffffffffffffffffffffffffffffffffff16815260200190815260200160002060006101000a81548160ff021916908315150217905550611e01611f55565b73ffffffffffffffffffffffffffffffffffffffff168173ffffffffffffffffffffffffffffffffffffffff16837f2f8788117e7eff1d82e926ec794901d17c78024a50270940304540a733656f0d60405160405180910390a45b5050565b6000611e88836000018373ffffffffffffffffffffffffffffffffffffffff1660001b612d2e565b905092915050565b60007f780e9d63000000000000000000000000000000000000000000000000000000007bffffffffffffffffffffffffffffffffffffffffffffffffffffffff1916827bffffffffffffffffffffffffffffffffffffffffffffffffffffffff19161480611f035750611f0282612d9e565b5b9050919050565b611f13816122cb565b611f52576040517f08c379a0000000000000000000000000000000000000000000000000000000008152600401611f4990615027565b60405180910390fd5b50565b600033905090565b816006600083815260200190815260200160002060006101000a81548173ffffffffffffffffffffffffffffffffffffffff021916908373ffffffffffffffffffffffffffffffffffffffff160217905550808273ffffffffffffffffffffffffffffffffffffffff16611fd08361131a565b73ffffffffffffffffffffffffffffffffffffffff167f8c5be1e5ebec7d5bd14f71427d1e84f3dd0314c0f7b2291e5b200ac8c7c3b92560405160405180910390a45050565b600080612023600e612e80565b90506000610109821061204057670de0b6b3a7640000905061206d565b60a58210612058576706f05b59d3b20000905061206c565b6064821061206b5766b1a2bc2ec5000090505b5b5b809250505090565b6000600f60009054906101000a900473ffffffffffffffffffffffffffffffffffffffff1690508073ffffffffffffffffffffffffffffffffffffffff166108fc839081150290604051600060405180830381858888f193505050501580156120e2573d6000803e3d6000fd5b506120ed600e612e8e565b5050565b600073ffffffffffffffffffffffffffffffffffffffff168273ffffffffffffffffffffffffffffffffffffffff161415612161576040517f08c379a00000000000000000000000000000000000000000000000000000000081526004016121589061576d565b60405180910390fd5b61216a816122cb565b156121aa576040517f08c379a00000000000000000000000000000000000000000000000000000000081526004016121a1906157d9565b60405180910390fd5b6121b660008383612ea4565b6001600560008473ffffffffffffffffffffffffffffffffffffffff1673ffffffffffffffffffffffffffffffffffffffff16815260200190815260200160002060008282546122069190614beb565b92505081905550816004600083815260200190815260200160002060006101000a81548173ffffffffffffffffffffffffffffffffffffffff021916908373ffffffffffffffffffffffffffffffffffffffff160217905550808273ffffffffffffffffffffffffffffffffffffffff16600073ffffffffffffffffffffffffffffffffffffffff167fddf252ad1be2c89b69c2b068fc378daa952ba7f163c4a11628f55a4df523b3ef60405160405180910390a46122c760008383612eb4565b5050565b60008073ffffffffffffffffffffffffffffffffffffffff166004600084815260200190815260200160002060009054906101000a900473ffffffffffffffffffffffffffffffffffffffff1673ffffffffffffffffffffffffffffffffffffffff1614159050919050565b6000806123438361131a565b90508073ffffffffffffffffffffffffffffffffffffffff168473ffffffffffffffffffffffffffffffffffffffff16148061238557506123848185611cec565b5b806123c357508373ffffffffffffffffffffffffffffffffffffffff166123ab84610999565b73ffffffffffffffffffffffffffffffffffffffff16145b91505092915050565b8273ffffffffffffffffffffffffffffffffffffffff166123ec8261131a565b73ffffffffffffffffffffffffffffffffffffffff1614612442576040517f08c379a00000000000000000000000000000000000000000000000000000000081526004016124399061586b565b60405180910390fd5b600073ffffffffffffffffffffffffffffffffffffffff168273ffffffffffffffffffffffffffffffffffffffff1614156124b2576040517f08c379a00000000000000000000000000000000000000000000000000000000081526004016124a9906158fd565b60405180910390fd5b6124bd838383612ea4565b6124c8600082611f5d565b6001600560008573ffffffffffffffffffffffffffffffffffffffff1673ffffffffffffffffffffffffffffffffffffffff16815260200190815260200160002060008282546125189190615644565b925050819055506001600560008473ffffffffffffffffffffffffffffffffffffffff1673ffffffffffffffffffffffffffffffffffffffff168152602001908152602001600020600082825461256f9190614beb565b92505081905550816004600083815260200190815260200160002060006101000a81548173ffffffffffffffffffffffffffffffffffffffff021916908373ffffffffffffffffffffffffffffffffffffffff160217905550808273ffffffffffffffffffffffffffffffffffffffff168473ffffffffffffffffffffffffffffffffffffffff167fddf252ad1be2c89b69c2b068fc378daa952ba7f163c4a11628f55a4df523b3ef60405160405180910390a461262e838383612eb4565b505050565b6126448161263f611f55565b612eb9565b50565b6126518282611d80565b6126768160016000858152602001908152602001600020611e6090919063ffffffff16565b505050565b6126858282612f56565b6126aa816001600085815260200190815260200160002061303790919063ffffffff16565b505050565b6126b7613067565b6000600c60006101000a81548160ff0219169083151502179055507f5db9ee0a495bf2e6ff9c91a7834c1ba4fdd244a5e8aa4e537bd38aeae4b073aa6126fb611f55565b6040516127089190613f4e565b60405180910390a1565b600080600d60008481526020019081526020016000206000018054612736906148c8565b80601f0160208091040260200160405190810160405280929190818152602001828054612762906148c8565b80156127af5780601f10612784576101008083540402835291602001916127af565b820191906000526020600020905b81548152906001019060200180831161279257829003601f168201915b505050505090506000815111915050919050565b60006127ce8261131a565b90506127dc81600084612ea4565b6127e7600083611f5d565b6001600560008373ffffffffffffffffffffffffffffffffffffffff1673ffffffffffffffffffffffffffffffffffffffff16815260200190815260200160002060008282546128379190615644565b925050819055506004600083815260200190815260200160002060006101000a81549073ffffffffffffffffffffffffffffffffffffffff021916905581600073ffffffffffffffffffffffffffffffffffffffff168273ffffffffffffffffffffffffffffffffffffffff167fddf252ad1be2c89b69c2b068fc378daa952ba7f163c4a11628f55a4df523b3ef60405160405180910390a46128dc81600084612eb4565b5050565b6128e86130b0565b6001600c60006101000a81548160ff0219169083151502179055507f62e78cea01bee320cd4e420270b5ea74000d11b0c9f74754ebdbfc544b05a25861292c611f55565b6040516129399190613f4e565b60405180910390a1565b600061295283600001836130fa565b60001c905092915050565b8173ffffffffffffffffffffffffffffffffffffffff168373ffffffffffffffffffffffffffffffffffffffff1614156129cc576040517f08c379a00000000000000000000000000000000000000000000000000000000081526004016129c390615969565b60405180910390fd5b80600760008573ffffffffffffffffffffffffffffffffffffffff1673ffffffffffffffffffffffffffffffffffffffff16815260200190815260200160002060008473ffffffffffffffffffffffffffffffffffffffff1673ffffffffffffffffffffffffffffffffffffffff16815260200190815260200160002060006101000a81548160ff0219169083151502179055508173ffffffffffffffffffffffffffffffffffffffff168373ffffffffffffffffffffffffffffffffffffffff167f17307eab39ab6107e8899845ad3d59bd9653f200f220920489ca2b5937696c3183604051612abd9190613dd4565b60405180910390a3505050565b612ad58484846123cc565b612ae184848484613125565b612b20576040517f08c379a0000000000000000000000000000000000000000000000000000000008152600401612b17906159fb565b60405180910390fd5b50505050565b606060108054612b35906148c8565b80601f0160208091040260200160405190810160405280929190818152602001828054612b61906148c8565b8015612bae5780601f10612b8357610100808354040283529160200191612bae565b820191906000526020600020905b815481529060010190602001808311612b9157829003601f168201915b5050505050905090565b60606000821415612c00576040518060400160405280600181526020017f30000000000000000000000000000000000000000000000000000000000000008152509050612d14565b600082905060005b60008214612c32578080612c1b90615678565b915050600a82612c2b9190614eb8565b9150612c08565b60008167ffffffffffffffff811115612c4e57612c4d61431e565b5b6040519080825280601f01601f191660200182016040528015612c805781602001600182028036833780820191505090505b5090505b60008514612d0d57600182612c999190615644565b9150600a85612ca89190614ee9565b6030612cb49190614beb565b60f81b818381518110612cca57612cc9614fac565b5b60200101907effffffffffffffffffffffffffffffffffffffffffffffffffffffffffffff1916908160001a905350600a85612d069190614eb8565b9450612c84565b8093505050505b919050565b6000612d27826000016132bc565b9050919050565b6000612d3a83836132cd565b612d93578260000182908060018154018082558091505060019003906000526020600020016000909190919091505582600001805490508360010160008481526020019081526020016000208190555060019050612d98565b600090505b92915050565b60007f80ac58cd000000000000000000000000000000000000000000000000000000007bffffffffffffffffffffffffffffffffffffffffffffffffffffffff1916827bffffffffffffffffffffffffffffffffffffffffffffffffffffffff19161480612e6957507f5b5e139f000000000000000000000000000000000000000000000000000000007bffffffffffffffffffffffffffffffffffffffffffffffffffffffff1916827bffffffffffffffffffffffffffffffffffffffffffffffffffffffff1916145b80612e795750612e78826132f0565b5b9050919050565b600081600001549050919050565b6001816000016000828254019250508190555050565b612eaf83838361336a565b505050565b505050565b612ec3828261152d565b612f5257612ee88173ffffffffffffffffffffffffffffffffffffffff1660146133c2565b612ef68360001c60206133c2565b604051602001612f07929190615ab3565b6040516020818303038152906040526040517f08c379a0000000000000000000000000000000000000000000000000000000008152600401612f499190613e88565b60405180910390fd5b5050565b612f60828261152d565b1561303357600080600084815260200190815260200160002060000160008373ffffffffffffffffffffffffffffffffffffffff1673ffffffffffffffffffffffffffffffffffffffff16815260200190815260200160002060006101000a81548160ff021916908315150217905550612fd8611f55565b73ffffffffffffffffffffffffffffffffffffffff168173ffffffffffffffffffffffffffffffffffffffff16837ff6391f5c32d9c69d2a47ea670b442974b53935d1edc7fd64eb21e047a839171b60405160405180910390a45b5050565b600061305f836000018373ffffffffffffffffffffffffffffffffffffffff1660001b6135fe565b905092915050565b61306f611303565b6130ae576040517f08c379a00000000000000000000000000000000000000000000000000000000081526004016130a590615b39565b60405180910390fd5b565b6130b8611303565b156130f8576040517f08c379a00000000000000000000000000000000000000000000000000000000081526004016130ef90615ba5565b60405180910390fd5b565b600082600001828154811061311257613111614fac565b5b9060005260206000200154905092915050565b60006131468473ffffffffffffffffffffffffffffffffffffffff16613712565b156132af578373ffffffffffffffffffffffffffffffffffffffff1663150b7a0261316f611f55565b8786866040518563ffffffff1660e01b81526004016131919493929190615c1a565b602060405180830381600087803b1580156131ab57600080fd5b505af19250505080156131dc57506040513d601f19601f820116820180604052508101906131d99190615c7b565b60015b61325f573d806000811461320c576040519150601f19603f3d011682016040523d82523d6000602084013e613211565b606091505b50600081511415613257576040517f08c379a000000000000000000000000000000000000000000000000000000000815260040161324e906159fb565b60405180910390fd5b805181602001fd5b63150b7a0260e01b7bffffffffffffffffffffffffffffffffffffffffffffffffffffffff1916817bffffffffffffffffffffffffffffffffffffffffffffffffffffffff1916149150506132b4565b600190505b949350505050565b600081600001805490509050919050565b600080836001016000848152602001908152602001600020541415905092915050565b60007f5a05180f000000000000000000000000000000000000000000000000000000007bffffffffffffffffffffffffffffffffffffffffffffffffffffffff1916827bffffffffffffffffffffffffffffffffffffffffffffffffffffffff19161480613363575061336282613735565b5b9050919050565b6133758383836137af565b61337d611303565b156133bd576040517f08c379a00000000000000000000000000000000000000000000000000000000081526004016133b490615d1a565b60405180910390fd5b505050565b6060600060028360026133d59190614b91565b6133df9190614beb565b67ffffffffffffffff8111156133f8576133f761431e565b5b6040519080825280601f01601f19166020018201604052801561342a5781602001600182028036833780820191505090505b5090507f30000000000000000000000000000000000000000000000000000000000000008160008151811061346257613461614fac565b5b60200101907effffffffffffffffffffffffffffffffffffffffffffffffffffffffffffff1916908160001a9053507f7800000000000000000000000000000000000000000000000000000000000000816001815181106134c6576134c5614fac565b5b60200101907effffffffffffffffffffffffffffffffffffffffffffffffffffffffffffff1916908160001a905350600060018460026135069190614b91565b6135109190614beb565b90505b60018111156135b0577f3031323334353637383961626364656600000000000000000000000000000000600f86166010811061355257613551614fac565b5b1a60f81b82828151811061356957613568614fac565b5b60200101907effffffffffffffffffffffffffffffffffffffffffffffffffffffffffffff1916908160001a905350600485901c9450806135a990615d3a565b9050613513565b50600084146135f4576040517f08c379a00000000000000000000000000000000000000000000000000000000081526004016135eb90615db0565b60405180910390fd5b8091505092915050565b600080836001016000848152602001908152602001600020549050600081146137065760006001826136309190615644565b90506000600186600001805490506136489190615644565b90508181146136b757600086600001828154811061366957613668614fac565b5b906000526020600020015490508087600001848154811061368d5761368c614fac565b5b90600052602060002001819055508387600101600083815260200190815260200160002081905550505b856000018054806136cb576136ca615dd0565b5b60019003818190600052602060002001600090559055856001016000868152602001908152602001600020600090556001935050505061370c565b60009150505b92915050565b6000808273ffffffffffffffffffffffffffffffffffffffff163b119050919050565b60007f7965db0b000000000000000000000000000000000000000000000000000000007bffffffffffffffffffffffffffffffffffffffffffffffffffffffff1916827bffffffffffffffffffffffffffffffffffffffffffffffffffffffff191614806137a857506137a7826138c3565b5b9050919050565b6137ba83838361392d565b600073ffffffffffffffffffffffffffffffffffffffff168373ffffffffffffffffffffffffffffffffffffffff1614156137fd576137f881613932565b61383c565b8173ffffffffffffffffffffffffffffffffffffffff168373ffffffffffffffffffffffffffffffffffffffff161461383b5761383a838261397b565b5b5b600073ffffffffffffffffffffffffffffffffffffffff168273ffffffffffffffffffffffffffffffffffffffff16141561387f5761387a81613ae8565b6138be565b8273ffffffffffffffffffffffffffffffffffffffff168273ffffffffffffffffffffffffffffffffffffffff16146138bd576138bc8282613bb9565b5b5b505050565b60007f01ffc9a7000000000000000000000000000000000000000000000000000000007bffffffffffffffffffffffffffffffffffffffffffffffffffffffff1916827bffffffffffffffffffffffffffffffffffffffffffffffffffffffff1916149050919050565b505050565b600a80549050600b600083815260200190815260200160002081905550600a81908060018154018082558091505060019003906000526020600020016000909190919091505550565b60006001613988846113cc565b6139929190615644565b9050600060096000848152602001908152602001600020549050818114613a77576000600860008673ffffffffffffffffffffffffffffffffffffffff1673ffffffffffffffffffffffffffffffffffffffff168152602001908152602001600020600084815260200190815260200160002054905080600860008773ffffffffffffffffffffffffffffffffffffffff1673ffffffffffffffffffffffffffffffffffffffff168152602001908152602001600020600084815260200190815260200160002081905550816009600083815260200190815260200160002081905550505b6009600084815260200190815260200160002060009055600860008573ffffffffffffffffffffffffffffffffffffffff1673ffffffffffffffffffffffffffffffffffffffff16815260200190815260200160002060008381526020019081526020016000206000905550505050565b60006001600a80549050613afc9190615644565b90506000600b60008481526020019081526020016000205490506000600a8381548110613b2c57613b2b614fac565b5b9060005260206000200154905080600a8381548110613b4e57613b4d614fac565b5b906000526020600020018190555081600b600083815260200190815260200160002081905550600b600085815260200190815260200160002060009055600a805480613b9d57613b9c615dd0565b5b6001900381819060005260206000200160009055905550505050565b6000613bc4836113cc565b905081600860008573ffffffffffffffffffffffffffffffffffffffff1673ffffffffffffffffffffffffffffffffffffffff168152602001908152602001600020600083815260200190815260200160002081905550806009600084815260200190815260200160002081905550505050565b6040518060e00160405280600060ff168152602001600060ff168152602001606081526020016060815260200160608152602001606081526020016000151581525090565b828054613c89906148c8565b90600052602060002090601f016020900481019282613cab5760008555613cf2565b82601f10613cc457805160ff1916838001178555613cf2565b82800160010185558215613cf2579182015b82811115613cf1578251825591602001919060010190613cd6565b5b509050613cff9190613d03565b5090565b5b80821115613d1c576000816000905550600101613d04565b5090565b6000604051905090565b600080fd5b600080fd5b60007fffffffff0000000000000000000000000000000000000000000000000000000082169050919050565b613d6981613d34565b8114613d7457600080fd5b50565b600081359050613d8681613d60565b92915050565b600060208284031215613da257613da1613d2a565b5b6000613db084828501613d77565b91505092915050565b60008115159050919050565b613dce81613db9565b82525050565b6000602082019050613de96000830184613dc5565b92915050565b600081519050919050565b600082825260208201905092915050565b60005b83811015613e29578082015181840152602081019050613e0e565b83811115613e38576000848401525b50505050565b6000601f19601f8301169050919050565b6000613e5a82613def565b613e648185613dfa565b9350613e74818560208601613e0b565b613e7d81613e3e565b840191505092915050565b60006020820190508181036000830152613ea28184613e4f565b905092915050565b6000819050919050565b613ebd81613eaa565b8114613ec857600080fd5b50565b600081359050613eda81613eb4565b92915050565b600060208284031215613ef657613ef5613d2a565b5b6000613f0484828501613ecb565b91505092915050565b600073ffffffffffffffffffffffffffffffffffffffff82169050919050565b6000613f3882613f0d565b9050919050565b613f4881613f2d565b82525050565b6000602082019050613f636000830184613f3f565b92915050565b613f7281613f2d565b8114613f7d57600080fd5b50565b600081359050613f8f81613f69565b92915050565b60008060408385031215613fac57613fab613d2a565b5b6000613fba85828601613f80565b9250506020613fcb85828601613ecb565b9150509250929050565b613fde81613eaa565b82525050565b6000602082019050613ff96000830184613fd5565b92915050565b6000806040838503121561401657614015613d2a565b5b600061402485828601613ecb565b925050602061403585828601613ecb565b9150509250929050565b60008060006060848603121561405857614057613d2a565b5b600061406686828701613f80565b935050602061407786828701613f80565b925050604061408886828701613ecb565b9150509250925092565b6000819050919050565b6140a581614092565b81146140b057600080fd5b50565b6000813590506140c28161409c565b92915050565b6000602082840312156140de576140dd613d2a565b5b60006140ec848285016140b3565b91505092915050565b6140fe81614092565b82525050565b600060208201905061411960008301846140f5565b92915050565b6000806040838503121561413657614135613d2a565b5b6000614144858286016140b3565b925050602061415585828601613f80565b9150509250929050565b600060ff82169050919050565b6141758161415f565b82525050565b600082825260208201905092915050565b600061419782613def565b6141a1818561417b565b93506141b1818560208601613e0b565b6141ba81613e3e565b840191505092915050565b6141ce81613db9565b82525050565b600060e0830160008301516141ec600086018261416c565b5060208301516141ff602086018261416c565b5060408301518482036040860152614217828261418c565b91505060608301518482036060860152614231828261418c565b9150506080830151848203608086015261424b828261418c565b91505060a083015184820360a0860152614265828261418c565b91505060c083015161427a60c08601826141c5565b508091505092915050565b6000602082019050818103600083015261429f81846141d4565b905092915050565b6000602082840312156142bd576142bc613d2a565b5b60006142cb84828501613f80565b91505092915050565b600080604083850312156142eb576142ea613d2a565b5b60006142f9858286016140b3565b925050602061430a85828601613ecb565b9150509250929050565b600080fd5b600080fd5b7f4e487b7100000000000000000000000000000000000000000000000000000000600052604160045260246000fd5b61435682613e3e565b810181811067ffffffffffffffff821117156143755761437461431e565b5b80604052505050565b6000614388613d20565b9050614394828261434d565b919050565b600067ffffffffffffffff8211156143b4576143b361431e565b5b6143bd82613e3e565b9050602081019050919050565b82818337600083830152505050565b60006143ec6143e784614399565b61437e565b90508281526020810184848401111561440857614407614319565b5b6144138482856143ca565b509392505050565b600082601f8301126144305761442f614314565b5b81356144408482602086016143d9565b91505092915050565b600080600080600060a0868803121561446557614464613d2a565b5b600061447388828901613ecb565b955050602086013567ffffffffffffffff81111561449457614493613d2f565b5b6144a08882890161441b565b945050604086013567ffffffffffffffff8111156144c1576144c0613d2f565b5b6144cd8882890161441b565b935050606086013567ffffffffffffffff8111156144ee576144ed613d2f565b5b6144fa8882890161441b565b925050608086013567ffffffffffffffff81111561451b5761451a613d2f565b5b6145278882890161441b565b9150509295509295909350565b61453d81613db9565b811461454857600080fd5b50565b60008135905061455a81614534565b92915050565b6000806040838503121561457757614576613d2a565b5b600061458585828601613f80565b92505060206145968582860161454b565b9150509250929050565b600081519050919050565b600082825260208201905092915050565b6000819050602082019050919050565b600060e0830160008301516145e4600086018261416c565b5060208301516145f7602086018261416c565b506040830151848203604086015261460f828261418c565b91505060608301518482036060860152614629828261418c565b91505060808301518482036080860152614643828261418c565b91505060a083015184820360a086015261465d828261418c565b91505060c083015161467260c08601826141c5565b508091505092915050565b600061468983836145cc565b905092915050565b6000602082019050919050565b60006146a9826145a0565b6146b381856145ab565b9350836020820285016146c5856145bc565b8060005b8581101561470157848403895281516146e2858261467d565b94506146ed83614691565b925060208a019950506001810190506146c9565b50829750879550505050505092915050565b6000602082019050818103600083015261472d818461469e565b905092915050565b600067ffffffffffffffff8211156147505761474f61431e565b5b61475982613e3e565b9050602081019050919050565b600061477961477484614735565b61437e565b90508281526020810184848401111561479557614794614319565b5b6147a08482856143ca565b509392505050565b600082601f8301126147bd576147bc614314565b5b81356147cd848260208601614766565b91505092915050565b600080600080608085870312156147f0576147ef613d2a565b5b60006147fe87828801613f80565b945050602061480f87828801613f80565b935050604061482087828801613ecb565b925050606085013567ffffffffffffffff81111561484157614840613d2f565b5b61484d878288016147a8565b91505092959194509250565b600080604083850312156148705761486f613d2a565b5b600061487e85828601613f80565b925050602061488f85828601613f80565b9150509250929050565b7f4e487b7100000000000000000000000000000000000000000000000000000000600052602260045260246000fd5b600060028204905060018216806148e057607f821691505b602082108114156148f4576148f3614899565b5b50919050565b7f4552433732313a20617070726f76616c20746f2063757272656e74206f776e6560008201527f7200000000000000000000000000000000000000000000000000000000000000602082015250565b6000614956602183613dfa565b9150614961826148fa565b604082019050919050565b6000602082019050818103600083015261498581614949565b9050919050565b7f4552433732313a20617070726f76652063616c6c6572206973206e6f7420746f60008201527f6b656e206f776e6572206e6f7220617070726f76656420666f7220616c6c0000602082015250565b60006149e8603e83613dfa565b91506149f38261498c565b604082019050919050565b60006020820190508181036000830152614a17816149db565b9050919050565b7f6d75737420706179000000000000000000000000000000000000000000000000600082015250565b6000614a54600883613dfa565b9150614a5f82614a1e565b602082019050919050565b60006020820190508181036000830152614a8381614a47565b9050919050565b7f6d6f6e746820697320696e76616c696400000000000000000000000000000000600082015250565b6000614ac0601083613dfa565b9150614acb82614a8a565b602082019050919050565b60006020820190508181036000830152614aef81614ab3565b9050919050565b7f64617920697320696e76616c6964000000000000000000000000000000000000600082015250565b6000614b2c600e83613dfa565b9150614b3782614af6565b602082019050919050565b60006020820190508181036000830152614b5b81614b1f565b9050919050565b7f4e487b7100000000000000000000000000000000000000000000000000000000600052601160045260246000fd5b6000614b9c82613eaa565b9150614ba783613eaa565b9250817fffffffffffffffffffffffffffffffffffffffffffffffffffffffffffffffff0483118215151615614be057614bdf614b62565b5b828202905092915050565b6000614bf682613eaa565b9150614c0183613eaa565b9250827fffffffffffffffffffffffffffffffffffffffffffffffffffffffffffffffff03821115614c3657614c35614b62565b5b828201905092915050565b7f4552433732313a2063616c6c6572206973206e6f7420746f6b656e206f776e6560008201527f72206e6f7220617070726f766564000000000000000000000000000000000000602082015250565b6000614c9d602e83613dfa565b9150614ca882614c41565b604082019050919050565b60006020820190508181036000830152614ccc81614c90565b9050919050565b7f455243373231456e756d657261626c653a206f776e657220696e646578206f7560008201527f74206f6620626f756e6473000000000000000000000000000000000000000000602082015250565b6000614d2f602b83613dfa565b9150614d3a82614cd3565b604082019050919050565b60006020820190508181036000830152614d5e81614d22565b9050919050565b7f416363657373436f6e74726f6c3a2063616e206f6e6c792072656e6f756e636560008201527f20726f6c657320666f722073656c660000000000000000000000000000000000602082015250565b6000614dc1602f83613dfa565b9150614dcc82614d65565b604082019050919050565b60006020820190508181036000830152614df081614db4565b9050919050565b7f4552433732315072657365744d696e7465725061757365724175746f49643a2060008201527f6d75737420686176652070617573657220726f6c6520746f20756e7061757365602082015250565b6000614e53604083613dfa565b9150614e5e82614df7565b604082019050919050565b60006020820190508181036000830152614e8281614e46565b9050919050565b7f4e487b7100000000000000000000000000000000000000000000000000000000600052601260045260246000fd5b6000614ec382613eaa565b9150614ece83613eaa565b925082614ede57614edd614e89565b5b828204905092915050565b6000614ef482613eaa565b9150614eff83613eaa565b925082614f0f57614f0e614e89565b5b828206905092915050565b7f455243373231456e756d657261626c653a20676c6f62616c20696e646578206f60008201527f7574206f6620626f756e64730000000000000000000000000000000000000000602082015250565b6000614f76602c83613dfa565b9150614f8182614f1a565b604082019050919050565b60006020820190508181036000830152614fa581614f69565b9050919050565b7f4e487b7100000000000000000000000000000000000000000000000000000000600052603260045260246000fd5b7f4552433732313a20696e76616c696420746f6b656e2049440000000000000000600082015250565b6000615011601883613dfa565b915061501c82614fdb565b602082019050919050565b6000602082019050818103600083015261504081615004565b9050919050565b7f4552433732313a2061646472657373207a65726f206973206e6f74206120766160008201527f6c6964206f776e65720000000000000000000000000000000000000000000000602082015250565b60006150a3602983613dfa565b91506150ae82615047565b604082019050919050565b600060208201905081810360008301526150d281615096565b9050919050565b7f4552433732315072657365744d696e7465725061757365724175746f49643a2060008201527f6d75737420686176652070617573657220726f6c6520746f2070617573650000602082015250565b6000615135603e83613dfa565b9150615140826150d9565b604082019050919050565b6000602082019050818103600083015261516481615128565b9050919050565b7f6d7573742068617665206f776e657220726f6c6520746f207365740000000000600082015250565b60006151a1601b83613dfa565b91506151ac8261516b565b602082019050919050565b600060208201905081810360008301526151d081615194565b9050919050565b7f6e616d6520697320726571756972656400000000000000000000000000000000600082015250565b600061520d601083613dfa565b9150615218826151d7565b602082019050919050565b6000602082019050818103600083015261523c81615200565b9050919050565b7f6e616d65206973206c696d6974656420746f2031323820627974657300000000600082015250565b6000615279601c83613dfa565b915061528482615243565b602082019050919050565b600060208201905081810360008301526152a88161526c565b9050919050565b7f6465736372697074696f6e206973206c696d6974656420746f2035313220627960008201527f7465730000000000000000000000000000000000000000000000000000000000602082015250565b600061530b602383613dfa565b9150615316826152af565b604082019050919050565b6000602082019050818103600083015261533a816152fe565b9050919050565b7f617574686f722069732072657175697265640000000000000000000000000000600082015250565b6000615377601283613dfa565b915061538282615341565b602082019050919050565b600060208201905081810360008301526153a68161536a565b9050919050565b7f617574686f72206973206c696d6974656420746f203132382062797465730000600082015250565b60006153e3601e83613dfa565b91506153ee826153ad565b602082019050919050565b60006020820190508181036000830152615412816153d6565b9050919050565b7f617574686f7255726c2069732072657175697265640000000000000000000000600082015250565b600061544f601583613dfa565b915061545a82615419565b602082019050919050565b6000602082019050818103600083015261547e81615442565b9050919050565b7f617574686f7255726c206973206c696d6974656420746f20353132206279746560008201527f7300000000000000000000000000000000000000000000000000000000000000602082015250565b60006154e1602183613dfa565b91506154ec82615485565b604082019050919050565b60006020820190508181036000830152615510816154d4565b9050919050565b60008190508160005260206000209050919050565b60008154615539816148c8565b615543818661417b565b9450600182166000811461555e5760018114615570576155a3565b60ff19831686526020860193506155a3565b61557985615517565b60005b8381101561559b5781548189015260018201915060208101905061557c565b808801955050505b50505092915050565b600060808301600080840185830360008701526155c9838261552c565b9250506001840185830360208701526155e2838261552c565b9250506002840185830360408701526155fb838261552c565b925050600384018583036060870152615614838261552c565b925050819250505092915050565b6000602082019050818103600083015261563c81846155ac565b905092915050565b600061564f82613eaa565b915061565a83613eaa565b92508282101561566d5761566c614b62565b5b828203905092915050565b600061568382613eaa565b91507fffffffffffffffffffffffffffffffffffffffffffffffffffffffffffffffff8214156156b6576156b5614b62565b5b600182019050919050565b600081905092915050565b60006156d782613def565b6156e181856156c1565b93506156f1818560208601613e0b565b80840191505092915050565b600061570982856156cc565b915061571582846156cc565b91508190509392505050565b7f4552433732313a206d696e7420746f20746865207a65726f2061646472657373600082015250565b6000615757602083613dfa565b915061576282615721565b602082019050919050565b600060208201905081810360008301526157868161574a565b9050919050565b7f4552433732313a20746f6b656e20616c7265616479206d696e74656400000000600082015250565b60006157c3601c83613dfa565b91506157ce8261578d565b602082019050919050565b600060208201905081810360008301526157f2816157b6565b9050919050565b7f4552433732313a207472616e736665722066726f6d20696e636f72726563742060008201527f6f776e6572000000000000000000000000000000000000000000000000000000602082015250565b6000615855602583613dfa565b9150615860826157f9565b604082019050919050565b6000602082019050818103600083015261588481615848565b9050919050565b7f4552433732313a207472616e7366657220746f20746865207a65726f2061646460008201527f7265737300000000000000000000000000000000000000000000000000000000602082015250565b60006158e7602483613dfa565b91506158f28261588b565b604082019050919050565b60006020820190508181036000830152615916816158da565b9050919050565b7f4552433732313a20617070726f766520746f2063616c6c657200000000000000600082015250565b6000615953601983613dfa565b915061595e8261591d565b602082019050919050565b6000602082019050818103600083015261598281615946565b9050919050565b7f4552433732313a207472616e7366657220746f206e6f6e20455243373231526560008201527f63656976657220696d706c656d656e7465720000000000000000000000000000602082015250565b60006159e5603283613dfa565b91506159f082615989565b604082019050919050565b60006020820190508181036000830152615a14816159d8565b9050919050565b7f416363657373436f6e74726f6c3a206163636f756e7420000000000000000000600082015250565b6000615a516017836156c1565b9150615a5c82615a1b565b601782019050919050565b7f206973206d697373696e6720726f6c6520000000000000000000000000000000600082015250565b6000615a9d6011836156c1565b9150615aa882615a67565b601182019050919050565b6000615abe82615a44565b9150615aca82856156cc565b9150615ad582615a90565b9150615ae182846156cc565b91508190509392505050565b7f5061757361626c653a206e6f7420706175736564000000000000000000000000600082015250565b6000615b23601483613dfa565b9150615b2e82615aed565b602082019050919050565b60006020820190508181036000830152615b5281615b16565b9050919050565b7f5061757361626c653a2070617573656400000000000000000000000000000000600082015250565b6000615b8f601083613dfa565b9150615b9a82615b59565b602082019050919050565b60006020820190508181036000830152615bbe81615b82565b9050919050565b600081519050919050565b600082825260208201905092915050565b6000615bec82615bc5565b615bf68185615bd0565b9350615c06818560208601613e0b565b615c0f81613e3e565b840191505092915050565b6000608082019050615c2f6000830187613f3f565b615c3c6020830186613f3f565b615c496040830185613fd5565b8181036060830152615c5b8184615be1565b905095945050505050565b600081519050615c7581613d60565b92915050565b600060208284031215615c9157615c90613d2a565b5b6000615c9f84828501615c66565b91505092915050565b7f4552433732315061757361626c653a20746f6b656e207472616e73666572207760008201527f68696c6520706175736564000000000000000000000000000000000000000000602082015250565b6000615d04602b83613dfa565b9150615d0f82615ca8565b604082019050919050565b60006020820190508181036000830152615d3381615cf7565b9050919050565b6000615d4582613eaa565b91506000821415615d5957615d58614b62565b5b600182039050919050565b7f537472696e67733a20686578206c656e67746820696e73756666696369656e74600082015250565b6000615d9a602083613dfa565b9150615da582615d64565b602082019050919050565b60006020820190508181036000830152615dc981615d8d565b9050919050565b7f4e487b7100000000000000000000000000000000000000000000000000000000600052603160045260246000fdfea2646970667358221220b15acc4fa0a3fca0076e21df430bdbc331ce3c57db5b3ec98ea6e6036e40e2e264736f6c6343000809003368747470733a2f2f616e6e6976657273652e7368776c642e6170702f6170692f76312f746f6b656e732f",
  "linkReferences": {},
  "deployedLinkReferences": {}
}