{
  "_format": "hh-sol-artifact-1",
  "contractName": "AnniversaryToken",
  "sourceName": "contracts/AnniversaryToken.sol",
  "abi": [
    {
      "inputs": [],
      "stateMutability": "nonpayable",
      "type": "constructor"
    },
    {
      "anonymous": false,
      "inputs": [
        {
          "indexed": true,
          "internalType": "uint256",
          "name": "_tokenId",
          "type": "uint256"
        },
        {
          "components": [
            {
              "internalType": "string",
              "name": "name",
              "type": "string"
            },
            {
              "internalType": "string",
              "name": "description",
              "type": "string"
            },
            {
              "internalType": "string",
              "name": "author",
              "type": "string"
            },
            {
              "internalType": "string",
              "name": "authorUrl",
              "type": "string"
            }
          ],
          "indexed": false,
          "internalType": "struct Anniversable._Anniversary",
          "name": "_value",
          "type": "tuple"
        }
      ],
      "name": "AnniversaryUpdated",
      "type": "event"
    },
    {
      "anonymous": false,
      "inputs": [
        {
          "indexed": true,
          "internalType": "address",
          "name": "owner",
          "type": "address"
        },
        {
          "indexed": true,
          "internalType": "address",
          "name": "approved",
          "type": "address"
        },
        {
          "indexed": true,
          "internalType": "uint256",
          "name": "tokenId",
          "type": "uint256"
        }
      ],
      "name": "Approval",
      "type": "event"
    },
    {
      "anonymous": false,
      "inputs": [
        {
          "indexed": true,
          "internalType": "address",
          "name": "owner",
          "type": "address"
        },
        {
          "indexed": true,
          "internalType": "address",
          "name": "operator",
          "type": "address"
        },
        {
          "indexed": false,
          "internalType": "bool",
          "name": "approved",
          "type": "bool"
        }
      ],
      "name": "ApprovalForAll",
      "type": "event"
    },
    {
      "anonymous": false,
      "inputs": [
        {
          "indexed": false,
          "internalType": "address",
          "name": "account",
          "type": "address"
        }
      ],
      "name": "Paused",
      "type": "event"
    },
    {
      "anonymous": false,
      "inputs": [
        {
          "indexed": true,
          "internalType": "bytes32",
          "name": "role",
          "type": "bytes32"
        },
        {
          "indexed": true,
          "internalType": "bytes32",
          "name": "previousAdminRole",
          "type": "bytes32"
        },
        {
          "indexed": true,
          "internalType": "bytes32",
          "name": "newAdminRole",
          "type": "bytes32"
        }
      ],
      "name": "RoleAdminChanged",
      "type": "event"
    },
    {
      "anonymous": false,
      "inputs": [
        {
          "indexed": true,
          "internalType": "bytes32",
          "name": "role",
          "type": "bytes32"
        },
        {
          "indexed": true,
          "internalType": "address",
          "name": "account",
          "type": "address"
        },
        {
          "indexed": true,
          "internalType": "address",
          "name": "sender",
          "type": "address"
        }
      ],
      "name": "RoleGranted",
      "type": "event"
    },
    {
      "anonymous": false,
      "inputs": [
        {
          "indexed": true,
          "internalType": "bytes32",
          "name": "role",
          "type": "bytes32"
        },
        {
          "indexed": true,
          "internalType": "address",
          "name": "account",
          "type": "address"
        },
        {
          "indexed": true,
          "internalType": "address",
          "name": "sender",
          "type": "address"
        }
      ],
      "name": "RoleRevoked",
      "type": "event"
    },
    {
      "anonymous": false,
      "inputs": [
        {
          "indexed": true,
          "internalType": "address",
          "name": "from",
          "type": "address"
        },
        {
          "indexed": true,
          "internalType": "address",
          "name": "to",
          "type": "address"
        },
        {
          "indexed": true,
          "internalType": "uint256",
          "name": "tokenId",
          "type": "uint256"
        }
      ],
      "name": "Transfer",
      "type": "event"
    },
    {
      "anonymous": false,
      "inputs": [
        {
          "indexed": false,
          "internalType": "address",
          "name": "account",
          "type": "address"
        }
      ],
      "name": "Unpaused",
      "type": "event"
    },
    {
      "inputs": [],
      "name": "DEFAULT_ADMIN_ROLE",
      "outputs": [
        {
          "internalType": "bytes32",
          "name": "",
          "type": "bytes32"
        }
      ],
      "stateMutability": "view",
      "type": "function"
    },
    {
      "inputs": [],
      "name": "PAUSER_ROLE",
      "outputs": [
        {
          "internalType": "bytes32",
          "name": "",
          "type": "bytes32"
        }
      ],
      "stateMutability": "view",
      "type": "function"
    },
    {
      "inputs": [],
      "name": "anniversaries365",
      "outputs": [
        {
          "components": [
            {
              "internalType": "uint8",
              "name": "month",
              "type": "uint8"
            },
            {
              "internalType": "uint8",
              "name": "day",
              "type": "uint8"
            },
            {
              "internalType": "string",
              "name": "name",
              "type": "string"
            },
            {
              "internalType": "string",
              "name": "description",
              "type": "string"
            },
            {
              "internalType": "string",
              "name": "author",
              "type": "string"
            },
            {
              "internalType": "string",
              "name": "authorUrl",
              "type": "string"
            },
            {
              "internalType": "bool",
              "name": "isEmpty",
              "type": "bool"
            }
          ],
          "internalType": "struct Anniversable.Anniversary[]",
          "name": "",
          "type": "tuple[]"
        }
      ],
      "stateMutability": "view",
      "type": "function"
    },
    {
      "inputs": [
        {
          "internalType": "uint256",
          "name": "tokenId",
          "type": "uint256"
        }
      ],
      "name": "anniversary",
      "outputs": [
        {
          "components": [
            {
              "internalType": "uint8",
              "name": "month",
              "type": "uint8"
            },
            {
              "internalType": "uint8",
              "name": "day",
              "type": "uint8"
            },
            {
              "internalType": "string",
              "name": "name",
              "type": "string"
            },
            {
              "internalType": "string",
              "name": "description",
              "type": "string"
            },
            {
              "internalType": "string",
              "name": "author",
              "type": "string"
            },
            {
              "internalType": "string",
              "name": "authorUrl",
              "type": "string"
            },
            {
              "internalType": "bool",
              "name": "isEmpty",
              "type": "bool"
            }
          ],
          "internalType": "struct Anniversable.Anniversary",
          "name": "",
          "type": "tuple"
        }
      ],
      "stateMutability": "view",
      "type": "function"
    },
    {
      "inputs": [
        {
          "internalType": "address",
          "name": "to",
          "type": "address"
        },
        {
          "internalType": "uint256",
          "name": "tokenId",
          "type": "uint256"
        }
      ],
      "name": "approve",
      "outputs": [],
      "stateMutability": "nonpayable",
      "type": "function"
    },
    {
      "inputs": [
        {
          "internalType": "address",
          "name": "owner",
          "type": "address"
        }
      ],
      "name": "balanceOf",
      "outputs": [
        {
          "internalType": "uint256",
          "name": "",
          "type": "uint256"
        }
      ],
      "stateMutability": "view",
      "type": "function"
    },
    {
      "inputs": [
        {
          "internalType": "uint256",
          "name": "tokenId",
          "type": "uint256"
        }
      ],
      "name": "burn",
      "outputs": [],
      "stateMutability": "nonpayable",
      "type": "function"
    },
    {
      "inputs": [
        {
          "internalType": "uint256",
          "name": "tokenId",
          "type": "uint256"
        }
      ],
      "name": "getApproved",
      "outputs": [
        {
          "internalType": "address",
          "name": "",
          "type": "address"
        }
      ],
      "stateMutability": "view",
      "type": "function"
    },
    {
      "inputs": [],
      "name": "getPrice",
      "outputs": [
        {
          "internalType": "uint256",
          "name": "",
          "type": "uint256"
        }
      ],
      "stateMutability": "view",
      "type": "function"
    },
    {
      "inputs": [
        {
          "internalType": "bytes32",
          "name": "role",
          "type": "bytes32"
        }
      ],
      "name": "getRoleAdmin",
      "outputs": [
        {
          "internalType": "bytes32",
          "name": "",
          "type": "bytes32"
        }
      ],
      "stateMutability": "view",
      "type": "function"
    },
    {
      "inputs": [
        {
          "internalType": "bytes32",
          "name": "role",
          "type": "bytes32"
        },
        {
          "internalType": "uint256",
          "name": "index",
          "type": "uint256"
        }
      ],
      "name": "getRoleMember",
      "outputs": [
        {
          "internalType": "address",
          "name": "",
          "type": "address"
        }
      ],
      "stateMutability": "view",
      "type": "function"
    },
    {
      "inputs": [
        {
          "internalType": "bytes32",
          "name": "role",
          "type": "bytes32"
        }
      ],
      "name": "getRoleMemberCount",
      "outputs": [
        {
          "internalType": "uint256",
          "name": "",
          "type": "uint256"
        }
      ],
      "stateMutability": "view",
      "type": "function"
    },
    {
      "inputs": [
        {
          "internalType": "bytes32",
          "name": "role",
          "type": "bytes32"
        },
        {
          "internalType": "address",
          "name": "account",
          "type": "address"
        }
      ],
      "name": "grantRole",
      "outputs": [],
      "stateMutability": "nonpayable",
      "type": "function"
    },
    {
      "inputs": [
        {
          "internalType": "uint256",
          "name": "month",
          "type": "uint256"
        },
        {
          "internalType": "uint256",
          "name": "day",
          "type": "uint256"
        }
      ],
      "name": "hasMinted",
      "outputs": [
        {
          "internalType": "bool",
          "name": "",
          "type": "bool"
        }
      ],
      "stateMutability": "view",
      "type": "function"
    },
    {
      "inputs": [
        {
          "internalType": "bytes32",
          "name": "role",
          "type": "bytes32"
        },
        {
          "internalType": "address",
          "name": "account",
          "type": "address"
        }
      ],
      "name": "hasRole",
      "outputs": [
        {
          "internalType": "bool",
          "name": "",
          "type": "bool"
        }
      ],
      "stateMutability": "view",
      "type": "function"
    },
    {
      "inputs": [
        {
          "internalType": "address",
          "name": "owner",
          "type": "address"
        },
        {
          "internalType": "address",
          "name": "operator",
          "type": "address"
        }
      ],
      "name": "isApprovedForAll",
      "outputs": [
        {
          "internalType": "bool",
          "name": "",
          "type": "bool"
        }
      ],
      "stateMutability": "view",
      "type": "function"
    },
    {
      "inputs": [
        {
          "internalType": "address",
          "name": "_address",
          "type": "address"
        }
      ],
      "name": "isContractOwner",
      "outputs": [
        {
          "internalType": "bool",
          "name": "",
          "type": "bool"
        }
      ],
      "stateMutability": "view",
      "type": "function"
    },
    {
      "inputs": [
        {
          "internalType": "uint256",
          "name": "month",
          "type": "uint256"
        },
        {
          "internalType": "uint256",
          "name": "day",
          "type": "uint256"
        }
      ],
      "name": "isMinter",
      "outputs": [
        {
          "internalType": "bool",
          "name": "",
          "type": "bool"
        }
      ],
      "stateMutability": "view",
      "type": "function"
    },
    {
      "inputs": [
        {
          "internalType": "uint256",
          "name": "month",
          "type": "uint256"
        },
        {
          "internalType": "uint256",
          "name": "day",
          "type": "uint256"
        }
      ],
      "name": "mint",
      "outputs": [],
      "stateMutability": "payable",
      "type": "function"
    },
    {
      "inputs": [],
      "name": "name",
      "outputs": [
        {
          "internalType": "string",
          "name": "",
          "type": "string"
        }
      ],
      "stateMutability": "view",
      "type": "function"
    },
    {
      "inputs": [
        {
          "internalType": "uint256",
          "name": "tokenId",
          "type": "uint256"
        }
      ],
      "name": "ownerOf",
      "outputs": [
        {
          "internalType": "address",
          "name": "",
          "type": "address"
        }
      ],
      "stateMutability": "view",
      "type": "function"
    },
    {
      "inputs": [],
      "name": "pause",
      "outputs": [],
      "stateMutability": "nonpayable",
      "type": "function"
    },
    {
      "inputs": [],
      "name": "paused",
      "outputs": [
        {
          "internalType": "bool",
          "name": "",
          "type": "bool"
        }
      ],
      "stateMutability": "view",
      "type": "function"
    },
    {
      "inputs": [
        {
          "internalType": "bytes32",
          "name": "role",
          "type": "bytes32"
        },
        {
          "internalType": "address",
          "name": "account",
          "type": "address"
        }
      ],
      "name": "renounceRole",
      "outputs": [],
      "stateMutability": "nonpayable",
      "type": "function"
    },
    {
      "inputs": [
        {
          "internalType": "bytes32",
          "name": "role",
          "type": "bytes32"
        },
        {
          "internalType": "address",
          "name": "account",
          "type": "address"
        }
      ],
      "name": "revokeRole",
      "outputs": [],
      "stateMutability": "nonpayable",
      "type": "function"
    },
    {
      "inputs": [
        {
          "internalType": "address",
          "name": "from",
          "type": "address"
        },
        {
          "internalType": "address",
          "name": "to",
          "type": "address"
        },
        {
          "internalType": "uint256",
          "name": "tokenId",
          "type": "uint256"
        }
      ],
      "name": "safeTransferFrom",
      "outputs": [],
      "stateMutability": "nonpayable",
      "type": "function"
    },
    {
      "inputs": [
        {
          "internalType": "address",
          "name": "from",
          "type": "address"
        },
        {
          "internalType": "address",
          "name": "to",
          "type": "address"
        },
        {
          "internalType": "uint256",
          "name": "tokenId",
          "type": "uint256"
        },
        {
          "internalType": "bytes",
          "name": "data",
          "type": "bytes"
        }
      ],
      "name": "safeTransferFrom",
      "outputs": [],
      "stateMutability": "nonpayable",
      "type": "function"
    },
    {
      "inputs": [
        {
          "internalType": "uint256",
          "name": "tokenId",
          "type": "uint256"
        },
        {
          "internalType": "string",
          "name": "_name",
          "type": "string"
        },
        {
          "internalType": "string",
          "name": "_description",
          "type": "string"
        },
        {
          "internalType": "string",
          "name": "_author",
          "type": "string"
        },
        {
          "internalType": "string",
          "name": "_authorUrl",
          "type": "string"
        }
      ],
      "name": "setAnniversary",
      "outputs": [],
      "stateMutability": "nonpayable",
      "type": "function"
    },
    {
      "inputs": [
        {
          "internalType": "address",
          "name": "operator",
          "type": "address"
        },
        {
          "internalType": "bool",
          "name": "approved",
          "type": "bool"
        }
      ],
      "name": "setApprovalForAll",
      "outputs": [],
      "stateMutability": "nonpayable",
      "type": "function"
    },
    {
      "inputs": [
        {
          "internalType": "string",
          "name": "newURI",
          "type": "string"
        }
      ],
      "name": "setBaseURI",
      "outputs": [],
      "stateMutability": "nonpayable",
      "type": "function"
    },
    {
      "inputs": [
        {
          "internalType": "bytes4",
          "name": "interfaceId",
          "type": "bytes4"
        }
      ],
      "name": "supportsInterface",
      "outputs": [
        {
          "internalType": "bool",
          "name": "",
          "type": "bool"
        }
      ],
      "stateMutability": "view",
      "type": "function"
    },
    {
      "inputs": [],
      "name": "symbol",
      "outputs": [
        {
          "internalType": "string",
          "name": "",
          "type": "string"
        }
      ],
      "stateMutability": "view",
      "type": "function"
    },
    {
      "inputs": [
        {
          "internalType": "uint256",
          "name": "index",
          "type": "uint256"
        }
      ],
      "name": "tokenByIndex",
      "outputs": [
        {
          "internalType": "uint256",
          "name": "",
          "type": "uint256"
        }
      ],
      "stateMutability": "view",
      "type": "function"
    },
    {
      "inputs": [
        {
          "internalType": "address",
          "name": "owner",
          "type": "address"
        },
        {
          "internalType": "uint256",
          "name": "index",
          "type": "uint256"
        }
      ],
      "name": "tokenOfOwnerByIndex",
      "outputs": [
        {
          "internalType": "uint256",
          "name": "",
          "type": "uint256"
        }
      ],
      "stateMutability": "view",
      "type": "function"
    },
    {
      "inputs": [
        {
          "internalType": "uint256",
          "name": "tokenId",
          "type": "uint256"
        }
      ],
      "name": "tokenURI",
      "outputs": [
        {
          "internalType": "string",
          "name": "",
          "type": "string"
        }
      ],
      "stateMutability": "view",
      "type": "function"
    },
    {
      "inputs": [],
      "name": "totalSupply",
      "outputs": [
        {
          "internalType": "uint256",
          "name": "",
          "type": "uint256"
        }
      ],
      "stateMutability": "view",
      "type": "function"
    },
    {
      "inputs": [
        {
          "internalType": "address",
          "name": "from",
          "type": "address"
        },
        {
          "internalType": "address",
          "name": "to",
          "type": "address"
        },
        {
          "internalType": "uint256",
          "name": "tokenId",
          "type": "uint256"
        }
      ],
      "name": "transferFrom",
      "outputs": [],
      "stateMutability": "nonpayable",
      "type": "function"
    },
    {
      "inputs": [],
      "name": "unpause",
      "outputs": [],
      "stateMutability": "nonpayable",
      "type": "function"
    }
  ],
  "bytecode": "0x60806040526040518060600160405280602781526020016200653660279139601090805190602001906200003592919062000450565b503480156200004357600080fd5b506040518060400160405280600b81526020017f416e6e69766572736172790000000000000000000000000000000000000000008152506040518060400160405280600981526020017f414e4e49564552534500000000000000000000000000000000000000000000008152508160029080519060200190620000c892919062000450565b508060039080519060200190620000e192919062000450565b5050506000600c60006101000a81548160ff0219169083151502179055506200010f620001ba60201b60201c565b600f60006101000a81548173ffffffffffffffffffffffffffffffffffffffff021916908373ffffffffffffffffffffffffffffffffffffffff160217905550620001736000801b62000167620001ba60201b60201c565b620001c260201b60201c565b620001b47f65d7a28e3265b37a6474929f336521b332c1681b933f6cb9f3376673440d862a620001a8620001ba60201b60201c565b620001c260201b60201c565b62000565565b600033905090565b620001d48282620001d860201b60201c565b5050565b620001ef82826200022060201b62001eb61760201c565b6200021b81600160008581526020019081526020016000206200031160201b62001f961790919060201c565b505050565b6200023282826200034960201b60201c565b6200030d57600160008084815260200190815260200160002060000160008373ffffffffffffffffffffffffffffffffffffffff1673ffffffffffffffffffffffffffffffffffffffff16815260200190815260200160002060006101000a81548160ff021916908315150217905550620002b2620001ba60201b60201c565b73ffffffffffffffffffffffffffffffffffffffff168173ffffffffffffffffffffffffffffffffffffffff16837f2f8788117e7eff1d82e926ec794901d17c78024a50270940304540a733656f0d60405160405180910390a45b5050565b600062000341836000018373ffffffffffffffffffffffffffffffffffffffff1660001b620003b360201b60201c565b905092915050565b600080600084815260200190815260200160002060000160008373ffffffffffffffffffffffffffffffffffffffff1673ffffffffffffffffffffffffffffffffffffffff16815260200190815260200160002060009054906101000a900460ff16905092915050565b6000620003c783836200042d60201b60201c565b6200042257826000018290806001815401808255809150506001900390600052602060002001600090919091909150558260000180549050836001016000848152602001908152602001600020819055506001905062000427565b600090505b92915050565b600080836001016000848152602001908152602001600020541415905092915050565b8280546200045e906200052f565b90600052602060002090601f016020900481019282620004825760008555620004ce565b82601f106200049d57805160ff1916838001178555620004ce565b82800160010185558215620004ce579182015b82811115620004cd578251825591602001919060010190620004b0565b5b509050620004dd9190620004e1565b5090565b5b80821115620004fc576000816000905550600101620004e2565b5090565b7f4e487b7100000000000000000000000000000000000000000000000000000000600052602260045260246000fd5b600060028204905060018216806200054857607f821691505b602082108114156200055f576200055e62000500565b5b50919050565b615fc180620005756000396000f3fe6080604052600436106102255760003560e01c80636352211e11610123578063a22cb465116100ab578063d547741f1161006f578063d547741f14610854578063d65b7b121461087d578063de117688146108ba578063e63ab1e9146108f7578063e985e9c51461092257610225565b8063a22cb4651461075d578063b1cf055914610786578063b88d4fde146107b1578063c87b56dd146107da578063ca15c8731461081757610225565b806391d14854116100f257806391d14854146106765780639302fae9146106b357806395d89b41146106dc57806398d5fdca14610707578063a217fddf1461073257610225565b80636352211e146105a857806370a08231146105e55780638456cb59146106225780639010d07c1461063957610225565b80632f2ff15d116101b157806342842e0e1161017557806342842e0e146104c557806342966c68146104ee5780634f6ccce71461051757806355f804b3146105545780635c975abb1461057d57610225565b80632f2ff15d146103e25780632f745c591461040b57806336568abe146104485780633f4ba83a146104715780634001935f1461048857610225565b806318160ddd116101f857806318160ddd146102f85780631b2ef1ca146103235780631fdc4fd71461033f57806323b872dd1461037c578063248a9ca3146103a557610225565b806301ffc9a71461022a57806306fdde0314610267578063081812fc14610292578063095ea7b3146102cf575b600080fd5b34801561023657600080fd5b50610251600480360381019061024c9190613e63565b61095f565b60405161025e9190613eab565b60405180910390f35b34801561027357600080fd5b5061027c610971565b6040516102899190613f5f565b60405180910390f35b34801561029e57600080fd5b506102b960048036038101906102b49190613fb7565b610a03565b6040516102c69190614025565b60405180910390f35b3480156102db57600080fd5b506102f660048036038101906102f1919061406c565b610a49565b005b34801561030457600080fd5b5061030d610b61565b60405161031a91906140bb565b60405180910390f35b61033d600480360381019061033891906140d6565b610b6e565b005b34801561034b57600080fd5b50610366600480360381019061036191906140d6565b610c98565b6040516103739190613eab565b60405180910390f35b34801561038857600080fd5b506103a3600480360381019061039e9190614116565b610cc7565b005b3480156103b157600080fd5b506103cc60048036038101906103c7919061419f565b610d27565b6040516103d991906141db565b60405180910390f35b3480156103ee57600080fd5b50610409600480360381019061040491906141f6565b610d46565b005b34801561041757600080fd5b50610432600480360381019061042d919061406c565b610d67565b60405161043f91906140bb565b60405180910390f35b34801561045457600080fd5b5061046f600480360381019061046a91906141f6565b610e0c565b005b34801561047d57600080fd5b50610486610e8f565b005b34801561049457600080fd5b506104af60048036038101906104aa9190613fb7565b610f09565b6040516104bc919061435c565b60405180910390f35b3480156104d157600080fd5b506104ec60048036038101906104e79190614116565b611280565b005b3480156104fa57600080fd5b5061051560048036038101906105109190613fb7565b6112a0565b005b34801561052357600080fd5b5061053e60048036038101906105399190613fb7565b6112fc565b60405161054b91906140bb565b60405180910390f35b34801561056057600080fd5b5061057b600480360381019061057691906144b3565b61136d565b005b34801561058957600080fd5b506105926113da565b60405161059f9190613eab565b60405180910390f35b3480156105b457600080fd5b506105cf60048036038101906105ca9190613fb7565b6113f1565b6040516105dc9190614025565b60405180910390f35b3480156105f157600080fd5b5061060c600480360381019061060791906144fc565b6114a3565b60405161061991906140bb565b60405180910390f35b34801561062e57600080fd5b5061063761155b565b005b34801561064557600080fd5b50610660600480360381019061065b9190614529565b6115d5565b60405161066d9190614025565b60405180910390f35b34801561068257600080fd5b5061069d600480360381019061069891906141f6565b611604565b6040516106aa9190613eab565b60405180910390f35b3480156106bf57600080fd5b506106da60048036038101906106d59190614569565b61166e565b005b3480156106e857600080fd5b506106f16119e9565b6040516106fe9190613f5f565b60405180910390f35b34801561071357600080fd5b5061071c611a7b565b60405161072991906140bb565b60405180910390f35b34801561073e57600080fd5b50610747611ada565b60405161075491906141db565b60405180910390f35b34801561076957600080fd5b50610784600480360381019061077f9190614680565b611ae1565b005b34801561079257600080fd5b5061079b611af7565b6040516107a89190614833565b60405180910390f35b3480156107bd57600080fd5b506107d860048036038101906107d391906148f6565b611c19565b005b3480156107e657600080fd5b5061080160048036038101906107fc9190613fb7565b611c7b565b60405161080e9190613f5f565b60405180910390f35b34801561082357600080fd5b5061083e6004803603810190610839919061419f565b611ce3565b60405161084b91906140bb565b60405180910390f35b34801561086057600080fd5b5061087b600480360381019061087691906141f6565b611d07565b005b34801561088957600080fd5b506108a4600480360381019061089f91906140d6565b611d28565b6040516108b19190613eab565b60405180910390f35b3480156108c657600080fd5b506108e160048036038101906108dc91906144fc565b611da4565b6040516108ee9190613eab565b60405180910390f35b34801561090357600080fd5b5061090c611dfe565b60405161091991906141db565b60405180910390f35b34801561092e57600080fd5b5061094960048036038101906109449190614979565b611e22565b6040516109569190613eab565b60405180910390f35b600061096a82611fc6565b9050919050565b606060028054610980906149e8565b80601f01602080910402602001604051908101604052809291908181526020018280546109ac906149e8565b80156109f95780601f106109ce576101008083540402835291602001916109f9565b820191906000526020600020905b8154815290600101906020018083116109dc57829003601f168201915b5050505050905090565b6000610a0e82612040565b6006600083815260200190815260200160002060009054906101000a900473ffffffffffffffffffffffffffffffffffffffff169050919050565b6000610a54826113f1565b90508073ffffffffffffffffffffffffffffffffffffffff168373ffffffffffffffffffffffffffffffffffffffff161415610ac5576040517f08c379a0000000000000000000000000000000000000000000000000000000008152600401610abc90614a8c565b60405180910390fd5b8073ffffffffffffffffffffffffffffffffffffffff16610ae461208b565b73ffffffffffffffffffffffffffffffffffffffff161480610b135750610b1281610b0d61208b565b611e22565b5b610b52576040517f08c379a0000000000000000000000000000000000000000000000000000000008152600401610b4990614b1e565b60405180910390fd5b610b5c8383612093565b505050565b6000600a80549050905090565b6000610b78611a7b565b9050803414610bbc576040517f08c379a0000000000000000000000000000000000000000000000000000000008152600401610bb390614b8a565b60405180910390fd5b600083118015610bcd5750600c8311155b610c0c576040517f08c379a0000000000000000000000000000000000000000000000000000000008152600401610c0390614bf6565b60405180910390fd5b600082118015610c1d5750601f8211155b610c5c576040517f08c379a0000000000000000000000000000000000000000000000000000000008152600401610c5390614c62565b60405180910390fd5b610c658161214c565b600082606485610c759190614cb1565b610c7f9190614d0b565b9050610c92610c8c61208b565b826121c8565b50505050565b60008082606485610ca99190614cb1565b610cb39190614d0b565b9050610cbe816123a2565b91505092915050565b610cd8610cd261208b565b8261240e565b610d17576040517f08c379a0000000000000000000000000000000000000000000000000000000008152600401610d0e90614dd3565b60405180910390fd5b610d228383836124a3565b505050565b6000806000838152602001908152602001600020600101549050919050565b610d4f82610d27565b610d588161270a565b610d62838361271e565b505050565b6000610d72836114a3565b8210610db3576040517f08c379a0000000000000000000000000000000000000000000000000000000008152600401610daa90614e65565b60405180910390fd5b600860008473ffffffffffffffffffffffffffffffffffffffff1673ffffffffffffffffffffffffffffffffffffffff168152602001908152602001600020600083815260200190815260200160002054905092915050565b610e1461208b565b73ffffffffffffffffffffffffffffffffffffffff168173ffffffffffffffffffffffffffffffffffffffff1614610e81576040517f08c379a0000000000000000000000000000000000000000000000000000000008152600401610e7890614ef7565b60405180910390fd5b610e8b8282612752565b5050565b610ec07f65d7a28e3265b37a6474929f336521b332c1681b933f6cb9f3376673440d862a610ebb61208b565b611604565b610eff576040517f08c379a0000000000000000000000000000000000000000000000000000000008152600401610ef690614f89565b60405180910390fd5b610f07612786565b565b610f11613d0f565b6000606483610f209190614fd8565b90506000606484610f319190615009565b9050610f3c846127e9565b156111fe576040518060e001604052808360ff1681526020018260ff168152602001600d60008781526020019081526020016000206000018054610f7f906149e8565b80601f0160208091040260200160405190810160405280929190818152602001828054610fab906149e8565b8015610ff85780601f10610fcd57610100808354040283529160200191610ff8565b820191906000526020600020905b815481529060010190602001808311610fdb57829003601f168201915b50505050508152602001600d60008781526020019081526020016000206001018054611023906149e8565b80601f016020809104026020016040519081016040528092919081815260200182805461104f906149e8565b801561109c5780601f106110715761010080835404028352916020019161109c565b820191906000526020600020905b81548152906001019060200180831161107f57829003601f168201915b50505050508152602001600d600087815260200190815260200160002060020180546110c7906149e8565b80601f01602080910402602001604051908101604052809291908181526020018280546110f3906149e8565b80156111405780601f1061111557610100808354040283529160200191611140565b820191906000526020600020905b81548152906001019060200180831161112357829003601f168201915b50505050508152602001600d6000878152602001908152602001600020600301805461116b906149e8565b80601f0160208091040260200160405190810160405280929190818152602001828054611197906149e8565b80156111e45780601f106111b9576101008083540402835291602001916111e4565b820191906000526020600020905b8154815290600101906020018083116111c757829003601f168201915b50505050508152602001600015158152509250505061127b565b6040518060e001604052808360ff1681526020018260ff16815260200160405180602001604052806000815250815260200160405180602001604052806000815250815260200160405180602001604052806000815250815260200160405180602001604052806000815250815260200160011515815250925050505b919050565b61129b83838360405180602001604052806000815250611c19565b505050565b6112b16112ab61208b565b8261240e565b6112f0576040517f08c379a00000000000000000000000000000000000000000000000000000000081526004016112e790614dd3565b60405180910390fd5b6112f98161289a565b50565b6000611306610b61565b8210611347576040517f08c379a000000000000000000000000000000000000000000000000000000000815260040161133e906150ac565b60405180910390fd5b600a828154811061135b5761135a6150cc565b5b90600052602060002001549050919050565b6113816000801b61137c61208b565b611604565b6113c0576040517f08c379a00000000000000000000000000000000000000000000000000000000081526004016113b790615147565b60405180910390fd5b80601090805190602001906113d6929190613d54565b5050565b6000600c60009054906101000a900460ff16905090565b6000806004600084815260200190815260200160002060009054906101000a900473ffffffffffffffffffffffffffffffffffffffff169050600073ffffffffffffffffffffffffffffffffffffffff168173ffffffffffffffffffffffffffffffffffffffff16141561149a576040517f08c379a0000000000000000000000000000000000000000000000000000000008152600401611491906151b3565b60405180910390fd5b80915050919050565b60008073ffffffffffffffffffffffffffffffffffffffff168273ffffffffffffffffffffffffffffffffffffffff161415611514576040517f08c379a000000000000000000000000000000000000000000000000000000000815260040161150b90615245565b60405180910390fd5b600560008373ffffffffffffffffffffffffffffffffffffffff1673ffffffffffffffffffffffffffffffffffffffff168152602001908152602001600020549050919050565b61158c7f65d7a28e3265b37a6474929f336521b332c1681b933f6cb9f3376673440d862a61158761208b565b611604565b6115cb576040517f08c379a00000000000000000000000000000000000000000000000000000000081526004016115c2906152d7565b60405180910390fd5b6115d36129b7565b565b60006115fc8260016000868152602001908152602001600020612a1a90919063ffffffff16565b905092915050565b600080600084815260200190815260200160002060000160008373ffffffffffffffffffffffffffffffffffffffff1673ffffffffffffffffffffffffffffffffffffffff16815260200190815260200160002060009054906101000a900460ff16905092915050565b61167785612040565b6000611682866113f1565b90503373ffffffffffffffffffffffffffffffffffffffff168173ffffffffffffffffffffffffffffffffffffffff16146116f2576040517f08c379a00000000000000000000000000000000000000000000000000000000081526004016116e990615343565b60405180910390fd5b6000859050600081511161173b576040517f08c379a0000000000000000000000000000000000000000000000000000000008152600401611732906153af565b60405180910390fd5b608081511115611780576040517f08c379a00000000000000000000000000000000000000000000000000000000081526004016117779061541b565b60405180910390fd5b6000859050610200815111156117cb576040517f08c379a00000000000000000000000000000000000000000000000000000000081526004016117c2906154ad565b60405180910390fd5b60008590506000815111611814576040517f08c379a000000000000000000000000000000000000000000000000000000000815260040161180b90615519565b60405180910390fd5b608081511115611859576040517f08c379a000000000000000000000000000000000000000000000000000000000815260040161185090615585565b60405180910390fd5b600085905060008151116118a2576040517f08c379a0000000000000000000000000000000000000000000000000000000008152600401611899906155f1565b60405180910390fd5b610200815111156118e8576040517f08c379a00000000000000000000000000000000000000000000000000000000081526004016118df90615683565b60405180910390fd5b60405180608001604052808a815260200189815260200188815260200187815250600d60008c81526020019081526020016000206000820151816000019080519060200190611938929190613d54565b506020820151816001019080519060200190611955929190613d54565b506040820151816002019080519060200190611972929190613d54565b50606082015181600301908051906020019061198f929190613d54565b50905050897f469c871f252afc0b943e5a58cc28eb9b9d731f96079d3e71309c78feb01eb1a5600d60008d81526020019081526020016000206040516119d591906157ae565b60405180910390a250505050505050505050565b6060600380546119f8906149e8565b80601f0160208091040260200160405190810160405280929190818152602001828054611a24906149e8565b8015611a715780601f10611a4657610100808354040283529160200191611a71565b820191906000526020600020905b815481529060010190602001808311611a5457829003601f168201915b5050505050905090565b600080611a88600e612a34565b905060006101098210611aa557670de0b6b3a76400009050611ad2565b60a58210611abd576706f05b59d3b200009050611ad1565b60648210611ad05766b1a2bc2ec5000090505b5b5b809250505090565b6000801b81565b611af3611aec61208b565b8383612a42565b5050565b6060600061017467ffffffffffffffff811115611b1757611b16614388565b5b604051908082528060200260200182016040528015611b5057816020015b611b3d613d0f565b815260200190600190039081611b355790505b5090506000600190505b600c8111611c11576000600190505b601f8111611bfd576000600182601f600186611b8591906157d0565b611b8f9190614cb1565b611b999190614d0b565b611ba391906157d0565b9050600082606485611bb59190614cb1565b611bbf9190614d0b565b9050611bca81610f09565b858381518110611bdd57611bdc6150cc565b5b602002602001018190525050508080611bf590615804565b915050611b69565b508080611c0990615804565b915050611b5a565b508091505090565b611c2a611c2461208b565b8361240e565b611c69576040517f08c379a0000000000000000000000000000000000000000000000000000000008152600401611c6090614dd3565b60405180910390fd5b611c7584848484612baf565b50505050565b6060611c8682612040565b6000611c90612c0b565b90506000815111611cb05760405180602001604052806000815250611cdb565b80611cba84612c9d565b604051602001611ccb929190615889565b6040516020818303038152906040525b915050919050565b6000611d0060016000848152602001908152602001600020612dfe565b9050919050565b611d1082610d27565b611d198161270a565b611d238383612752565b505050565b60008082606485611d399190614cb1565b611d439190614d0b565b9050611d4e816123a2565b611d5c576000915050611d9e565b611d6461208b565b73ffffffffffffffffffffffffffffffffffffffff16611d83826113f1565b73ffffffffffffffffffffffffffffffffffffffff16149150505b92915050565b60008173ffffffffffffffffffffffffffffffffffffffff16600f60009054906101000a900473ffffffffffffffffffffffffffffffffffffffff1673ffffffffffffffffffffffffffffffffffffffff16149050919050565b7f65d7a28e3265b37a6474929f336521b332c1681b933f6cb9f3376673440d862a81565b6000600760008473ffffffffffffffffffffffffffffffffffffffff1673ffffffffffffffffffffffffffffffffffffffff16815260200190815260200160002060008373ffffffffffffffffffffffffffffffffffffffff1673ffffffffffffffffffffffffffffffffffffffff16815260200190815260200160002060009054906101000a900460ff16905092915050565b611ec08282611604565b611f9257600160008084815260200190815260200160002060000160008373ffffffffffffffffffffffffffffffffffffffff1673ffffffffffffffffffffffffffffffffffffffff16815260200190815260200160002060006101000a81548160ff021916908315150217905550611f3761208b565b73ffffffffffffffffffffffffffffffffffffffff168173ffffffffffffffffffffffffffffffffffffffff16837f2f8788117e7eff1d82e926ec794901d17c78024a50270940304540a733656f0d60405160405180910390a45b5050565b6000611fbe836000018373ffffffffffffffffffffffffffffffffffffffff1660001b612e13565b905092915050565b60007f780e9d63000000000000000000000000000000000000000000000000000000007bffffffffffffffffffffffffffffffffffffffffffffffffffffffff1916827bffffffffffffffffffffffffffffffffffffffffffffffffffffffff19161480612039575061203882612e83565b5b9050919050565b612049816123a2565b612088576040517f08c379a000000000000000000000000000000000000000000000000000000000815260040161207f906151b3565b60405180910390fd5b50565b600033905090565b816006600083815260200190815260200160002060006101000a81548173ffffffffffffffffffffffffffffffffffffffff021916908373ffffffffffffffffffffffffffffffffffffffff160217905550808273ffffffffffffffffffffffffffffffffffffffff16612106836113f1565b73ffffffffffffffffffffffffffffffffffffffff167f8c5be1e5ebec7d5bd14f71427d1e84f3dd0314c0f7b2291e5b200ac8c7c3b92560405160405180910390a45050565b6000600f60009054906101000a900473ffffffffffffffffffffffffffffffffffffffff1690508073ffffffffffffffffffffffffffffffffffffffff166108fc839081150290604051600060405180830381858888f193505050501580156121b9573d6000803e3d6000fd5b506121c4600e612f65565b5050565b600073ffffffffffffffffffffffffffffffffffffffff168273ffffffffffffffffffffffffffffffffffffffff161415612238576040517f08c379a000000000000000000000000000000000000000000000000000000000815260040161222f906158f9565b60405180910390fd5b612241816123a2565b15612281576040517f08c379a000000000000000000000000000000000000000000000000000000000815260040161227890615965565b60405180910390fd5b61228d60008383612f7b565b6001600560008473ffffffffffffffffffffffffffffffffffffffff1673ffffffffffffffffffffffffffffffffffffffff16815260200190815260200160002060008282546122dd9190614d0b565b92505081905550816004600083815260200190815260200160002060006101000a81548173ffffffffffffffffffffffffffffffffffffffff021916908373ffffffffffffffffffffffffffffffffffffffff160217905550808273ffffffffffffffffffffffffffffffffffffffff16600073ffffffffffffffffffffffffffffffffffffffff167fddf252ad1be2c89b69c2b068fc378daa952ba7f163c4a11628f55a4df523b3ef60405160405180910390a461239e60008383612f8b565b5050565b60008073ffffffffffffffffffffffffffffffffffffffff166004600084815260200190815260200160002060009054906101000a900473ffffffffffffffffffffffffffffffffffffffff1673ffffffffffffffffffffffffffffffffffffffff1614159050919050565b60008061241a836113f1565b90508073ffffffffffffffffffffffffffffffffffffffff168473ffffffffffffffffffffffffffffffffffffffff16148061245c575061245b8185611e22565b5b8061249a57508373ffffffffffffffffffffffffffffffffffffffff1661248284610a03565b73ffffffffffffffffffffffffffffffffffffffff16145b91505092915050565b8273ffffffffffffffffffffffffffffffffffffffff166124c3826113f1565b73ffffffffffffffffffffffffffffffffffffffff1614612519576040517f08c379a0000000000000000000000000000000000000000000000000000000008152600401612510906159f7565b60405180910390fd5b600073ffffffffffffffffffffffffffffffffffffffff168273ffffffffffffffffffffffffffffffffffffffff161415612589576040517f08c379a000000000000000000000000000000000000000000000000000000000815260040161258090615a89565b60405180910390fd5b612594838383612f7b565b61259f600082612093565b6001600560008573ffffffffffffffffffffffffffffffffffffffff1673ffffffffffffffffffffffffffffffffffffffff16815260200190815260200160002060008282546125ef91906157d0565b925050819055506001600560008473ffffffffffffffffffffffffffffffffffffffff1673ffffffffffffffffffffffffffffffffffffffff16815260200190815260200160002060008282546126469190614d0b565b92505081905550816004600083815260200190815260200160002060006101000a81548173ffffffffffffffffffffffffffffffffffffffff021916908373ffffffffffffffffffffffffffffffffffffffff160217905550808273ffffffffffffffffffffffffffffffffffffffff168473ffffffffffffffffffffffffffffffffffffffff167fddf252ad1be2c89b69c2b068fc378daa952ba7f163c4a11628f55a4df523b3ef60405160405180910390a4612705838383612f8b565b505050565b61271b8161271661208b565b612f90565b50565b6127288282611eb6565b61274d8160016000858152602001908152602001600020611f9690919063ffffffff16565b505050565b61275c828261302d565b612781816001600085815260200190815260200160002061310e90919063ffffffff16565b505050565b61278e61313e565b6000600c60006101000a81548160ff0219169083151502179055507f5db9ee0a495bf2e6ff9c91a7834c1ba4fdd244a5e8aa4e537bd38aeae4b073aa6127d261208b565b6040516127df9190614025565b60405180910390a1565b600080600d6000848152602001908152602001600020600001805461280d906149e8565b80601f0160208091040260200160405190810160405280929190818152602001828054612839906149e8565b80156128865780601f1061285b57610100808354040283529160200191612886565b820191906000526020600020905b81548152906001019060200180831161286957829003601f168201915b505050505090506000815111915050919050565b60006128a5826113f1565b90506128b381600084612f7b565b6128be600083612093565b6001600560008373ffffffffffffffffffffffffffffffffffffffff1673ffffffffffffffffffffffffffffffffffffffff168152602001908152602001600020600082825461290e91906157d0565b925050819055506004600083815260200190815260200160002060006101000a81549073ffffffffffffffffffffffffffffffffffffffff021916905581600073ffffffffffffffffffffffffffffffffffffffff168273ffffffffffffffffffffffffffffffffffffffff167fddf252ad1be2c89b69c2b068fc378daa952ba7f163c4a11628f55a4df523b3ef60405160405180910390a46129b381600084612f8b565b5050565b6129bf613187565b6001600c60006101000a81548160ff0219169083151502179055507f62e78cea01bee320cd4e420270b5ea74000d11b0c9f74754ebdbfc544b05a258612a0361208b565b604051612a109190614025565b60405180910390a1565b6000612a2983600001836131d1565b60001c905092915050565b600081600001549050919050565b8173ffffffffffffffffffffffffffffffffffffffff168373ffffffffffffffffffffffffffffffffffffffff161415612ab1576040517f08c379a0000000000000000000000000000000000000000000000000000000008152600401612aa890615af5565b60405180910390fd5b80600760008573ffffffffffffffffffffffffffffffffffffffff1673ffffffffffffffffffffffffffffffffffffffff16815260200190815260200160002060008473ffffffffffffffffffffffffffffffffffffffff1673ffffffffffffffffffffffffffffffffffffffff16815260200190815260200160002060006101000a81548160ff0219169083151502179055508173ffffffffffffffffffffffffffffffffffffffff168373ffffffffffffffffffffffffffffffffffffffff167f17307eab39ab6107e8899845ad3d59bd9653f200f220920489ca2b5937696c3183604051612ba29190613eab565b60405180910390a3505050565b612bba8484846124a3565b612bc6848484846131fc565b612c05576040517f08c379a0000000000000000000000000000000000000000000000000000000008152600401612bfc90615b87565b60405180910390fd5b50505050565b606060108054612c1a906149e8565b80601f0160208091040260200160405190810160405280929190818152602001828054612c46906149e8565b8015612c935780601f10612c6857610100808354040283529160200191612c93565b820191906000526020600020905b815481529060010190602001808311612c7657829003601f168201915b5050505050905090565b60606000821415612ce5576040518060400160405280600181526020017f30000000000000000000000000000000000000000000000000000000000000008152509050612df9565b600082905060005b60008214612d17578080612d0090615804565b915050600a82612d109190614fd8565b9150612ced565b60008167ffffffffffffffff811115612d3357612d32614388565b5b6040519080825280601f01601f191660200182016040528015612d655781602001600182028036833780820191505090505b5090505b60008514612df257600182612d7e91906157d0565b9150600a85612d8d9190615009565b6030612d999190614d0b565b60f81b818381518110612daf57612dae6150cc565b5b60200101907effffffffffffffffffffffffffffffffffffffffffffffffffffffffffffff1916908160001a905350600a85612deb9190614fd8565b9450612d69565b8093505050505b919050565b6000612e0c82600001613393565b9050919050565b6000612e1f83836133a4565b612e78578260000182908060018154018082558091505060019003906000526020600020016000909190919091505582600001805490508360010160008481526020019081526020016000208190555060019050612e7d565b600090505b92915050565b60007f80ac58cd000000000000000000000000000000000000000000000000000000007bffffffffffffffffffffffffffffffffffffffffffffffffffffffff1916827bffffffffffffffffffffffffffffffffffffffffffffffffffffffff19161480612f4e57507f5b5e139f000000000000000000000000000000000000000000000000000000007bffffffffffffffffffffffffffffffffffffffffffffffffffffffff1916827bffffffffffffffffffffffffffffffffffffffffffffffffffffffff1916145b80612f5e5750612f5d826133c7565b5b9050919050565b6001816000016000828254019250508190555050565b612f86838383613441565b505050565b505050565b612f9a8282611604565b61302957612fbf8173ffffffffffffffffffffffffffffffffffffffff166014613499565b612fcd8360001c6020613499565b604051602001612fde929190615c3f565b6040516020818303038152906040526040517f08c379a00000000000000000000000000000000000000000000000000000000081526004016130209190613f5f565b60405180910390fd5b5050565b6130378282611604565b1561310a57600080600084815260200190815260200160002060000160008373ffffffffffffffffffffffffffffffffffffffff1673ffffffffffffffffffffffffffffffffffffffff16815260200190815260200160002060006101000a81548160ff0219169083151502179055506130af61208b565b73ffffffffffffffffffffffffffffffffffffffff168173ffffffffffffffffffffffffffffffffffffffff16837ff6391f5c32d9c69d2a47ea670b442974b53935d1edc7fd64eb21e047a839171b60405160405180910390a45b5050565b6000613136836000018373ffffffffffffffffffffffffffffffffffffffff1660001b6136d5565b905092915050565b6131466113da565b613185576040517f08c379a000000000000000000000000000000000000000000000000000000000815260040161317c90615cc5565b60405180910390fd5b565b61318f6113da565b156131cf576040517f08c379a00000000000000000000000000000000000000000000000000000000081526004016131c690615d31565b60405180910390fd5b565b60008260000182815481106131e9576131e86150cc565b5b9060005260206000200154905092915050565b600061321d8473ffffffffffffffffffffffffffffffffffffffff166137e9565b15613386578373ffffffffffffffffffffffffffffffffffffffff1663150b7a0261324661208b565b8786866040518563ffffffff1660e01b81526004016132689493929190615da6565b602060405180830381600087803b15801561328257600080fd5b505af19250505080156132b357506040513d601f19601f820116820180604052508101906132b09190615e07565b60015b613336573d80600081146132e3576040519150601f19603f3d011682016040523d82523d6000602084013e6132e8565b606091505b5060008151141561332e576040517f08c379a000000000000000000000000000000000000000000000000000000000815260040161332590615b87565b60405180910390fd5b805181602001fd5b63150b7a0260e01b7bffffffffffffffffffffffffffffffffffffffffffffffffffffffff1916817bffffffffffffffffffffffffffffffffffffffffffffffffffffffff19161491505061338b565b600190505b949350505050565b600081600001805490509050919050565b600080836001016000848152602001908152602001600020541415905092915050565b60007f5a05180f000000000000000000000000000000000000000000000000000000007bffffffffffffffffffffffffffffffffffffffffffffffffffffffff1916827bffffffffffffffffffffffffffffffffffffffffffffffffffffffff1916148061343a57506134398261380c565b5b9050919050565b61344c838383613886565b6134546113da565b15613494576040517f08c379a000000000000000000000000000000000000000000000000000000000815260040161348b90615ea6565b60405180910390fd5b505050565b6060600060028360026134ac9190614cb1565b6134b69190614d0b565b67ffffffffffffffff8111156134cf576134ce614388565b5b6040519080825280601f01601f1916602001820160405280156135015781602001600182028036833780820191505090505b5090507f300000000000000000000000000000000000000000000000000000000000000081600081518110613539576135386150cc565b5b60200101907effffffffffffffffffffffffffffffffffffffffffffffffffffffffffffff1916908160001a9053507f78000000000000000000000000000000000000000000000000000000000000008160018151811061359d5761359c6150cc565b5b60200101907effffffffffffffffffffffffffffffffffffffffffffffffffffffffffffff1916908160001a905350600060018460026135dd9190614cb1565b6135e79190614d0b565b90505b6001811115613687577f3031323334353637383961626364656600000000000000000000000000000000600f861660108110613629576136286150cc565b5b1a60f81b8282815181106136405761363f6150cc565b5b60200101907effffffffffffffffffffffffffffffffffffffffffffffffffffffffffffff1916908160001a905350600485901c94508061368090615ec6565b90506135ea565b50600084146136cb576040517f08c379a00000000000000000000000000000000000000000000000000000000081526004016136c290615f3c565b60405180910390fd5b8091505092915050565b600080836001016000848152602001908152602001600020549050600081146137dd57600060018261370791906157d0565b905060006001866000018054905061371f91906157d0565b905081811461378e5760008660000182815481106137405761373f6150cc565b5b9060005260206000200154905080876000018481548110613764576137636150cc565b5b90600052602060002001819055508387600101600083815260200190815260200160002081905550505b856000018054806137a2576137a1615f5c565b5b6001900381819060005260206000200160009055905585600101600086815260200190815260200160002060009055600193505050506137e3565b60009150505b92915050565b6000808273ffffffffffffffffffffffffffffffffffffffff163b119050919050565b60007f7965db0b000000000000000000000000000000000000000000000000000000007bffffffffffffffffffffffffffffffffffffffffffffffffffffffff1916827bffffffffffffffffffffffffffffffffffffffffffffffffffffffff1916148061387f575061387e8261399a565b5b9050919050565b613891838383613a04565b600073ffffffffffffffffffffffffffffffffffffffff168373ffffffffffffffffffffffffffffffffffffffff1614156138d4576138cf81613a09565b613913565b8173ffffffffffffffffffffffffffffffffffffffff168373ffffffffffffffffffffffffffffffffffffffff1614613912576139118382613a52565b5b5b600073ffffffffffffffffffffffffffffffffffffffff168273ffffffffffffffffffffffffffffffffffffffff1614156139565761395181613bbf565b613995565b8273ffffffffffffffffffffffffffffffffffffffff168273ffffffffffffffffffffffffffffffffffffffff1614613994576139938282613c90565b5b5b505050565b60007f01ffc9a7000000000000000000000000000000000000000000000000000000007bffffffffffffffffffffffffffffffffffffffffffffffffffffffff1916827bffffffffffffffffffffffffffffffffffffffffffffffffffffffff1916149050919050565b505050565b600a80549050600b600083815260200190815260200160002081905550600a81908060018154018082558091505060019003906000526020600020016000909190919091505550565b60006001613a5f846114a3565b613a6991906157d0565b9050600060096000848152602001908152602001600020549050818114613b4e576000600860008673ffffffffffffffffffffffffffffffffffffffff1673ffffffffffffffffffffffffffffffffffffffff168152602001908152602001600020600084815260200190815260200160002054905080600860008773ffffffffffffffffffffffffffffffffffffffff1673ffffffffffffffffffffffffffffffffffffffff168152602001908152602001600020600084815260200190815260200160002081905550816009600083815260200190815260200160002081905550505b6009600084815260200190815260200160002060009055600860008573ffffffffffffffffffffffffffffffffffffffff1673ffffffffffffffffffffffffffffffffffffffff16815260200190815260200160002060008381526020019081526020016000206000905550505050565b60006001600a80549050613bd391906157d0565b90506000600b60008481526020019081526020016000205490506000600a8381548110613c0357613c026150cc565b5b9060005260206000200154905080600a8381548110613c2557613c246150cc565b5b906000526020600020018190555081600b600083815260200190815260200160002081905550600b600085815260200190815260200160002060009055600a805480613c7457613c73615f5c565b5b6001900381819060005260206000200160009055905550505050565b6000613c9b836114a3565b905081600860008573ffffffffffffffffffffffffffffffffffffffff1673ffffffffffffffffffffffffffffffffffffffff168152602001908152602001600020600083815260200190815260200160002081905550806009600084815260200190815260200160002081905550505050565b6040518060e00160405280600060ff168152602001600060ff168152602001606081526020016060815260200160608152602001606081526020016000151581525090565b828054613d60906149e8565b90600052602060002090601f016020900481019282613d825760008555613dc9565b82601f10613d9b57805160ff1916838001178555613dc9565b82800160010185558215613dc9579182015b82811115613dc8578251825591602001919060010190613dad565b5b509050613dd69190613dda565b5090565b5b80821115613df3576000816000905550600101613ddb565b5090565b6000604051905090565b600080fd5b600080fd5b60007fffffffff0000000000000000000000000000000000000000000000000000000082169050919050565b613e4081613e0b565b8114613e4b57600080fd5b50565b600081359050613e5d81613e37565b92915050565b600060208284031215613e7957613e78613e01565b5b6000613e8784828501613e4e565b91505092915050565b60008115159050919050565b613ea581613e90565b82525050565b6000602082019050613ec06000830184613e9c565b92915050565b600081519050919050565b600082825260208201905092915050565b60005b83811015613f00578082015181840152602081019050613ee5565b83811115613f0f576000848401525b50505050565b6000601f19601f8301169050919050565b6000613f3182613ec6565b613f3b8185613ed1565b9350613f4b818560208601613ee2565b613f5481613f15565b840191505092915050565b60006020820190508181036000830152613f798184613f26565b905092915050565b6000819050919050565b613f9481613f81565b8114613f9f57600080fd5b50565b600081359050613fb181613f8b565b92915050565b600060208284031215613fcd57613fcc613e01565b5b6000613fdb84828501613fa2565b91505092915050565b600073ffffffffffffffffffffffffffffffffffffffff82169050919050565b600061400f82613fe4565b9050919050565b61401f81614004565b82525050565b600060208201905061403a6000830184614016565b92915050565b61404981614004565b811461405457600080fd5b50565b60008135905061406681614040565b92915050565b6000806040838503121561408357614082613e01565b5b600061409185828601614057565b92505060206140a285828601613fa2565b9150509250929050565b6140b581613f81565b82525050565b60006020820190506140d060008301846140ac565b92915050565b600080604083850312156140ed576140ec613e01565b5b60006140fb85828601613fa2565b925050602061410c85828601613fa2565b9150509250929050565b60008060006060848603121561412f5761412e613e01565b5b600061413d86828701614057565b935050602061414e86828701614057565b925050604061415f86828701613fa2565b9150509250925092565b6000819050919050565b61417c81614169565b811461418757600080fd5b50565b60008135905061419981614173565b92915050565b6000602082840312156141b5576141b4613e01565b5b60006141c38482850161418a565b91505092915050565b6141d581614169565b82525050565b60006020820190506141f060008301846141cc565b92915050565b6000806040838503121561420d5761420c613e01565b5b600061421b8582860161418a565b925050602061422c85828601614057565b9150509250929050565b600060ff82169050919050565b61424c81614236565b82525050565b600082825260208201905092915050565b600061426e82613ec6565b6142788185614252565b9350614288818560208601613ee2565b61429181613f15565b840191505092915050565b6142a581613e90565b82525050565b600060e0830160008301516142c36000860182614243565b5060208301516142d66020860182614243565b50604083015184820360408601526142ee8282614263565b915050606083015184820360608601526143088282614263565b915050608083015184820360808601526143228282614263565b91505060a083015184820360a086015261433c8282614263565b91505060c083015161435160c086018261429c565b508091505092915050565b6000602082019050818103600083015261437681846142ab565b905092915050565b600080fd5b600080fd5b7f4e487b7100000000000000000000000000000000000000000000000000000000600052604160045260246000fd5b6143c082613f15565b810181811067ffffffffffffffff821117156143df576143de614388565b5b80604052505050565b60006143f2613df7565b90506143fe82826143b7565b919050565b600067ffffffffffffffff82111561441e5761441d614388565b5b61442782613f15565b9050602081019050919050565b82818337600083830152505050565b600061445661445184614403565b6143e8565b90508281526020810184848401111561447257614471614383565b5b61447d848285614434565b509392505050565b600082601f83011261449a5761449961437e565b5b81356144aa848260208601614443565b91505092915050565b6000602082840312156144c9576144c8613e01565b5b600082013567ffffffffffffffff8111156144e7576144e6613e06565b5b6144f384828501614485565b91505092915050565b60006020828403121561451257614511613e01565b5b600061452084828501614057565b91505092915050565b600080604083850312156145405761453f613e01565b5b600061454e8582860161418a565b925050602061455f85828601613fa2565b9150509250929050565b600080600080600060a0868803121561458557614584613e01565b5b600061459388828901613fa2565b955050602086013567ffffffffffffffff8111156145b4576145b3613e06565b5b6145c088828901614485565b945050604086013567ffffffffffffffff8111156145e1576145e0613e06565b5b6145ed88828901614485565b935050606086013567ffffffffffffffff81111561460e5761460d613e06565b5b61461a88828901614485565b925050608086013567ffffffffffffffff81111561463b5761463a613e06565b5b61464788828901614485565b9150509295509295909350565b61465d81613e90565b811461466857600080fd5b50565b60008135905061467a81614654565b92915050565b6000806040838503121561469757614696613e01565b5b60006146a585828601614057565b92505060206146b68582860161466b565b9150509250929050565b600081519050919050565b600082825260208201905092915050565b6000819050602082019050919050565b600060e0830160008301516147046000860182614243565b5060208301516147176020860182614243565b506040830151848203604086015261472f8282614263565b915050606083015184820360608601526147498282614263565b915050608083015184820360808601526147638282614263565b91505060a083015184820360a086015261477d8282614263565b91505060c083015161479260c086018261429c565b508091505092915050565b60006147a983836146ec565b905092915050565b6000602082019050919050565b60006147c9826146c0565b6147d381856146cb565b9350836020820285016147e5856146dc565b8060005b858110156148215784840389528151614802858261479d565b945061480d836147b1565b925060208a019950506001810190506147e9565b50829750879550505050505092915050565b6000602082019050818103600083015261484d81846147be565b905092915050565b600067ffffffffffffffff8211156148705761486f614388565b5b61487982613f15565b9050602081019050919050565b600061489961489484614855565b6143e8565b9050828152602081018484840111156148b5576148b4614383565b5b6148c0848285614434565b509392505050565b600082601f8301126148dd576148dc61437e565b5b81356148ed848260208601614886565b91505092915050565b600080600080608085870312156149105761490f613e01565b5b600061491e87828801614057565b945050602061492f87828801614057565b935050604061494087828801613fa2565b925050606085013567ffffffffffffffff81111561496157614960613e06565b5b61496d878288016148c8565b91505092959194509250565b600080604083850312156149905761498f613e01565b5b600061499e85828601614057565b92505060206149af85828601614057565b9150509250929050565b7f4e487b7100000000000000000000000000000000000000000000000000000000600052602260045260246000fd5b60006002820490506001821680614a0057607f821691505b60208210811415614a1457614a136149b9565b5b50919050565b7f4552433732313a20617070726f76616c20746f2063757272656e74206f776e6560008201527f7200000000000000000000000000000000000000000000000000000000000000602082015250565b6000614a76602183613ed1565b9150614a8182614a1a565b604082019050919050565b60006020820190508181036000830152614aa581614a69565b9050919050565b7f4552433732313a20617070726f76652063616c6c6572206973206e6f7420746f60008201527f6b656e206f776e6572206e6f7220617070726f76656420666f7220616c6c0000602082015250565b6000614b08603e83613ed1565b9150614b1382614aac565b604082019050919050565b60006020820190508181036000830152614b3781614afb565b9050919050565b7f6d75737420706179000000000000000000000000000000000000000000000000600082015250565b6000614b74600883613ed1565b9150614b7f82614b3e565b602082019050919050565b60006020820190508181036000830152614ba381614b67565b9050919050565b7f6d6f6e746820697320696e76616c696400000000000000000000000000000000600082015250565b6000614be0601083613ed1565b9150614beb82614baa565b602082019050919050565b60006020820190508181036000830152614c0f81614bd3565b9050919050565b7f64617920697320696e76616c6964000000000000000000000000000000000000600082015250565b6000614c4c600e83613ed1565b9150614c5782614c16565b602082019050919050565b60006020820190508181036000830152614c7b81614c3f565b9050919050565b7f4e487b7100000000000000000000000000000000000000000000000000000000600052601160045260246000fd5b6000614cbc82613f81565b9150614cc783613f81565b9250817fffffffffffffffffffffffffffffffffffffffffffffffffffffffffffffffff0483118215151615614d0057614cff614c82565b5b828202905092915050565b6000614d1682613f81565b9150614d2183613f81565b9250827fffffffffffffffffffffffffffffffffffffffffffffffffffffffffffffffff03821115614d5657614d55614c82565b5b828201905092915050565b7f4552433732313a2063616c6c6572206973206e6f7420746f6b656e206f776e6560008201527f72206e6f7220617070726f766564000000000000000000000000000000000000602082015250565b6000614dbd602e83613ed1565b9150614dc882614d61565b604082019050919050565b60006020820190508181036000830152614dec81614db0565b9050919050565b7f455243373231456e756d657261626c653a206f776e657220696e646578206f7560008201527f74206f6620626f756e6473000000000000000000000000000000000000000000602082015250565b6000614e4f602b83613ed1565b9150614e5a82614df3565b604082019050919050565b60006020820190508181036000830152614e7e81614e42565b9050919050565b7f416363657373436f6e74726f6c3a2063616e206f6e6c792072656e6f756e636560008201527f20726f6c657320666f722073656c660000000000000000000000000000000000602082015250565b6000614ee1602f83613ed1565b9150614eec82614e85565b604082019050919050565b60006020820190508181036000830152614f1081614ed4565b9050919050565b7f4552433732315072657365744d696e7465725061757365724175746f49643a2060008201527f6d75737420686176652070617573657220726f6c6520746f20756e7061757365602082015250565b6000614f73604083613ed1565b9150614f7e82614f17565b604082019050919050565b60006020820190508181036000830152614fa281614f66565b9050919050565b7f4e487b7100000000000000000000000000000000000000000000000000000000600052601260045260246000fd5b6000614fe382613f81565b9150614fee83613f81565b925082614ffe57614ffd614fa9565b5b828204905092915050565b600061501482613f81565b915061501f83613f81565b92508261502f5761502e614fa9565b5b828206905092915050565b7f455243373231456e756d657261626c653a20676c6f62616c20696e646578206f60008201527f7574206f6620626f756e64730000000000000000000000000000000000000000602082015250565b6000615096602c83613ed1565b91506150a18261503a565b604082019050919050565b600060208201905081810360008301526150c581615089565b9050919050565b7f4e487b7100000000000000000000000000000000000000000000000000000000600052603260045260246000fd5b7f43616c6c6572206973206e6f742061646d696e00000000000000000000000000600082015250565b6000615131601383613ed1565b915061513c826150fb565b602082019050919050565b6000602082019050818103600083015261516081615124565b9050919050565b7f4552433732313a20696e76616c696420746f6b656e2049440000000000000000600082015250565b600061519d601883613ed1565b91506151a882615167565b602082019050919050565b600060208201905081810360008301526151cc81615190565b9050919050565b7f4552433732313a2061646472657373207a65726f206973206e6f74206120766160008201527f6c6964206f776e65720000000000000000000000000000000000000000000000602082015250565b600061522f602983613ed1565b915061523a826151d3565b604082019050919050565b6000602082019050818103600083015261525e81615222565b9050919050565b7f4552433732315072657365744d696e7465725061757365724175746f49643a2060008201527f6d75737420686176652070617573657220726f6c6520746f2070617573650000602082015250565b60006152c1603e83613ed1565b91506152cc82615265565b604082019050919050565b600060208201905081810360008301526152f0816152b4565b9050919050565b7f6d7573742068617665206f776e657220726f6c6520746f207365740000000000600082015250565b600061532d601b83613ed1565b9150615338826152f7565b602082019050919050565b6000602082019050818103600083015261535c81615320565b9050919050565b7f6e616d6520697320726571756972656400000000000000000000000000000000600082015250565b6000615399601083613ed1565b91506153a482615363565b602082019050919050565b600060208201905081810360008301526153c88161538c565b9050919050565b7f6e616d65206973206c696d6974656420746f2031323820627974657300000000600082015250565b6000615405601c83613ed1565b9150615410826153cf565b602082019050919050565b60006020820190508181036000830152615434816153f8565b9050919050565b7f6465736372697074696f6e206973206c696d6974656420746f2035313220627960008201527f7465730000000000000000000000000000000000000000000000000000000000602082015250565b6000615497602383613ed1565b91506154a28261543b565b604082019050919050565b600060208201905081810360008301526154c68161548a565b9050919050565b7f617574686f722069732072657175697265640000000000000000000000000000600082015250565b6000615503601283613ed1565b915061550e826154cd565b602082019050919050565b60006020820190508181036000830152615532816154f6565b9050919050565b7f617574686f72206973206c696d6974656420746f203132382062797465730000600082015250565b600061556f601e83613ed1565b915061557a82615539565b602082019050919050565b6000602082019050818103600083015261559e81615562565b9050919050565b7f617574686f7255726c2069732072657175697265640000000000000000000000600082015250565b60006155db601583613ed1565b91506155e6826155a5565b602082019050919050565b6000602082019050818103600083015261560a816155ce565b9050919050565b7f617574686f7255726c206973206c696d6974656420746f20353132206279746560008201527f7300000000000000000000000000000000000000000000000000000000000000602082015250565b600061566d602183613ed1565b915061567882615611565b604082019050919050565b6000602082019050818103600083015261569c81615660565b9050919050565b60008190508160005260206000209050919050565b600081546156c5816149e8565b6156cf8186614252565b945060018216600081146156ea57600181146156fc5761572f565b60ff198316865260208601935061572f565b615705856156a3565b60005b8381101561572757815481890152600182019150602081019050615708565b808801955050505b50505092915050565b6000608083016000808401858303600087015261575583826156b8565b92505060018401858303602087015261576e83826156b8565b92505060028401858303604087015261578783826156b8565b9250506003840185830360608701526157a083826156b8565b925050819250505092915050565b600060208201905081810360008301526157c88184615738565b905092915050565b60006157db82613f81565b91506157e683613f81565b9250828210156157f9576157f8614c82565b5b828203905092915050565b600061580f82613f81565b91507fffffffffffffffffffffffffffffffffffffffffffffffffffffffffffffffff82141561584257615841614c82565b5b600182019050919050565b600081905092915050565b600061586382613ec6565b61586d818561584d565b935061587d818560208601613ee2565b80840191505092915050565b60006158958285615858565b91506158a18284615858565b91508190509392505050565b7f4552433732313a206d696e7420746f20746865207a65726f2061646472657373600082015250565b60006158e3602083613ed1565b91506158ee826158ad565b602082019050919050565b60006020820190508181036000830152615912816158d6565b9050919050565b7f4552433732313a20746f6b656e20616c7265616479206d696e74656400000000600082015250565b600061594f601c83613ed1565b915061595a82615919565b602082019050919050565b6000602082019050818103600083015261597e81615942565b9050919050565b7f4552433732313a207472616e736665722066726f6d20696e636f72726563742060008201527f6f776e6572000000000000000000000000000000000000000000000000000000602082015250565b60006159e1602583613ed1565b91506159ec82615985565b604082019050919050565b60006020820190508181036000830152615a10816159d4565b9050919050565b7f4552433732313a207472616e7366657220746f20746865207a65726f2061646460008201527f7265737300000000000000000000000000000000000000000000000000000000602082015250565b6000615a73602483613ed1565b9150615a7e82615a17565b604082019050919050565b60006020820190508181036000830152615aa281615a66565b9050919050565b7f4552433732313a20617070726f766520746f2063616c6c657200000000000000600082015250565b6000615adf601983613ed1565b9150615aea82615aa9565b602082019050919050565b60006020820190508181036000830152615b0e81615ad2565b9050919050565b7f4552433732313a207472616e7366657220746f206e6f6e20455243373231526560008201527f63656976657220696d706c656d656e7465720000000000000000000000000000602082015250565b6000615b71603283613ed1565b9150615b7c82615b15565b604082019050919050565b60006020820190508181036000830152615ba081615b64565b9050919050565b7f416363657373436f6e74726f6c3a206163636f756e7420000000000000000000600082015250565b6000615bdd60178361584d565b9150615be882615ba7565b601782019050919050565b7f206973206d697373696e6720726f6c6520000000000000000000000000000000600082015250565b6000615c2960118361584d565b9150615c3482615bf3565b601182019050919050565b6000615c4a82615bd0565b9150615c568285615858565b9150615c6182615c1c565b9150615c6d8284615858565b91508190509392505050565b7f5061757361626c653a206e6f7420706175736564000000000000000000000000600082015250565b6000615caf601483613ed1565b9150615cba82615c79565b602082019050919050565b60006020820190508181036000830152615cde81615ca2565b9050919050565b7f5061757361626c653a2070617573656400000000000000000000000000000000600082015250565b6000615d1b601083613ed1565b9150615d2682615ce5565b602082019050919050565b60006020820190508181036000830152615d4a81615d0e565b9050919050565b600081519050919050565b600082825260208201905092915050565b6000615d7882615d51565b615d828185615d5c565b9350615d92818560208601613ee2565b615d9b81613f15565b840191505092915050565b6000608082019050615dbb6000830187614016565b615dc86020830186614016565b615dd560408301856140ac565b8181036060830152615de78184615d6d565b905095945050505050565b600081519050615e0181613e37565b92915050565b600060208284031215615e1d57615e1c613e01565b5b6000615e2b84828501615df2565b91505092915050565b7f4552433732315061757361626c653a20746f6b656e207472616e73666572207760008201527f68696c6520706175736564000000000000000000000000000000000000000000602082015250565b6000615e90602b83613ed1565b9150615e9b82615e34565b604082019050919050565b60006020820190508181036000830152615ebf81615e83565b9050919050565b6000615ed182613f81565b91506000821415615ee557615ee4614c82565b5b600182039050919050565b7f537472696e67733a20686578206c656e67746820696e73756666696369656e74600082015250565b6000615f26602083613ed1565b9150615f3182615ef0565b602082019050919050565b60006020820190508181036000830152615f5581615f19565b9050919050565b7f4e487b7100000000000000000000000000000000000000000000000000000000600052603160045260246000fdfea264697066735822122024d55bba9e4366489c5b60f501001e72b6ca03a2049f109aadd6ea1e9844ffa064736f6c6343000809003368747470733a2f2f616e6e6976657273652e7368776c642e6170702f6170692f746f6b656e732f",
  "linkReferences": {},
  "deployedLinkReferences": {}
}